{
  "_format": "hh-sol-artifact-1",
  "contractName": "MasterApeV2",
  "sourceName": "contracts/MasterApeV2.sol",
  "abi": [
    {
      "inputs": [
        {
          "internalType": "contract IERC20",
          "name": "banana_",
          "type": "address"
        },
        {
          "internalType": "contract IMasterApe",
          "name": "masterApe_",
          "type": "address"
        },
        {
          "internalType": "uint256",
          "name": "masterPid_",
          "type": "uint256"
        },
        {
          "internalType": "uint256",
          "name": "bananaPerSecond_",
          "type": "uint256"
        }
      ],
      "stateMutability": "nonpayable",
      "type": "constructor"
    },
    {
      "anonymous": false,
      "inputs": [
        {
          "indexed": true,
          "internalType": "address",
          "name": "user",
          "type": "address"
        },
        {
          "indexed": true,
          "internalType": "uint256",
          "name": "pid",
          "type": "uint256"
        },
        {
          "indexed": false,
          "internalType": "uint256",
          "name": "amount",
          "type": "uint256"
        }
      ],
      "name": "Deposit",
      "type": "event"
    },
    {
      "anonymous": false,
      "inputs": [
        {
          "indexed": true,
          "internalType": "address",
          "name": "user",
          "type": "address"
        },
        {
          "indexed": false,
          "internalType": "uint256",
          "name": "amount",
          "type": "uint256"
        }
      ],
      "name": "DepositBananaRewards",
      "type": "event"
    },
    {
      "anonymous": false,
      "inputs": [
        {
          "indexed": true,
          "internalType": "address",
          "name": "user",
          "type": "address"
        },
        {
          "indexed": true,
          "internalType": "uint256",
          "name": "pid",
          "type": "uint256"
        },
        {
          "indexed": false,
          "internalType": "uint256",
          "name": "amount",
          "type": "uint256"
        }
      ],
      "name": "EmergencyWithdraw",
      "type": "event"
    },
    {
      "anonymous": false,
      "inputs": [
        {
          "indexed": false,
          "internalType": "uint8",
          "name": "version",
          "type": "uint8"
        }
      ],
      "name": "Initialized",
      "type": "event"
    },
    {
      "anonymous": false,
      "inputs": [
        {
          "indexed": true,
          "internalType": "uint256",
          "name": "pid",
          "type": "uint256"
        },
        {
          "indexed": false,
          "internalType": "uint256",
          "name": "allocPoint",
          "type": "uint256"
        },
        {
          "indexed": true,
          "internalType": "contract IERC20",
          "name": "stakeToken",
          "type": "address"
        },
        {
          "indexed": false,
          "internalType": "uint16",
          "name": "depositFee",
          "type": "uint16"
        },
        {
          "indexed": true,
          "internalType": "contract IRewarderV2",
          "name": "rewarder",
          "type": "address"
        }
      ],
      "name": "LogPoolAddition",
      "type": "event"
    },
    {
      "anonymous": false,
      "inputs": [
        {
          "indexed": true,
          "internalType": "uint256",
          "name": "pid",
          "type": "uint256"
        },
        {
          "indexed": false,
          "internalType": "uint256",
          "name": "allocPoint",
          "type": "uint256"
        },
        {
          "indexed": false,
          "internalType": "uint16",
          "name": "depositFee",
          "type": "uint16"
        },
        {
          "indexed": true,
          "internalType": "contract IRewarderV2",
          "name": "rewarder",
          "type": "address"
        }
      ],
      "name": "LogSetPool",
      "type": "event"
    },
    {
      "anonymous": false,
      "inputs": [
        {
          "indexed": true,
          "internalType": "uint256",
          "name": "pid",
          "type": "uint256"
        },
        {
          "indexed": false,
          "internalType": "uint256",
          "name": "lastRewardBlock",
          "type": "uint256"
        },
        {
          "indexed": false,
          "internalType": "uint256",
          "name": "stakeSupply",
          "type": "uint256"
        },
        {
          "indexed": false,
          "internalType": "uint256",
          "name": "accBananaPerShare",
          "type": "uint256"
        }
      ],
      "name": "LogUpdatePool",
      "type": "event"
    },
    {
      "anonymous": false,
      "inputs": [
        {
          "indexed": true,
          "internalType": "address",
          "name": "previousOwner",
          "type": "address"
        },
        {
          "indexed": true,
          "internalType": "address",
          "name": "newOwner",
          "type": "address"
        }
      ],
      "name": "OwnershipTransferred",
      "type": "event"
    },
    {
      "anonymous": false,
      "inputs": [
        {
          "indexed": true,
          "internalType": "address",
          "name": "user",
          "type": "address"
        },
        {
          "indexed": true,
          "internalType": "address",
          "name": "newAddress",
          "type": "address"
        }
      ],
      "name": "SetFeeAddress",
      "type": "event"
    },
    {
      "anonymous": false,
      "inputs": [
        {
          "indexed": false,
          "internalType": "address",
          "name": "pendingMasterApeOwner",
          "type": "address"
        }
      ],
      "name": "SetPendingMasterApeV1Owner",
      "type": "event"
    },
    {
      "anonymous": false,
      "inputs": [
        {
          "indexed": true,
          "internalType": "address",
          "name": "whitelistAddress",
          "type": "address"
        },
        {
          "indexed": false,
          "internalType": "bool",
          "name": "whitelistEnabled",
          "type": "bool"
        }
      ],
      "name": "UpdateContractWhitelist",
      "type": "event"
    },
    {
      "anonymous": false,
      "inputs": [
        {
          "indexed": true,
          "internalType": "address",
          "name": "user",
          "type": "address"
        },
        {
          "indexed": false,
          "internalType": "uint256",
          "name": "bananaPerSecond",
          "type": "uint256"
        }
      ],
      "name": "UpdateEmissionRate",
      "type": "event"
    },
    {
      "anonymous": false,
      "inputs": [
        {
          "indexed": true,
          "internalType": "address",
          "name": "user",
          "type": "address"
        },
        {
          "indexed": false,
          "internalType": "uint256",
          "name": "hardCap",
          "type": "uint256"
        }
      ],
      "name": "UpdateHardCap",
      "type": "event"
    },
    {
      "anonymous": false,
      "inputs": [
        {
          "indexed": false,
          "internalType": "bool",
          "name": "whitelistEnabled",
          "type": "bool"
        }
      ],
      "name": "UpdateWhitelistStatus",
      "type": "event"
    },
    {
      "anonymous": false,
      "inputs": [
        {
          "indexed": true,
          "internalType": "address",
          "name": "user",
          "type": "address"
        },
        {
          "indexed": true,
          "internalType": "uint256",
          "name": "pid",
          "type": "uint256"
        },
        {
          "indexed": false,
          "internalType": "uint256",
          "name": "amount",
          "type": "uint256"
        }
      ],
      "name": "Withdraw",
      "type": "event"
    },
    {
      "inputs": [],
      "name": "MASTER_APE_BANANA_PER_BLOCK",
      "outputs": [
        {
          "internalType": "uint256",
          "name": "",
          "type": "uint256"
        }
      ],
      "stateMutability": "view",
      "type": "function"
    },
    {
      "inputs": [],
      "name": "MASTER_APE_BANANA_PER_SECOND_ESTIMATE",
      "outputs": [
        {
          "internalType": "uint256",
          "name": "",
          "type": "uint256"
        }
      ],
      "stateMutability": "view",
      "type": "function"
    },
    {
      "inputs": [],
      "name": "MAX_DEPOSIT_FEE_BP",
      "outputs": [
        {
          "internalType": "uint256",
          "name": "",
          "type": "uint256"
        }
      ],
      "stateMutability": "view",
      "type": "function"
    },
    {
      "inputs": [],
      "name": "acceptMasterApeV1Ownership",
      "outputs": [],
      "stateMutability": "nonpayable",
      "type": "function"
    },
    {
      "inputs": [
        {
          "internalType": "uint256",
          "name": "_allocPoint",
          "type": "uint256"
        },
        {
          "internalType": "contract IERC20",
          "name": "_stakeToken",
          "type": "address"
        },
        {
          "internalType": "bool",
          "name": "_withUpdate",
          "type": "bool"
        },
        {
          "internalType": "uint16",
          "name": "_depositFeeBP",
          "type": "uint16"
        },
        {
          "internalType": "contract IRewarderV2",
          "name": "_rewarder",
          "type": "address"
        }
      ],
      "name": "add",
      "outputs": [],
      "stateMutability": "nonpayable",
      "type": "function"
    },
    {
      "inputs": [],
      "name": "availableBananaRewards",
      "outputs": [
        {
          "internalType": "uint256",
          "name": "",
          "type": "uint256"
        }
      ],
      "stateMutability": "view",
      "type": "function"
    },
    {
      "inputs": [],
      "name": "banana",
      "outputs": [
        {
          "internalType": "contract IERC20",
          "name": "",
          "type": "address"
        }
      ],
      "stateMutability": "view",
      "type": "function"
    },
    {
      "inputs": [],
      "name": "bananaPerSecond",
      "outputs": [
        {
          "internalType": "uint256",
          "name": "",
          "type": "uint256"
        }
      ],
      "stateMutability": "view",
      "type": "function"
    },
    {
      "inputs": [
        {
          "internalType": "uint256",
          "name": "_pid",
          "type": "uint256"
        },
        {
          "internalType": "uint256",
          "name": "_amount",
          "type": "uint256"
        }
      ],
      "name": "deposit",
      "outputs": [],
      "stateMutability": "nonpayable",
      "type": "function"
    },
    {
      "inputs": [
        {
          "internalType": "uint256",
          "name": "_amount",
          "type": "uint256"
        }
      ],
      "name": "depositBananaRewards",
      "outputs": [],
      "stateMutability": "nonpayable",
      "type": "function"
    },
    {
      "inputs": [
        {
          "internalType": "uint256",
          "name": "_pid",
          "type": "uint256"
        },
        {
          "internalType": "uint256",
          "name": "_amount",
          "type": "uint256"
        },
        {
          "internalType": "address",
          "name": "_to",
          "type": "address"
        }
      ],
      "name": "depositTo",
      "outputs": [],
      "stateMutability": "nonpayable",
      "type": "function"
    },
    {
      "inputs": [
        {
          "internalType": "uint256",
          "name": "_pid",
          "type": "uint256"
        }
      ],
      "name": "emergencyWithdraw",
      "outputs": [],
      "stateMutability": "nonpayable",
      "type": "function"
    },
    {
      "inputs": [],
      "name": "feeAddress",
      "outputs": [
        {
          "internalType": "address",
          "name": "",
          "type": "address"
        }
      ],
      "stateMutability": "view",
      "type": "function"
    },
    {
      "inputs": [
        {
          "internalType": "uint256",
          "name": "_from",
          "type": "uint256"
        },
        {
          "internalType": "uint256",
          "name": "_to",
          "type": "uint256"
        }
      ],
      "name": "getMultiplier",
      "outputs": [
        {
          "internalType": "uint256",
          "name": "",
          "type": "uint256"
        }
      ],
      "stateMutability": "pure",
      "type": "function"
    },
    {
      "inputs": [
        {
          "internalType": "uint256",
          "name": "_pid",
          "type": "uint256"
        }
      ],
      "name": "getPoolInfo",
      "outputs": [
        {
          "internalType": "address",
          "name": "lpToken",
          "type": "address"
        },
        {
          "internalType": "uint256",
          "name": "allocPoint",
          "type": "uint256"
        },
        {
          "internalType": "contract IRewarderV2",
          "name": "rewarder",
          "type": "address"
        },
        {
          "internalType": "uint256",
          "name": "lastRewardTime",
          "type": "uint256"
        },
        {
          "internalType": "uint256",
          "name": "accBananaPerShare",
          "type": "uint256"
        },
        {
          "internalType": "uint256",
          "name": "totalStaked",
          "type": "uint256"
        },
        {
          "internalType": "uint16",
          "name": "depositFeeBP",
          "type": "uint16"
        }
      ],
      "stateMutability": "view",
      "type": "function"
    },
    {
      "inputs": [
        {
          "internalType": "uint256",
          "name": "_index",
          "type": "uint256"
        }
      ],
      "name": "getWhitelistAtIndex",
      "outputs": [
        {
          "internalType": "address",
          "name": "",
          "type": "address"
        }
      ],
      "stateMutability": "view",
      "type": "function"
    },
    {
      "inputs": [],
      "name": "getWhitelistLength",
      "outputs": [
        {
          "internalType": "uint256",
          "name": "",
          "type": "uint256"
        }
      ],
      "stateMutability": "view",
      "type": "function"
    },
    {
      "inputs": [],
      "name": "hardCap",
      "outputs": [
        {
          "internalType": "uint256",
          "name": "",
          "type": "uint256"
        }
      ],
      "stateMutability": "view",
      "type": "function"
    },
    {
      "inputs": [],
      "name": "harvestFromMasterApe",
      "outputs": [],
      "stateMutability": "nonpayable",
      "type": "function"
    },
    {
      "inputs": [],
      "name": "initialize",
      "outputs": [],
      "stateMutability": "nonpayable",
      "type": "function"
    },
    {
      "inputs": [
        {
          "internalType": "address",
          "name": "_address",
          "type": "address"
        }
      ],
      "name": "isWhitelisted",
      "outputs": [
        {
          "internalType": "bool",
          "name": "",
          "type": "bool"
        }
      ],
      "stateMutability": "view",
      "type": "function"
    },
    {
      "inputs": [],
      "name": "massUpdatePools",
      "outputs": [],
      "stateMutability": "nonpayable",
      "type": "function"
    },
    {
      "inputs": [],
      "name": "masterApe",
      "outputs": [
        {
          "internalType": "contract IMasterApe",
          "name": "",
          "type": "address"
        }
      ],
      "stateMutability": "view",
      "type": "function"
    },
    {
      "inputs": [],
      "name": "masterPid",
      "outputs": [
        {
          "internalType": "uint256",
          "name": "",
          "type": "uint256"
        }
      ],
      "stateMutability": "view",
      "type": "function"
    },
    {
      "inputs": [],
      "name": "owner",
      "outputs": [
        {
          "internalType": "address",
          "name": "",
          "type": "address"
        }
      ],
      "stateMutability": "view",
      "type": "function"
    },
    {
      "inputs": [
        {
          "internalType": "uint256",
          "name": "_pid",
          "type": "uint256"
        },
        {
          "internalType": "address",
          "name": "_user",
          "type": "address"
        }
      ],
      "name": "pendingBanana",
      "outputs": [
        {
          "internalType": "uint256",
          "name": "",
          "type": "uint256"
        }
      ],
      "stateMutability": "view",
      "type": "function"
    },
    {
      "inputs": [],
      "name": "pendingMasterApeV1Owner",
      "outputs": [
        {
          "internalType": "address",
          "name": "",
          "type": "address"
        }
      ],
      "stateMutability": "view",
      "type": "function"
    },
    {
      "inputs": [
        {
          "internalType": "contract IERC20",
          "name": "",
          "type": "address"
        }
      ],
      "name": "poolExistence",
      "outputs": [
        {
          "internalType": "bool",
          "name": "",
          "type": "bool"
        }
      ],
      "stateMutability": "view",
      "type": "function"
    },
    {
      "inputs": [
        {
          "internalType": "uint256",
          "name": "",
          "type": "uint256"
        }
      ],
      "name": "poolInfo",
      "outputs": [
        {
          "internalType": "contract IERC20",
          "name": "stakeToken",
          "type": "address"
        },
        {
          "internalType": "contract IRewarderV2",
          "name": "rewarder",
          "type": "address"
        },
        {
          "internalType": "uint256",
          "name": "allocPoint",
          "type": "uint256"
        },
        {
          "internalType": "uint256",
          "name": "totalStaked",
          "type": "uint256"
        },
        {
          "internalType": "uint256",
          "name": "lastRewardTime",
          "type": "uint256"
        },
        {
          "internalType": "uint256",
          "name": "accBananaPerShare",
          "type": "uint256"
        },
        {
          "internalType": "uint16",
          "name": "depositFeeBP",
          "type": "uint16"
        }
      ],
      "stateMutability": "view",
      "type": "function"
    },
    {
      "inputs": [],
      "name": "poolLength",
      "outputs": [
        {
          "internalType": "uint256",
          "name": "",
          "type": "uint256"
        }
      ],
      "stateMutability": "view",
      "type": "function"
    },
    {
      "inputs": [],
      "name": "renounceOwnership",
      "outputs": [],
      "stateMutability": "nonpayable",
      "type": "function"
    },
    {
      "inputs": [
        {
          "internalType": "uint256",
          "name": "_pid",
          "type": "uint256"
        },
        {
          "internalType": "uint256",
          "name": "_allocPoint",
          "type": "uint256"
        },
        {
          "internalType": "bool",
          "name": "_withUpdate",
          "type": "bool"
        },
        {
          "internalType": "uint16",
          "name": "_depositFeeBP",
          "type": "uint16"
        },
        {
          "internalType": "contract IRewarderV2",
          "name": "_rewarder",
          "type": "address"
        }
      ],
      "name": "set",
      "outputs": [],
      "stateMutability": "nonpayable",
      "type": "function"
    },
    {
      "inputs": [
        {
          "internalType": "address[]",
          "name": "_addresses",
          "type": "address[]"
        },
        {
          "internalType": "bool[]",
          "name": "_enabled",
          "type": "bool[]"
        }
      ],
      "name": "setBatchContractWhitelist",
      "outputs": [],
      "stateMutability": "nonpayable",
      "type": "function"
    },
    {
      "inputs": [
        {
          "internalType": "address",
          "name": "_address",
          "type": "address"
        },
        {
          "internalType": "bool",
          "name": "_enabled",
          "type": "bool"
        }
      ],
      "name": "setContractWhitelist",
      "outputs": [],
      "stateMutability": "nonpayable",
      "type": "function"
    },
    {
      "inputs": [
        {
          "internalType": "address",
          "name": "_feeAddress",
          "type": "address"
        }
      ],
      "name": "setFeeAddress",
      "outputs": [],
      "stateMutability": "nonpayable",
      "type": "function"
    },
    {
      "inputs": [
        {
          "internalType": "address",
          "name": "_pendingMasterApeV1Owner",
          "type": "address"
        }
      ],
      "name": "setPendingMasterApeV1Owner",
      "outputs": [],
      "stateMutability": "nonpayable",
      "type": "function"
    },
    {
      "inputs": [
        {
          "internalType": "bool",
          "name": "_enabled",
          "type": "bool"
        }
      ],
      "name": "setWhitelistEnabled",
      "outputs": [],
      "stateMutability": "nonpayable",
      "type": "function"
    },
    {
      "inputs": [],
      "name": "totalAllocPoint",
      "outputs": [
        {
          "internalType": "uint256",
          "name": "",
          "type": "uint256"
        }
      ],
      "stateMutability": "view",
      "type": "function"
    },
    {
      "inputs": [
        {
          "internalType": "address",
          "name": "newOwner",
          "type": "address"
        }
      ],
      "name": "transferOwnership",
      "outputs": [],
      "stateMutability": "nonpayable",
      "type": "function"
    },
    {
      "inputs": [],
      "name": "unallocatedBanana",
      "outputs": [
        {
          "internalType": "uint256",
          "name": "",
          "type": "uint256"
        }
      ],
      "stateMutability": "view",
      "type": "function"
    },
    {
      "inputs": [
        {
          "internalType": "uint256",
          "name": "_bananaPerSecond",
          "type": "uint256"
        },
        {
          "internalType": "bool",
          "name": "_withUpdate",
          "type": "bool"
        }
      ],
      "name": "updateEmissionRate",
      "outputs": [],
      "stateMutability": "nonpayable",
      "type": "function"
    },
    {
      "inputs": [
        {
          "internalType": "uint256",
          "name": "_hardCap",
          "type": "uint256"
        }
      ],
      "name": "updateHardCap",
      "outputs": [],
      "stateMutability": "nonpayable",
      "type": "function"
    },
    {
      "inputs": [
        {
          "internalType": "uint256",
          "name": "_pid",
          "type": "uint256"
        }
      ],
      "name": "updatePool",
      "outputs": [],
      "stateMutability": "nonpayable",
      "type": "function"
    },
    {
      "inputs": [
        {
          "internalType": "uint256",
          "name": "",
          "type": "uint256"
        },
        {
          "internalType": "address",
          "name": "",
          "type": "address"
        }
      ],
      "name": "userInfo",
      "outputs": [
        {
          "internalType": "uint256",
          "name": "amount",
          "type": "uint256"
        },
        {
          "internalType": "uint256",
          "name": "rewardDebt",
          "type": "uint256"
        }
      ],
      "stateMutability": "view",
      "type": "function"
    },
    {
      "inputs": [],
      "name": "whitelistEnabled",
      "outputs": [
        {
          "internalType": "bool",
          "name": "",
          "type": "bool"
        }
      ],
      "stateMutability": "view",
      "type": "function"
    },
    {
      "inputs": [
        {
          "internalType": "uint256",
          "name": "_pid",
          "type": "uint256"
        },
        {
          "internalType": "uint256",
          "name": "_amount",
          "type": "uint256"
        }
      ],
      "name": "withdraw",
      "outputs": [],
      "stateMutability": "nonpayable",
      "type": "function"
    },
    {
      "inputs": [
        {
          "internalType": "uint256",
          "name": "_pid",
          "type": "uint256"
        },
        {
          "internalType": "uint256",
          "name": "_amount",
          "type": "uint256"
        },
        {
          "internalType": "address",
          "name": "_to",
          "type": "address"
        }
      ],
      "name": "withdrawTo",
      "outputs": [],
      "stateMutability": "nonpayable",
      "type": "function"
    }
  ],
  "bytecode": "0x60e06040526b015b6a759f4835dc240000006007553480156200002157600080fd5b506040516200443e3803806200443e833981016040819052620000449162000e12565b6200004f3362000091565b60016004556001600160a01b0380851660c052831660805260a08290526200007781620000ec565b6200008760008581808062000193565b5050505062000fce565b600080546001600160a01b038381166201000081810262010000600160b01b0319851617855560405193049190911692909183917f8be0079c531659141344cd1fd0a4f28419497f9722a3daafe3b4186f6b6457e091a35050565b620001016003678ac7230489e8000062000e75565b811115620001565760405162461bcd60e51b815260206004820152601660248201527f4d6f7265207468616e206d6178696d756d20726174650000000000000000000060448201526064015b60405180910390fd5b600681905560405181815233907fe2492e003bbe8afa53088b406f0c1cb5d9e280370fc72a74cf116ffd343c40539060200160405180910390a250565b6200019d6200045b565b6001600160a01b0384166000908152600e6020526040902054849060ff16156200020a5760405162461bcd60e51b815260206004820152601960248201527f6e6f6e4475706c6963617465643a206475706c6963617465640000000000000060448201526064016200014d565b6103e88361ffff161115620002625760405162461bcd60e51b815260206004820152601860248201527f6164643a20696e76616c6964206465706f73697420666565000000000000000060448201526064016200014d565b8315620002735762000273620004c0565b600042905086600d60008282546200028c919062000e98565b925050819055506001600e6000886001600160a01b03166001600160a01b0316815260200190815260200160002060006101000a81548160ff021916908315150217905550600b6040518060e00160405280886001600160a01b03168152602001856001600160a01b0316815260200189815260200160008152602001838152602001600081526020018661ffff16815250908060018154018082558091505060019003906000526020600020906007020160009091909190915060008201518160000160006101000a8154816001600160a01b0302191690836001600160a01b0316021790555060208201518160010160006101000a8154816001600160a01b0302191690836001600160a01b0316021790555060408201518160020155606082015181600301556080820151816004015560a0820151816005015560c08201518160060160006101000a81548161ffff021916908361ffff1602179055505050826001600160a01b0316866001600160a01b03166001600b8054905062000416919062000eae565b604080518b815261ffff891660208201527fc22f9ee3fed56a1a3f7b694e3202f7f4ada722438be846c67ebb439e27c01b02910160405180910390a450505050505050565b6000546001600160a01b0362010000909104163314620004be5760405162461bcd60e51b815260206004820181905260248201527f4f776e61626c653a2063616c6c6572206973206e6f7420746865206f776e657260448201526064016200014d565b565b600b5460005b81811015620004ed57620004da81620004f1565b620004e58162000ec4565b9050620004c6565b5050565b6000600b828154811062000509576200050962000ee0565b906000526020600020906007020190508060040154421162000529575050565b60038101548015806200053e57506002820154155b156200054f57504260049091015550565b6000620005678360040154426200072a60201b60201c565b426004850155600d5460028501546006549293506000926200058a908562000ef6565b62000596919062000ef6565b620005a2919062000e75565b905080600003620005b4575050505050565b600854811115620005c957620005c962000741565b6007546008548260c0516001600160a01b03166318160ddd6040518163ffffffff1660e01b8152600401602060405180830381865afa15801562000611573d6000803e3d6000fd5b505050506040513d601f19601f8201168201806040525081019062000637919062000f10565b62000643919062000e98565b6200064f919062000eae565b111562000683576200066062000741565b6008548110620006835750600854600654156200068357620006836000620000ec565b8262000698670de0b6b3a76400008362000ef6565b620006a4919062000e75565b846005016000828254620006b9919062000e98565b925050819055508060086000828254620006d4919062000eae565b909155505060048401546005850154604080519283526020830186905282015285907fcb7325664a4a3b7c7223eefc492a97ca4fdf94d46884621e5a8fae5a04b2b9d29060600160405180910390a25050505050565b600062000738838362000eae565b90505b92915050565b60c0516040516370a0823160e01b81523060048201526000916001600160a01b0316906370a0823190602401602060405180830381865afa1580156200078b573d6000803e3d6000fd5b505050506040513d601f19601f82011682018060405250810190620007b1919062000f10565b60805160a051604051631c57762b60e31b81526004810191909152600060248201529192506001600160a01b03169063e2bbb15890604401600060405180830381600087803b1580156200080457600080fd5b505af115801562000819573d6000803e3d6000fd5b505060c0516040516370a0823160e01b8152306004820152600093508492506001600160a01b03909116906370a0823190602401602060405180830381865afa1580156200086b573d6000803e3d6000fd5b505050506040513d601f19601f8201168201806040525081019062000891919062000f10565b6200089d919062000eae565b90508060086000828254620008b3919062000e98565b925050819055508060096000828254620008ce919062000e98565b92505081905550600060c0516001600160a01b03166318160ddd6040518163ffffffff1660e01b8152600401602060405180830381865afa15801562000918573d6000803e3d6000fd5b505050506040513d601f19601f820116820180604052508101906200093e919062000f10565b90506007548110158015620009b9575060006080516001600160a01b0316638aa285506040518163ffffffff1660e01b8152600401602060405180830381865afa15801562000991573d6000803e3d6000fd5b505050506040513d601f19601f82011682018060405250810190620009b7919062000f10565b115b1562000a8457608051604051632fff30a360e11b8152600060048201526001600160a01b0390911690635ffe614690602401600060405180830381600087803b15801562000a0657600080fd5b505af115801562000a1b573d6000803e3d6000fd5b5050505060006007548262000a31919062000eae565b9050806009541062000a6b57806008600082825462000a51919062000eae565b9091555062000a65905061dead8262000a89565b62000a82565b600060085560095462000a829061dead9062000a89565b505b505050565b60095481111562000a9e5762000a9e62000741565b60095481111562000add5760095490506000600981905550620004ed828260c0516001600160a01b031662000b1f60201b62001fb3179092919060201c565b806009600082825462000af1919062000eae565b92505081905550620004ed828260c0516001600160a01b031662000b1f60201b62001fb3179092919060201c565b604080516001600160a01b038416602482015260448082018490528251808303909101815260649091019091526020810180516001600160e01b0390811663a9059cbb60e01b1790915262000a8491859162000b7716565b600062000bd3826040518060400160405280602081526020017f5361666545524332303a206c6f772d6c6576656c2063616c6c206661696c6564815250856001600160a01b031662000c5560201b62002016179092919060201c565b80519091501562000a84578080602001905181019062000bf4919062000f2a565b62000a845760405162461bcd60e51b815260206004820152602a60248201527f5361666545524332303a204552433230206f7065726174696f6e20646964206e6044820152691bdd081cdd58d8d9595960b21b60648201526084016200014d565b606062000c66848460008562000c6e565b949350505050565b60608247101562000cd15760405162461bcd60e51b815260206004820152602660248201527f416464726573733a20696e73756666696369656e742062616c616e636520666f6044820152651c8818d85b1b60d21b60648201526084016200014d565b600080866001600160a01b0316858760405162000cef919062000f7b565b60006040518083038185875af1925050503d806000811462000d2e576040519150601f19603f3d011682016040523d82523d6000602084013e62000d33565b606091505b50909250905062000d478783838762000d52565b979650505050505050565b6060831562000dc657825160000362000dbe576001600160a01b0385163b62000dbe5760405162461bcd60e51b815260206004820152601d60248201527f416464726573733a2063616c6c20746f206e6f6e2d636f6e747261637400000060448201526064016200014d565b508162000c66565b62000c66838381511562000ddd5781518083602001fd5b8060405162461bcd60e51b81526004016200014d919062000f99565b6001600160a01b038116811462000e0f57600080fd5b50565b6000806000806080858703121562000e2957600080fd5b845162000e368162000df9565b602086015190945062000e498162000df9565b6040860151606090960151949790965092505050565b634e487b7160e01b600052601160045260246000fd5b60008262000e9357634e487b7160e01b600052601260045260246000fd5b500490565b808201808211156200073b576200073b62000e5f565b818103818111156200073b576200073b62000e5f565b60006001820162000ed95762000ed962000e5f565b5060010190565b634e487b7160e01b600052603260045260246000fd5b80820281158282048414176200073b576200073b62000e5f565b60006020828403121562000f2357600080fd5b5051919050565b60006020828403121562000f3d57600080fd5b8151801515811462000f4e57600080fd5b9392505050565b60005b8381101562000f7257818101518382015260200162000f58565b50506000910152565b6000825162000f8f81846020870162000f55565b9190910192915050565b602081526000825180602084015262000fba81604085016020870162000f55565b601f01601f19169190910160400192915050565b60805160a05160c0516133c26200107c6000396000818161061801528181611097015281816121bc0152818161234f0152818161239b015281816125810152818161274f015281816128870152612934015260008181610517015281816112050152818161141e01526127d10152600081816104500152818161122e015281816113920152818161144b01528181611ebb01528181612801015281816129c70152612a6401526133c26000f3fe608060405234801561001057600080fd5b50600436106102955760003560e01c8063703df79311610167578063a13202e9116100ce578063de9f3a1711610087578063de9f3a1714610666578063e2bbb15814610679578063f2653b161461068c578063f2fde38b14610694578063fb86a404146106a7578063fd772ae6146106b057600080fd5b8063a13202e9146105f0578063aa8f6ca1146105f8578063b7f790c11461060b578063c3cafc6f14610613578063cbd258b51461063a578063d89e4f341461065d57600080fd5b8063889b830711610120578063889b8307146105545780638da5cb5b1461055d5780638dbb1e3a1461057457806393f1a40b146105875780639a269e0c146105ce5780639fb1fb1f146105e157600080fd5b8063703df793146104e4578063715018a6146104f7578063777593fe146104ff57806380b7d5c1146105125780638129fc1c146105395780638705fcd41461054157600080fd5b8063412753581161020b5780635312ea8e116101c45780635312ea8e146104925780635c56b370146104a55780635e81f9c3146104ad578063630b5ba1146104c05780636b4c3077146104c85780636c020b06146104db57600080fd5b80634127535814610412578063441a3e701461042557806345ff0d8f1461043857806348fe55f61461044b57806351eb05a61461047257806351fb012d1461048557600080fd5b806317caf6f11161025d57806317caf6f11461035b5780632f380b3514610364578063365487a0146103c057806337caa6e7146103d3578063387297fc146103dc5780633af32abf146103ef57600080fd5b8063052d9e7e1461029a578063067a0075146102af578063081e3eda146102df57806314cd70e4146102f15780631526fe2714610304575b600080fd5b6102ad6102a8366004612f0a565b6106c3565b005b6102c26102bd366004612f27565b610719565b6040516001600160a01b0390911681526020015b60405180910390f35b600b545b6040519081526020016102d6565b6102ad6102ff366004612f55565b61072c565b610317610312366004612f27565b610958565b604080516001600160a01b039889168152979096166020880152948601939093526060850191909152608084015260a083015261ffff1660c082015260e0016102d6565b6102e3600d5481565b610377610372366004612f27565b6109b8565b604080516001600160a01b039889168152602081019790975294909616938501939093526060840191909152608083015260a082015261ffff90911660c082015260e0016102d6565b6102ad6103ce366004612fa5565b610b03565b6102e36103e881565b6102ad6103ea366004613002565b610cb6565b6104026103fd366004613002565b610d0c565b60405190151581526020016102d6565b600a546102c2906001600160a01b031681565b6102ad61043336600461301f565b610d19565b6102ad610446366004613041565b610d28565b6102c27f000000000000000000000000000000000000000000000000000000000000000081565b6102ad610480366004612f27565b610d47565b6003546104029060ff1681565b6102ad6104a0366004612f27565b610d65565b6102e3610eb4565b6102ad6104bb3660046130bd565b610eca565b6102ad610f8c565b6005546102c2906001600160a01b031681565b6102e360095481565b6102ad6104f2366004612f27565b610fb3565b6102ad610fc4565b6102ad61050d366004612f27565b610fd8565b6102e37f000000000000000000000000000000000000000000000000000000000000000081565b6102ad61112e565b6102ad61054f366004613002565b6114f4565b6102e360065481565b6000546201000090046001600160a01b03166102c2565b6102e361058236600461301f565b61161d565b6105b9610595366004613129565b600c6020908152600092835260408084209091529082529020805460019091015482565b604080519283526020830191909152016102d6565b6102ad6105dc366004612f55565b611630565b6102e3678ac7230489e8000081565b6102e36119d6565b6102e3610606366004613129565b6119e7565b6102ad611b6b565b6102c27f000000000000000000000000000000000000000000000000000000000000000081565b610402610648366004613002565b600e6020526000908152604090205460ff1681565b6102e360085481565b6102ad61067436600461314e565b611b85565b6102ad61068736600461301f565b611e40565b6102ad611e4b565b6102ad6106a2366004613002565b611f2b565b6102e360075481565b6102ad6106be366004613188565b611fa1565b6106cb61202d565b6003805460ff191682151590811790915560405160ff909116151581527fd1a6fe32acce5bcdfbc5fee8b6f05cf793552efccacbf6eb93c4a8a37ad10336906020015b60405180910390a150565b600061072660018361208e565b92915050565b61073461209a565b61073d836120f3565b6000600b8481548110610752576107526131b6565b60009182526020808320878452600c8252604080852033865290925292208054600790920290920192508411156107c95760405162461bcd60e51b81526020600482015260166024820152751dda5d1a191c985dce881a5b9cdd59999a58da595b9d60521b60448201526064015b60405180910390fd5b60008160010154670de0b6b3a7640000846005015484600001546107ed91906131e2565b6107f791906131f9565b610801919061321b565b9050801561081357610813848261231c565b84826000016000828254610827919061321b565b909155505060018301546001600160a01b0316156108b157600183015482546003850154604051630386199160e11b81526001600160a01b039093169263070c33229261087e928b9233928b92899260040161322e565b600060405180830381600087803b15801561089857600080fd5b505af11580156108ac573d6000803e3d6000fd5b505050505b84156108e657848360030160008282546108cb919061321b565b909155505082546108e6906001600160a01b03168587611fb3565b60058301548254670de0b6b3a764000091610900916131e2565b61090a91906131f9565b6001830155604051858152869033907ff279e6a1f5e320cca91135676d9cb6e44ca8a08c0b88342bcdb1144f6511b5689060200160405180910390a35050506109536001600455565b505050565b600b818154811061096857600080fd5b600091825260209091206007909102018054600182015460028301546003840154600485015460058601546006909601546001600160a01b039586169750949093169491939092919061ffff1687565b6000806000806000806000600b88815481106109d6576109d66131b6565b6000918252602090912060079091020154600b80546001600160a01b03909216918a908110610a0757610a076131b6565b906000526020600020906007020160020154600b8a81548110610a2c57610a2c6131b6565b906000526020600020906007020160010160009054906101000a90046001600160a01b0316600b8b81548110610a6457610a646131b6565b906000526020600020906007020160040154600b8c81548110610a8957610a896131b6565b906000526020600020906007020160050154600b8d81548110610aae57610aae6131b6565b906000526020600020906007020160030154600b8e81548110610ad357610ad36131b6565b6000918252602090912060079091020160060154959e949d50929b509099509750955061ffff9091169350915050565b610b0b61202d565b6103e88261ffff161115610b615760405162461bcd60e51b815260206004820152601860248201527f7365743a20696e76616c6964206465706f73697420666565000000000000000060448201526064016107c0565b8215610b7457610b6f610f8c565b610b7d565b610b7d856120f3565b83600b8681548110610b9157610b916131b6565b906000526020600020906007020160020154600d54610bb0919061321b565b610bba9190613262565b600d8190555083600b8681548110610bd457610bd46131b6565b90600052602060002090600702016002018190555081600b8681548110610bfd57610bfd6131b6565b906000526020600020906007020160060160006101000a81548161ffff021916908361ffff16021790555080600b8681548110610c3c57610c3c6131b6565b60009182526020918290206007919091020160010180546001600160a01b0319166001600160a01b039384161790556040805187815261ffff8616928101929092529183169187917f86314aa8d1d923d1298345614250068b896dc84cd630faa7dd6e6d7f76c9674d910160405180910390a35050505050565b610cbe61202d565b600580546001600160a01b0319166001600160a01b0383169081179091556040519081527f5c2487322c17aee99ba5d06992e42fbd812b6a7c3e80dc1ee04d2ad4ac2c96339060200161070e565b60006107266001836123c2565b610d2482823361072c565b5050565b610d3061202d565b8015610d3e57610d3e610f8c565b610d24826123e4565b610d4f61209a565b610d58816120f3565b610d626001600455565b50565b610d6d61209a565b6000600b8281548110610d8257610d826131b6565b60009182526020808320858452600c825260408085203386529092529083208054848255600180830195909555600790930290910192830154929350916001600160a01b031615610e415760018301546003840154604051630386199160e11b81526001600160a01b039092169163070c332291610e0e9188913391829160009182919060040161322e565b600060405180830381600087803b158015610e2857600080fd5b505af1158015610e3c573d6000803e3d6000fd5b505050505b80836003016000828254610e55919061321b565b90915550508254610e70906001600160a01b03163383611fb3565b604051818152849033907fbb757047c2b5f3974fe26b7c10f732e7bce710b0952a71082702781e62ae05959060200160405180910390a3505050610d626001600455565b610ec76003678ac7230489e800006131f9565b81565b610ed261202d565b828114610f125760405162461bcd60e51b815260206004820152600e60248201526d0c2e4e4c2f240dad2e6dac2e8c6d60931b60448201526064016107c0565b60005b83811015610f8557610f73858583818110610f3257610f326131b6565b9050602002016020810190610f479190613002565b848484818110610f5957610f596131b6565b9050602002016020810190610f6e9190612f0a565b61247d565b80610f7d81613275565b915050610f15565b5050505050565b600b5460005b81811015610d2457610fa3816120f3565b610fac81613275565b9050610f92565b610fbb61202d565b610d628161257f565b610fcc61202d565b610fd66000612694565b565b610fe061209a565b60035460ff168015610ff25750333214155b1561104c5761100033610d0c565b61104c5760405162461bcd60e51b815260206004820181905260248201527f636865636b57686974656c6973743a206e6f7420696e2077686974656c69737460448201526064016107c0565b6000811161108a5760405162461bcd60e51b815260206004820152600b60248201526a0616d6f756e7420697320360ac1b60448201526064016107c0565b6110bf6001600160a01b037f0000000000000000000000000000000000000000000000000000000000000000163330846126ef565b80600860008282546110d19190613262565b9250508190555080600960008282546110ea9190613262565b909155505060405181815233907f3450aa401d6d51d32bd4e94a195c833ee47070b0af418bfc91e88b6c53c4f0289060200160405180910390a2610d626001600455565b600054610100900460ff161580801561114e5750600054600160ff909116105b806111685750303b158015611168575060005460ff166001145b6111cb5760405162461bcd60e51b815260206004820152602e60248201527f496e697469616c697a61626c653a20636f6e747261637420697320616c72656160448201526d191e481a5b9a5d1a585b1a5e995960921b60648201526084016107c0565b6000805460ff1916600117905580156111ee576000805461ff0019166101001790555b6111f661202d565b604051632f380b3560e01b81527f000000000000000000000000000000000000000000000000000000000000000060048201526000907f00000000000000000000000000000000000000000000000000000000000000006001600160a01b031690632f380b3590602401608060405180830381865afa15801561127d573d6000803e3d6000fd5b505050506040513d601f19601f820116820180604052508101906112a1919061328e565b50506040516370a0823160e01b81523360048201529192508291600091506001600160a01b038316906370a0823190602401602060405180830381865afa1580156112f0573d6000803e3d6000fd5b505050506040513d601f19601f8201168201806040525081019061131491906132cd565b9050806000036113665760405162461bcd60e51b815260206004820152601860248201527f4d617374657241706556323a206261642062616c616e6365000000000000000060448201526064016107c0565b61137b6001600160a01b0383163330846126ef565b60405163095ea7b360e01b81526001600160a01b037f0000000000000000000000000000000000000000000000000000000000000000811660048301526024820183905283169063095ea7b3906044016020604051808303816000875af11580156113ea573d6000803e3d6000fd5b505050506040513d601f19601f8201168201806040525081019061140e91906132e6565b50604051631c57762b60e31b81527f00000000000000000000000000000000000000000000000000000000000000006004820152602481018290527f00000000000000000000000000000000000000000000000000000000000000006001600160a01b03169063e2bbb15890604401600060405180830381600087803b15801561149757600080fd5b505af11580156114ab573d6000803e3d6000fd5b505050505050508015610d62576000805461ff0019169055604051600181527f7f26b83ff96e1f2b6a682f133852f6798a09c465da95921460cefb38474024989060200161070e565b600a546001600160a01b031633148061152f57506000546201000090046001600160a01b03166001600160a01b0316336001600160a01b0316145b61157b5760405162461bcd60e51b815260206004820152601860248201527f736574466565416464726573733a20464f5242494444454e000000000000000060448201526064016107c0565b6001600160a01b0381166115d15760405162461bcd60e51b815260206004820152601960248201527f736574466565416464726573733a20616464726573732830290000000000000060448201526064016107c0565b600a80546001600160a01b0319166001600160a01b03831690811790915560405133907fd44190acf9d04bdb5d3a1aafff7e6dee8b40b93dfb8c5d3f0eea4b9f4539c3f790600090a350565b6000611629838361321b565b9392505050565b61163861209a565b60035460ff16801561164a5750333214155b156116a45761165833610d0c565b6116a45760405162461bcd60e51b815260206004820181905260248201527f636865636b57686974656c6973743a206e6f7420696e2077686974656c69737460448201526064016107c0565b6116ad836120f3565b6000600b84815481106116c2576116c26131b6565b60009182526020808320878452600c825260408085206001600160a01b0388168652909252908320805460079093029091019350919081901561174457600183015460058501548454670de0b6b3a76400009161171e916131e2565b61172891906131f9565b611732919061321b565b9050801561174457611744858261231c565b85156118c15783546040516370a0823160e01b81523060048201526001600160a01b039091169060009082906370a0823190602401602060405180830381865afa158015611796573d6000803e3d6000fd5b505050506040513d601f19601f820116820180604052508101906117ba91906132cd565b90506117d16001600160a01b03831633308b6126ef565b6040516370a0823160e01b815230600482015281906001600160a01b038416906370a0823190602401602060405180830381865afa158015611817573d6000803e3d6000fd5b505050506040513d601f19601f8201168201806040525081019061183b91906132cd565b611845919061321b565b600687015490945061ffff16156118a5576006860154600090612710906118709061ffff16876131e2565b61187a91906131f9565b600a54909150611897906001600160a01b03858116911683611fb3565b6118a1818661321b565b9450505b838560000160008282546118b99190613262565b909155505050505b60018401546001600160a01b03161561194657600184015483546003860154604051630386199160e11b81526001600160a01b039093169263070c332292611913928c928b928392899260040161322e565b600060405180830381600087803b15801561192d57600080fd5b505af1158015611941573d6000803e3d6000fd5b505050505b8184600301600082825461195a9190613262565b909155505060058401548354670de0b6b3a764000091611979916131e2565b61198391906131f9565b600184015560405182815287906001600160a01b038716907f90890809c654f11d6e72a28fa60149770a0d11ec6c92319d6ceb2bb0a4ea1a159060200160405180910390a3505050506109536001600455565b60006119e2600161272d565b905090565b600080600b84815481106119fd576119fd6131b6565b600091825260208083206040805160e081018252600790940290910180546001600160a01b039081168552600180830154821686860152600283015486850152600383015460608701908152600484015460808801908152600585015460a0890190815260069095015461ffff1660c08901528c8952600c8752858920938c168952928652968490208451808601909552805485520154938301939093525193519151929450929142118015611ab257508015155b8015611abf5750600d5415155b15611b30576000611ad485608001514261161d565b90506000600d54866040015160065484611aee91906131e2565b611af891906131e2565b611b0291906131f9565b905082611b17670de0b6b3a7640000836131e2565b611b2191906131f9565b611b2b9085613262565b935050505b60208301518351670de0b6b3a764000090611b4c9085906131e2565b611b5691906131f9565b611b60919061321b565b979650505050505050565b611b7361209a565b611b7b612737565b610fd66001600455565b611b8d61202d565b6001600160a01b0384166000908152600e6020526040902054849060ff1615611bf85760405162461bcd60e51b815260206004820152601960248201527f6e6f6e4475706c6963617465643a206475706c6963617465640000000000000060448201526064016107c0565b6103e88361ffff161115611c4e5760405162461bcd60e51b815260206004820152601860248201527f6164643a20696e76616c6964206465706f73697420666565000000000000000060448201526064016107c0565b8315611c5c57611c5c610f8c565b600042905086600d6000828254611c739190613262565b925050819055506001600e6000886001600160a01b03166001600160a01b0316815260200190815260200160002060006101000a81548160ff021916908315150217905550600b6040518060e00160405280886001600160a01b03168152602001856001600160a01b0316815260200189815260200160008152602001838152602001600081526020018661ffff16815250908060018154018082558091505060019003906000526020600020906007020160009091909190915060008201518160000160006101000a8154816001600160a01b0302191690836001600160a01b0316021790555060208201518160010160006101000a8154816001600160a01b0302191690836001600160a01b0316021790555060408201518160020155606082015181600301556080820151816004015560a0820151816005015560c08201518160060160006101000a81548161ffff021916908361ffff1602179055505050826001600160a01b0316866001600160a01b03166001600b80549050611dfb919061321b565b604080518b815261ffff891660208201527fc22f9ee3fed56a1a3f7b694e3202f7f4ada722438be846c67ebb439e27c01b02910160405180910390a450505050505050565b610d24828233611630565b6005546001600160a01b03163314611e995760405162461bcd60e51b81526020600482015260116024820152703737ba103832b73234b7339037bbb732b960791b60448201526064016107c0565b60055460405163f2fde38b60e01b81526001600160a01b0391821660048201527f00000000000000000000000000000000000000000000000000000000000000009091169063f2fde38b90602401600060405180830381600087803b158015611f0157600080fd5b505af1158015611f15573d6000803e3d6000fd5b5050600580546001600160a01b03191690555050565b611f3361202d565b6001600160a01b038116611f985760405162461bcd60e51b815260206004820152602660248201527f4f776e61626c653a206e6577206f776e657220697320746865207a65726f206160448201526564647265737360d01b60648201526084016107c0565b610d6281612694565b611fa961202d565b610d24828261247d565b6040516001600160a01b03831660248201526044810182905261095390849063a9059cbb60e01b906064015b60408051601f198184030181529190526020810180516001600160e01b03166001600160e01b031990931692909217909152612b21565b60606120258484600085612bf3565b949350505050565b6000546001600160a01b0362010000909104163314610fd65760405162461bcd60e51b815260206004820181905260248201527f4f776e61626c653a2063616c6c6572206973206e6f7420746865206f776e657260448201526064016107c0565b60006116298383612cc3565b6002600454036120ec5760405162461bcd60e51b815260206004820152601f60248201527f5265656e7472616e637947756172643a207265656e7472616e742063616c6c0060448201526064016107c0565b6002600455565b6000600b8281548110612108576121086131b6565b9060005260206000209060070201905080600401544211612127575050565b600381015480158061213b57506002820154155b1561214b57504260049091015550565b600061215b83600401544261161d565b426004850155600d54600285015460065492935060009261217c90856131e2565b61218691906131e2565b61219091906131f9565b9050806000036121a1575050505050565b6008548111156121b3576121b3612737565b600754600854827f00000000000000000000000000000000000000000000000000000000000000006001600160a01b03166318160ddd6040518163ffffffff1660e01b8152600401602060405180830381865afa158015612218573d6000803e3d6000fd5b505050506040513d601f19601f8201168201806040525081019061223c91906132cd565b6122469190613262565b612250919061321b565b111561227d5761225e612737565b600854811061227d57506008546006541561227d5761227d60006123e4565b82612290670de0b6b3a7640000836131e2565b61229a91906131f9565b8460050160008282546122ad9190613262565b9250508190555080600860008282546122c6919061321b565b909155505060048401546005850154604080519283526020830186905282015285907fcb7325664a4a3b7c7223eefc492a97ca4fdf94d46884621e5a8fae5a04b2b9d29060600160405180910390a25050505050565b60095481111561232e5761232e612737565b6009548111156123765750600980546000909155610d246001600160a01b037f0000000000000000000000000000000000000000000000000000000000000000168383611fb3565b8060096000828254612388919061321b565b90915550610d2490506001600160a01b037f0000000000000000000000000000000000000000000000000000000000000000168383611fb3565b6001600160a01b03811660009081526001830160205260408120541515611629565b6123f76003678ac7230489e800006131f9565b81111561243f5760405162461bcd60e51b81526020600482015260166024820152754d6f7265207468616e206d6178696d756d207261746560501b60448201526064016107c0565b600681905560405181815233907fe2492e003bbe8afa53088b406f0c1cb5d9e280370fc72a74cf116ffd343c4053906020015b60405180910390a250565b80156124df5761248e600183612ced565b6124da5760405162461bcd60e51b815260206004820152601760248201527f6164647265737320616c726561647920656e61626c656400000000000000000060448201526064016107c0565b612536565b6124ea600183612d02565b6125365760405162461bcd60e51b815260206004820152601860248201527f6164647265737320616c72656164792064697361626c6564000000000000000060448201526064016107c0565b816001600160a01b03167fd1f62536ea3034771c60bea487f2eee8006f7c2789214fd3d5ac1c3794a861e982604051612573911515815260200190565b60405180910390a25050565b7f00000000000000000000000000000000000000000000000000000000000000006001600160a01b03166318160ddd6040518163ffffffff1660e01b8152600401602060405180830381865afa1580156125dd573d6000803e3d6000fd5b505050506040513d601f19601f8201168201806040525081019061260191906132cd565b811161265d5760405162461bcd60e51b815260206004820152602560248201527f5570646174656420636170206973206c657373207468616e20746f74616c20736044820152647570706c7960d81b60648201526084016107c0565b600781905560405181815233907ff4c16f9d6734c0970e0a2583a589c46fd075f8670c738840e4222f3b9cf1b16190602001612472565b600080546001600160a01b038381166201000081810262010000600160b01b0319851617855560405193049190911692909183917f8be0079c531659141344cd1fd0a4f28419497f9722a3daafe3b4186f6b6457e091a35050565b6040516001600160a01b03808516602483015283166044820152606481018290526127279085906323b872dd60e01b90608401611fdf565b50505050565b6000610726825490565b6040516370a0823160e01b81523060048201526000907f00000000000000000000000000000000000000000000000000000000000000006001600160a01b0316906370a0823190602401602060405180830381865afa15801561279e573d6000803e3d6000fd5b505050506040513d601f19601f820116820180604052508101906127c291906132cd565b604051631c57762b60e31b81527f00000000000000000000000000000000000000000000000000000000000000006004820152600060248201529091507f00000000000000000000000000000000000000000000000000000000000000006001600160a01b03169063e2bbb15890604401600060405180830381600087803b15801561284d57600080fd5b505af1158015612861573d6000803e3d6000fd5b50506040516370a0823160e01b8152306004820152600092508391506001600160a01b037f000000000000000000000000000000000000000000000000000000000000000016906370a0823190602401602060405180830381865afa1580156128ce573d6000803e3d6000fd5b505050506040513d601f19601f820116820180604052508101906128f291906132cd565b6128fc919061321b565b905080600860008282546129109190613262565b9250508190555080600960008282546129299190613262565b9250508190555060007f00000000000000000000000000000000000000000000000000000000000000006001600160a01b03166318160ddd6040518163ffffffff1660e01b8152600401602060405180830381865afa158015612990573d6000803e3d6000fd5b505050506040513d601f19601f820116820180604052508101906129b491906132cd565b90506007548110158015612a49575060007f00000000000000000000000000000000000000000000000000000000000000006001600160a01b0316638aa285506040518163ffffffff1660e01b8152600401602060405180830381865afa158015612a23573d6000803e3d6000fd5b505050506040513d601f19601f82011682018060405250810190612a4791906132cd565b115b1561095357604051632fff30a360e11b8152600060048201527f00000000000000000000000000000000000000000000000000000000000000006001600160a01b031690635ffe614690602401600060405180830381600087803b158015612ab057600080fd5b505af1158015612ac4573d6000803e3d6000fd5b50505050600060075482612ad8919061321b565b90508060095410612b0c578060086000828254612af5919061321b565b90915550612b07905061dead8261231c565b612727565b60006008556009546127279061dead9061231c565b6000612b76826040518060400160405280602081526020017f5361666545524332303a206c6f772d6c6576656c2063616c6c206661696c6564815250856001600160a01b03166120169092919063ffffffff16565b8051909150156109535780806020019051810190612b9491906132e6565b6109535760405162461bcd60e51b815260206004820152602a60248201527f5361666545524332303a204552433230206f7065726174696f6e20646964206e6044820152691bdd081cdd58d8d9595960b21b60648201526084016107c0565b606082471015612c545760405162461bcd60e51b815260206004820152602660248201527f416464726573733a20696e73756666696369656e742062616c616e636520666f6044820152651c8818d85b1b60d21b60648201526084016107c0565b600080866001600160a01b03168587604051612c709190613327565b60006040518083038185875af1925050503d8060008114612cad576040519150601f19603f3d011682016040523d82523d6000602084013e612cb2565b606091505b5091509150611b6087838387612d17565b6000826000018281548110612cda57612cda6131b6565b9060005260206000200154905092915050565b6000611629836001600160a01b038416612d90565b6000611629836001600160a01b038416612ddf565b60608315612d86578251600003612d7f576001600160a01b0385163b612d7f5760405162461bcd60e51b815260206004820152601d60248201527f416464726573733a2063616c6c20746f206e6f6e2d636f6e747261637400000060448201526064016107c0565b5081612025565b6120258383612ed2565b6000818152600183016020526040812054612dd757508154600181810184556000848152602080822090930184905584548482528286019093526040902091909155610726565b506000610726565b60008181526001830160205260408120548015612ec8576000612e0360018361321b565b8554909150600090612e179060019061321b565b9050818114612e7c576000866000018281548110612e3757612e376131b6565b9060005260206000200154905080876000018481548110612e5a57612e5a6131b6565b6000918252602080832090910192909255918252600188019052604090208390555b8554869080612e8d57612e8d613343565b600190038181906000526020600020016000905590558560010160008681526020019081526020016000206000905560019350505050610726565b6000915050610726565b815115612ee25781518083602001fd5b8060405162461bcd60e51b81526004016107c09190613359565b8015158114610d6257600080fd5b600060208284031215612f1c57600080fd5b813561162981612efc565b600060208284031215612f3957600080fd5b5035919050565b6001600160a01b0381168114610d6257600080fd5b600080600060608486031215612f6a57600080fd5b83359250602084013591506040840135612f8381612f40565b809150509250925092565b803561ffff81168114612fa057600080fd5b919050565b600080600080600060a08688031215612fbd57600080fd5b85359450602086013593506040860135612fd681612efc565b9250612fe460608701612f8e565b91506080860135612ff481612f40565b809150509295509295909350565b60006020828403121561301457600080fd5b813561162981612f40565b6000806040838503121561303257600080fd5b50508035926020909101359150565b6000806040838503121561305457600080fd5b82359150602083013561306681612efc565b809150509250929050565b60008083601f84011261308357600080fd5b50813567ffffffffffffffff81111561309b57600080fd5b6020830191508360208260051b85010111156130b657600080fd5b9250929050565b600080600080604085870312156130d357600080fd5b843567ffffffffffffffff808211156130eb57600080fd5b6130f788838901613071565b9096509450602087013591508082111561311057600080fd5b5061311d87828801613071565b95989497509550505050565b6000806040838503121561313c57600080fd5b82359150602083013561306681612f40565b600080600080600060a0868803121561316657600080fd5b85359450602086013561317881612f40565b93506040860135612fd681612efc565b6000806040838503121561319b57600080fd5b82356131a681612f40565b9150602083013561306681612efc565b634e487b7160e01b600052603260045260246000fd5b634e487b7160e01b600052601160045260246000fd5b8082028115828204841417610726576107266131cc565b60008261321657634e487b7160e01b600052601260045260246000fd5b500490565b81810381811115610726576107266131cc565b9586526001600160a01b0394851660208701529290931660408501526060840152608083019190915260a082015260c00190565b80820180821115610726576107266131cc565b600060018201613287576132876131cc565b5060010190565b600080600080608085870312156132a457600080fd5b84516132af81612f40565b60208601516040870151606090970151919890975090945092505050565b6000602082840312156132df57600080fd5b5051919050565b6000602082840312156132f857600080fd5b815161162981612efc565b60005b8381101561331e578181015183820152602001613306565b50506000910152565b60008251613339818460208701613303565b9190910192915050565b634e487b7160e01b600052603160045260246000fd5b6020815260008251806020840152613378816040850160208701613303565b601f01601f1916919091016040019291505056fea264697066735822122097ac5c218e8b53631bd1be86c6117f6ae5d4c76d985f73400ce049a666d99faa64736f6c63430008110033",
  "linkReferences": {},
  "deployedLinkReferences": {}
}