{
  "contractName": "MasterApeAdminV2",
  "abi": [
    {
      "inputs": [
        {
          "internalType": "contract IMasterApeV2",
          "name": "_masterApeV2",
          "type": "address"
        },
        {
          "internalType": "address",
          "name": "_farmAdmin",
          "type": "address"
        }
      ],
      "stateMutability": "nonpayable",
      "type": "constructor"
    },
    {
      "anonymous": false,
      "inputs": [
        {
          "indexed": true,
          "internalType": "contract IERC20",
          "name": "lpToken",
          "type": "address"
        },
        {
          "indexed": false,
          "internalType": "uint256",
          "name": "allocation",
          "type": "uint256"
        },
        {
          "indexed": false,
          "internalType": "uint16",
          "name": "depositFeeBP",
          "type": "uint16"
        },
        {
          "indexed": true,
          "internalType": "contract IRewarderV2",
          "name": "rewarder",
          "type": "address"
        }
      ],
      "name": "AddFarm",
      "type": "event"
    },
    {
      "anonymous": false,
      "inputs": [
        {
          "indexed": true,
          "internalType": "uint256",
          "name": "pid",
          "type": "uint256"
        },
        {
          "indexed": false,
          "internalType": "uint256",
          "name": "allocationPercentage",
          "type": "uint256"
        }
      ],
      "name": "AddFixedPercentFarm",
      "type": "event"
    },
    {
      "anonymous": false,
      "inputs": [
        {
          "indexed": true,
          "internalType": "address",
          "name": "previousOwner",
          "type": "address"
        },
        {
          "indexed": true,
          "internalType": "address",
          "name": "newOwner",
          "type": "address"
        }
      ],
      "name": "OwnershipTransferred",
      "type": "event"
    },
    {
      "anonymous": false,
      "inputs": [
        {
          "indexed": true,
          "internalType": "uint256",
          "name": "pid",
          "type": "uint256"
        },
        {
          "indexed": false,
          "internalType": "uint256",
          "name": "allocation",
          "type": "uint256"
        },
        {
          "indexed": false,
          "internalType": "uint16",
          "name": "depositFeeBP",
          "type": "uint16"
        },
        {
          "indexed": true,
          "internalType": "contract IRewarderV2",
          "name": "rewarder",
          "type": "address"
        }
      ],
      "name": "SetFarm",
      "type": "event"
    },
    {
      "anonymous": false,
      "inputs": [
        {
          "indexed": true,
          "internalType": "uint256",
          "name": "pid",
          "type": "uint256"
        },
        {
          "indexed": false,
          "internalType": "uint256",
          "name": "previousAllocationPercentage",
          "type": "uint256"
        },
        {
          "indexed": false,
          "internalType": "uint256",
          "name": "allocationPercentage",
          "type": "uint256"
        }
      ],
      "name": "SetFixedPercentFarm",
      "type": "event"
    },
    {
      "anonymous": false,
      "inputs": [
        {
          "indexed": false,
          "internalType": "address",
          "name": "pendingMasterApeOV2wner",
          "type": "address"
        }
      ],
      "name": "SetPendingMasterApeV2Owner",
      "type": "event"
    },
    {
      "anonymous": false,
      "inputs": [
        {
          "indexed": true,
          "internalType": "address",
          "name": "to",
          "type": "address"
        },
        {
          "indexed": true,
          "internalType": "contract IERC20",
          "name": "token",
          "type": "address"
        },
        {
          "indexed": false,
          "internalType": "uint256",
          "name": "amount",
          "type": "uint256"
        }
      ],
      "name": "SweepWithdraw",
      "type": "event"
    },
    {
      "anonymous": false,
      "inputs": [
        {
          "indexed": true,
          "internalType": "uint256",
          "name": "pid",
          "type": "uint256"
        },
        {
          "indexed": false,
          "internalType": "uint256",
          "name": "allocation",
          "type": "uint256"
        }
      ],
      "name": "SyncFixedPercentFarm",
      "type": "event"
    },
    {
      "anonymous": false,
      "inputs": [
        {
          "indexed": true,
          "internalType": "address",
          "name": "previousFarmAdmin",
          "type": "address"
        },
        {
          "indexed": true,
          "internalType": "address",
          "name": "newFarmAdmin",
          "type": "address"
        }
      ],
      "name": "TransferredFarmAdmin",
      "type": "event"
    },
    {
      "anonymous": false,
      "inputs": [
        {
          "indexed": true,
          "internalType": "address",
          "name": "whitelistAddress",
          "type": "address"
        },
        {
          "indexed": false,
          "internalType": "bool",
          "name": "whitelistEnabled",
          "type": "bool"
        }
      ],
      "name": "UpdateContractWhitelist",
      "type": "event"
    },
    {
      "anonymous": false,
      "inputs": [
        {
          "indexed": false,
          "internalType": "bool",
          "name": "whitelistEnabled",
          "type": "bool"
        }
      ],
      "name": "UpdateWhitelistStatus",
      "type": "event"
    },
    {
      "inputs": [],
      "name": "MAX_FIXED_FARM_PERCENTAGE",
      "outputs": [
        {
          "internalType": "uint256",
          "name": "",
          "type": "uint256"
        }
      ],
      "stateMutability": "view",
      "type": "function"
    },
    {
      "inputs": [],
      "name": "MAX_FIXED_FARM_PERCENTAGE_BUFFER",
      "outputs": [
        {
          "internalType": "uint256",
          "name": "",
          "type": "uint256"
        }
      ],
      "stateMutability": "view",
      "type": "function"
    },
    {
      "inputs": [],
      "name": "PERCENTAGE_PRECISION",
      "outputs": [
        {
          "internalType": "uint256",
          "name": "",
          "type": "uint256"
        }
      ],
      "stateMutability": "view",
      "type": "function"
    },
    {
      "inputs": [],
      "name": "farmAdmin",
      "outputs": [
        {
          "internalType": "address",
          "name": "",
          "type": "address"
        }
      ],
      "stateMutability": "view",
      "type": "function"
    },
    {
      "inputs": [
        {
          "internalType": "uint256",
          "name": "",
          "type": "uint256"
        }
      ],
      "name": "fixedPercentFarmPids",
      "outputs": [
        {
          "internalType": "uint256",
          "name": "",
          "type": "uint256"
        }
      ],
      "stateMutability": "view",
      "type": "function"
    },
    {
      "inputs": [
        {
          "internalType": "uint256",
          "name": "",
          "type": "uint256"
        }
      ],
      "name": "getFixedPercentFarmFromPid",
      "outputs": [
        {
          "internalType": "uint256",
          "name": "pid",
          "type": "uint256"
        },
        {
          "internalType": "uint256",
          "name": "allocationPercent",
          "type": "uint256"
        },
        {
          "internalType": "bool",
          "name": "isActive",
          "type": "bool"
        }
      ],
      "stateMutability": "view",
      "type": "function"
    },
    {
      "inputs": [
        {
          "internalType": "uint256",
          "name": "_index",
          "type": "uint256"
        }
      ],
      "name": "getWhitelistAtIndex",
      "outputs": [
        {
          "internalType": "address",
          "name": "",
          "type": "address"
        }
      ],
      "stateMutability": "view",
      "type": "function"
    },
    {
      "inputs": [],
      "name": "getWhitelistLength",
      "outputs": [
        {
          "internalType": "uint256",
          "name": "",
          "type": "uint256"
        }
      ],
      "stateMutability": "view",
      "type": "function"
    },
    {
      "inputs": [
        {
          "internalType": "address",
          "name": "_address",
          "type": "address"
        }
      ],
      "name": "isWhitelisted",
      "outputs": [
        {
          "internalType": "bool",
          "name": "",
          "type": "bool"
        }
      ],
      "stateMutability": "view",
      "type": "function"
    },
    {
      "inputs": [],
      "name": "masterApeV2",
      "outputs": [
        {
          "internalType": "contract IMasterApeV2",
          "name": "",
          "type": "address"
        }
      ],
      "stateMutability": "view",
      "type": "function"
    },
    {
      "inputs": [],
      "name": "owner",
      "outputs": [
        {
          "internalType": "address",
          "name": "",
          "type": "address"
        }
      ],
      "stateMutability": "view",
      "type": "function"
    },
    {
      "inputs": [],
      "name": "pendingMasterApeV2Owner",
      "outputs": [
        {
          "internalType": "address",
          "name": "",
          "type": "address"
        }
      ],
      "stateMutability": "view",
      "type": "function"
    },
    {
      "inputs": [],
      "name": "renounceOwnership",
      "outputs": [],
      "stateMutability": "nonpayable",
      "type": "function"
    },
    {
      "inputs": [
        {
          "internalType": "address[]",
          "name": "_addresses",
          "type": "address[]"
        },
        {
          "internalType": "bool[]",
          "name": "_enabled",
          "type": "bool[]"
        }
      ],
      "name": "setBatchContractWhitelist",
      "outputs": [],
      "stateMutability": "nonpayable",
      "type": "function"
    },
    {
      "inputs": [
        {
          "internalType": "address",
          "name": "_address",
          "type": "address"
        },
        {
          "internalType": "bool",
          "name": "_enabled",
          "type": "bool"
        }
      ],
      "name": "setContractWhitelist",
      "outputs": [],
      "stateMutability": "nonpayable",
      "type": "function"
    },
    {
      "inputs": [],
      "name": "totalFixedPercentFarmPercentage",
      "outputs": [
        {
          "internalType": "uint256",
          "name": "",
          "type": "uint256"
        }
      ],
      "stateMutability": "view",
      "type": "function"
    },
    {
      "inputs": [
        {
          "internalType": "address",
          "name": "newOwner",
          "type": "address"
        }
      ],
      "name": "transferOwnership",
      "outputs": [],
      "stateMutability": "nonpayable",
      "type": "function"
    },
    {
      "inputs": [],
      "name": "whitelistEnabled",
      "outputs": [
        {
          "internalType": "bool",
          "name": "",
          "type": "bool"
        }
      ],
      "stateMutability": "view",
      "type": "function"
    },
    {
      "inputs": [
        {
          "internalType": "address",
          "name": "_pendingMasterApeV2Owner",
          "type": "address"
        }
      ],
      "name": "setPendingMasterApeV2Owner",
      "outputs": [],
      "stateMutability": "nonpayable",
      "type": "function"
    },
    {
      "inputs": [],
      "name": "acceptMasterApeV2Ownership",
      "outputs": [],
      "stateMutability": "nonpayable",
      "type": "function"
    },
    {
      "inputs": [
        {
          "internalType": "address",
          "name": "_pendingMasterApeV1Owner",
          "type": "address"
        }
      ],
      "name": "setPendingMasterApeV1Owner",
      "outputs": [],
      "stateMutability": "nonpayable",
      "type": "function"
    },
    {
      "inputs": [
        {
          "internalType": "uint256[]",
          "name": "pids",
          "type": "uint256[]"
        }
      ],
      "name": "batchUpdateMasterApePools",
      "outputs": [],
      "stateMutability": "nonpayable",
      "type": "function"
    },
    {
      "inputs": [
        {
          "internalType": "uint256",
          "name": "_bananaPerSecond",
          "type": "uint256"
        },
        {
          "internalType": "bool",
          "name": "_withUpdate",
          "type": "bool"
        }
      ],
      "name": "updateEmissionRate",
      "outputs": [],
      "stateMutability": "nonpayable",
      "type": "function"
    },
    {
      "inputs": [
        {
          "internalType": "uint256",
          "name": "_hardCap",
          "type": "uint256"
        }
      ],
      "name": "updateHardCap",
      "outputs": [],
      "stateMutability": "nonpayable",
      "type": "function"
    },
    {
      "inputs": [
        {
          "internalType": "bool",
          "name": "_enabled",
          "type": "bool"
        }
      ],
      "name": "setWhitelistEnabled",
      "outputs": [],
      "stateMutability": "nonpayable",
      "type": "function"
    },
    {
      "inputs": [
        {
          "internalType": "contract IERC20[]",
          "name": "_tokens",
          "type": "address[]"
        },
        {
          "internalType": "address",
          "name": "_to",
          "type": "address"
        }
      ],
      "name": "sweepTokens",
      "outputs": [],
      "stateMutability": "nonpayable",
      "type": "function"
    },
    {
      "inputs": [
        {
          "internalType": "address",
          "name": "_newFarmAdmin",
          "type": "address"
        }
      ],
      "name": "transferFarmAdminOwnership",
      "outputs": [],
      "stateMutability": "nonpayable",
      "type": "function"
    },
    {
      "inputs": [],
      "name": "syncFixedPercentFarms",
      "outputs": [],
      "stateMutability": "nonpayable",
      "type": "function"
    },
    {
      "inputs": [
        {
          "internalType": "uint256[]",
          "name": "_allocPoints",
          "type": "uint256[]"
        },
        {
          "internalType": "contract IERC20[]",
          "name": "_stakeTokens",
          "type": "address[]"
        },
        {
          "internalType": "uint16[]",
          "name": "_depositFeesBP",
          "type": "uint16[]"
        },
        {
          "internalType": "contract IRewarderV2[]",
          "name": "_rewarders",
          "type": "address[]"
        },
        {
          "internalType": "bool",
          "name": "_withMassPoolUpdate",
          "type": "bool"
        },
        {
          "internalType": "bool",
          "name": "_syncFixedPercentageFarms",
          "type": "bool"
        }
      ],
      "name": "addMasterApeFarms",
      "outputs": [],
      "stateMutability": "nonpayable",
      "type": "function"
    },
    {
      "inputs": [
        {
          "internalType": "uint256[]",
          "name": "_pids",
          "type": "uint256[]"
        },
        {
          "internalType": "uint256[]",
          "name": "_allocPoints",
          "type": "uint256[]"
        },
        {
          "internalType": "uint16[]",
          "name": "_depositFeesBP",
          "type": "uint16[]"
        },
        {
          "internalType": "contract IRewarderV2[]",
          "name": "_rewarders",
          "type": "address[]"
        },
        {
          "internalType": "bool",
          "name": "_withMassPoolUpdate",
          "type": "bool"
        },
        {
          "internalType": "bool",
          "name": "_syncFixedPercentageFarms",
          "type": "bool"
        }
      ],
      "name": "setMasterApeFarms",
      "outputs": [],
      "stateMutability": "nonpayable",
      "type": "function"
    },
    {
      "inputs": [
        {
          "internalType": "uint256",
          "name": "_pid",
          "type": "uint256"
        },
        {
          "internalType": "uint256",
          "name": "_allocPercentage",
          "type": "uint256"
        },
        {
          "internalType": "bool",
          "name": "_withMassPoolUpdate",
          "type": "bool"
        },
        {
          "internalType": "bool",
          "name": "_syncFixedPercentageFarms",
          "type": "bool"
        }
      ],
      "name": "addFixedPercentFarmAllocation",
      "outputs": [],
      "stateMutability": "nonpayable",
      "type": "function"
    },
    {
      "inputs": [
        {
          "internalType": "uint256",
          "name": "_pid",
          "type": "uint256"
        },
        {
          "internalType": "uint256",
          "name": "_allocPercentage",
          "type": "uint256"
        },
        {
          "internalType": "bool",
          "name": "_withMassPoolUpdate",
          "type": "bool"
        },
        {
          "internalType": "bool",
          "name": "_syncFixedPercentageFarms",
          "type": "bool"
        }
      ],
      "name": "setFixedPercentFarmAllocation",
      "outputs": [],
      "stateMutability": "nonpayable",
      "type": "function"
    },
    {
      "inputs": [
        {
          "internalType": "uint256",
          "name": "pid",
          "type": "uint256"
        }
      ],
      "name": "getDetailedPoolInfo",
      "outputs": [
        {
          "internalType": "address",
          "name": "lpToken",
          "type": "address"
        },
        {
          "internalType": "uint256",
          "name": "poolAllocationPoint",
          "type": "uint256"
        },
        {
          "internalType": "uint256",
          "name": "totalAllocationPoints",
          "type": "uint256"
        },
        {
          "internalType": "uint256",
          "name": "poolAllocationPercentMantissa",
          "type": "uint256"
        },
        {
          "internalType": "uint256",
          "name": "poolBananaPerSecond",
          "type": "uint256"
        },
        {
          "internalType": "uint256",
          "name": "poolBananaPerDay",
          "type": "uint256"
        },
        {
          "internalType": "uint256",
          "name": "poolBananaPerMonth",
          "type": "uint256"
        },
        {
          "internalType": "uint16",
          "name": "depositFeeBP",
          "type": "uint16"
        },
        {
          "internalType": "contract IRewarderV2",
          "name": "rewarder",
          "type": "address"
        }
      ],
      "stateMutability": "view",
      "type": "function"
    },
    {
      "inputs": [],
      "name": "getNumberOfFixedPercentFarms",
      "outputs": [
        {
          "internalType": "uint256",
          "name": "",
          "type": "uint256"
        }
      ],
      "stateMutability": "view",
      "type": "function"
    }
  ],
  "bytecode": "0x60a060405260006007553480156200001657600080fd5b5060405162002acc38038062002acc8339810160408190526200003991620000dd565b620000443362000074565b6001600160a01b03918216608052600380549190921661010002610100600160a81b03199091161790556200011c565b600080546001600160a01b038381166001600160a01b0319831681178455604051919092169283917f8be0079c531659141344cd1fd0a4f28419497f9722a3daafe3b4186f6b6457e09190a35050565b6001600160a01b0381168114620000da57600080fd5b50565b60008060408385031215620000f157600080fd5b8251620000fe81620000c4565b60208401519092506200011181620000c4565b809150509250929050565b6080516128f3620001d9600039600081816104b30152818161052d015281816105df0152818161065a0152818161073b015281816107da01528181610a0e01528181610a9b01528181610caa0152818161102c015281816110a2015281816111b3015281816112cf015281816113ba01528181611453015281816114e10152818161189e015281816119bb01528181611a3a01528181611db201528181611e4401528181612007015281816120f801526121e301526128f36000f3fe608060405234801561001057600080fd5b50600436106102065760003560e01c8063703df7931161011a57806399b8562c116100ad578063e32e22e31161007c578063e32e22e31461049b578063e46a2f39146104ae578063f2374983146104d5578063f2fde38b146104e8578063fd772ae6146104fb57600080fd5b806399b8562c14610410578063a13202e914610477578063d01ed0801461047f578063e256888f1461049257600080fd5b806379e2952b116100e957806379e2952b146103d157806380bf6dae146103e45780638da5cb5b146103f7578063967ef78d1461040857600080fd5b8063703df793146103905780637071f0c4146103a3578063715018a6146103b657806373425197146103be57600080fd5b806345ff0d8f1161019d57806350d58f7e1161016c57806350d58f7e1461034c57806351fb012d1461035f578063591185631461036c5780635e81f9c3146103745780636d42086a1461038757600080fd5b806345ff0d8f1461030b5780634bd78e411461031e5780634e4b014714610326578063504ef8111461033957600080fd5b80630fcf692f116101d95780630fcf692f146102b7578063387297fc146102cd5780633af32abf146102e05780633f5311821461030357600080fd5b8063023d94d41461020b578063052d9e7e1461025f578063067a0075146102745780630b0329b91461029f575b600080fd5b61023d61021936600461234d565b60066020526000908152604090208054600182015460029092015490919060ff1683565b6040805193845260208401929092521515908201526060015b60405180910390f35b61027261026d366004612384565b61050e565b005b61028761028236600461234d565b610595565b6040516001600160a01b039091168152602001610256565b6003546102879061010090046001600160a01b031681565b6102bf6105a8565b604051908152602001610256565b6102726102db3660046123b6565b6105b8565b6102f36102ee3660046123b6565b61060e565b6040519015158152602001610256565b6102bf61061b565b6102726103193660046123d3565b610634565b6102726106c3565b600454610287906001600160a01b031681565b610272610347366004612403565b6107a9565b61027261035a366004612499565b610a8e565b6003546102f39060ff1681565b610272610b49565b6102726103823660046124db565b610bd1565b6102bf60075481565b61027261039e36600461234d565b610c8c565b6102726103b1366004612547565b610ce1565b610272610e6b565b6102bf6103cc36600461234d565b610e7d565b6102726103df3660046123b6565b610e9e565b6102726103f236600461259e565b610efa565b6000546001600160a01b0316610287565b6005546102bf565b61042361041e36600461234d565b6113a9565b604080516001600160a01b039a8b16815260208101999099528801969096526060870194909452608086019290925260a085015260c084015261ffff1660e083015290911661010082015261012001610256565b6102bf6115cb565b61027261048d3660046123b6565b6115dc565b6102bf61271081565b6102726104a9366004612403565b6116d1565b6102877f000000000000000000000000000000000000000000000000000000000000000081565b6102726104e336600461259e565b611927565b6102726104f63660046123b6565b611c78565b610272610509366004612683565b611cf1565b610516611d07565b604051630296cf3f60e11b815281151560048201527f00000000000000000000000000000000000000000000000000000000000000006001600160a01b03169063052d9e7e906024015b600060405180830381600087803b15801561057a57600080fd5b505af115801561058e573d6000803e3d6000fd5b5050505050565b60006105a2600183611d61565b92915050565b6105b5600a6127106126c7565b81565b6105c0611d07565b604051630e1ca5ff60e21b81526001600160a01b0382811660048301527f0000000000000000000000000000000000000000000000000000000000000000169063387297fc90602401610560565b60006105a2600183611d74565b610628600a6127106126c7565b6105b5906127106126e9565b61063c611d07565b6040516345ff0d8f60e01b81526004810183905281151560248201527f00000000000000000000000000000000000000000000000000000000000000006001600160a01b0316906345ff0d8f906044015b600060405180830381600087803b1580156106a757600080fd5b505af11580156106bb573d6000803e3d6000fd5b505050505050565b6004546001600160a01b031633146107165760405162461bcd60e51b81526020600482015260116024820152703737ba103832b73234b7339037bbb732b960791b60448201526064015b60405180910390fd5b6004805460405163f2fde38b60e01b81526001600160a01b03918216928101929092527f0000000000000000000000000000000000000000000000000000000000000000169063f2fde38b90602401600060405180830381600087803b15801561077f57600080fd5b505af1158015610793573d6000803e3d6000fd5b5050600480546001600160a01b03191690555050565b60035461010090046001600160a01b031633146107d85760405162461bcd60e51b815260040161070d906126fc565b7f00000000000000000000000000000000000000000000000000000000000000006001600160a01b031663081e3eda6040518163ffffffff1660e01b8152600401602060405180830381865afa158015610836573d6000803e3d6000fd5b505050506040513d601f19601f8201168201806040525081019061085a9190612733565b84106108785760405162461bcd60e51b815260040161070d9061274c565b60008481526006602052604090206002015460ff16156108da5760405162461bcd60e51b815260206004820181905260248201527f66697865642070657263656e74206661726d20616c7265616479206164646564604482015260640161070d565b6000836007546108ea919061278f565b90506108f9600a6127106126c7565b610905906127106126e9565b8111156109545760405162461bcd60e51b815260206004820152601860248201527f616c6c6f636174696f6e206f7574206f6620626f756e64730000000000000000604482015260640161070d565b6007819055604080516060810182528681526020808201878152600183850181815260008b81526006855286812095518655925185830155516002909401805460ff19169415159490941790935560058054938401815590527f036b6384b5eca791c62761152d0c79bb0604c104a5fb6f4eb0703f3154bb3db0909101879055905185815286917fe189b71b104a634f2a39080757eda5ebcc40b9cbd276eb27dc0e17edbe2dc793910160405180910390a28215610a80577f00000000000000000000000000000000000000000000000000000000000000006001600160a01b031663630b5ba16040518163ffffffff1660e01b8152600401600060405180830381600087803b158015610a6757600080fd5b505af1158015610a7b573d6000803e3d6000fd5b505050505b811561058e5761058e611d96565b60005b81811015610b44577f00000000000000000000000000000000000000000000000000000000000000006001600160a01b03166351eb05a6848484818110610ada57610ada6127a2565b905060200201356040518263ffffffff1660e01b8152600401610aff91815260200190565b600060405180830381600087803b158015610b1957600080fd5b505af1158015610b2d573d6000803e3d6000fd5b505050508080610b3c906127b8565b915050610a91565b505050565b60035461010090046001600160a01b03163314610b785760405162461bcd60e51b815260040161070d906126fc565b6000610b8360055490565b11610bc75760405162461bcd60e51b81526020600482015260146024820152731b9bc8199a5e19590819985c9b5cc8185919195960621b604482015260640161070d565b610bcf611d96565b565b610bd9611d07565b828114610c195760405162461bcd60e51b815260206004820152600e60248201526d0c2e4e4c2f240dad2e6dac2e8c6d60931b604482015260640161070d565b60005b8381101561058e57610c7a858583818110610c3957610c396127a2565b9050602002016020810190610c4e91906123b6565b848484818110610c6057610c606127a2565b9050602002016020810190610c759190612384565b6121bc565b80610c84816127b8565b915050610c1c565b610c94611d07565b60405163703df79360e01b8152600481018290527f00000000000000000000000000000000000000000000000000000000000000006001600160a01b03169063703df79390602401610560565b610ce9611d07565b60005b82811015610e65576000848483818110610d0857610d086127a2565b9050602002016020810190610d1d91906123b6565b6040516370a0823160e01b81523060048201529091506000906001600160a01b038316906370a0823190602401602060405180830381865afa158015610d67573d6000803e3d6000fd5b505050506040513d601f19601f82011682018060405250810190610d8b9190612733565b60405163a9059cbb60e01b81526001600160a01b038681166004830152602482018390529192509083169063a9059cbb906044016020604051808303816000875af1158015610dde573d6000803e3d6000fd5b505050506040513d601f19601f82011682018060405250810190610e0291906127d1565b50816001600160a01b0316846001600160a01b03167f58731823bcac65ecb95d39668d6b6a69a9c9b01156841220fc40d9eede89f81e83604051610e4891815260200190565b60405180910390a350508080610e5d906127b8565b915050610cec565b50505050565b610e73611d07565b610bcf6000612212565b60058181548110610e8d57600080fd5b600091825260209091200154905081565b610ea6611d07565b600480546001600160a01b0319166001600160a01b0383169081179091556040519081527f99ae95d8749db01b47a0a054504744dd2c887cc5acb17695480c48f3f0a457459060200160405180910390a150565b60035461010090046001600160a01b03163314610f295760405162461bcd60e51b815260040161070d906126fc565b888714610f785760405162461bcd60e51b815260206004820152601b60248201527f616c6c6f63506f696e7473206c656e677468206d69736d617463680000000000604482015260640161070d565b84898114610fce578015610fce5760405162461bcd60e51b815260206004820152601d60248201527f6465706f736974466565734250206c656e677468206d69736d61746368000000604482015260640161070d565b838a81146110245780156110245760405162461bcd60e51b815260206004820152601860248201527f7265776172646572206c656e677468206d69736d617463680000000000000000604482015260640161070d565b831561109e577f00000000000000000000000000000000000000000000000000000000000000006001600160a01b031663630b5ba16040518163ffffffff1660e01b8152600401600060405180830381600087803b15801561108557600080fd5b505af1158015611099573d6000803e3d6000fd5b505050505b60007f00000000000000000000000000000000000000000000000000000000000000006001600160a01b031663081e3eda6040518163ffffffff1660e01b8152600401602060405180830381865afa1580156110fe573d6000803e3d6000fd5b505050506040513d601f19601f820116820180604052508101906111229190612733565b905060005b8c81101561138b5760008e8e83818110611143576111436127a2565b90506020020135905082811061116b5760405162461bcd60e51b815260040161070d9061274c565b60008d8d8481811061117f5761117f6127a2565b9050602002013590506000808760001480611198575086155b1561123157604051632f380b3560e01b8152600481018590527f00000000000000000000000000000000000000000000000000000000000000006001600160a01b031690632f380b359060240160e060405180830381865afa158015611202573d6000803e3d6000fd5b505050506040513d601f19601f8201168201806040525081019061122691906127fe565b975092955050505050505b8715611261578d8d86818110611249576112496127a2565b905060200201602081019061125e9190612873565b91505b8615611291578b8b86818110611279576112796127a2565b905060200201602081019061128e91906123b6565b90505b6040516301b2a43d60e51b815260048101859052602481018490526000604482015261ffff831660648201526001600160a01b0382811660848301527f0000000000000000000000000000000000000000000000000000000000000000169063365487a09060a401600060405180830381600087803b15801561131357600080fd5b505af1158015611327573d6000803e3d6000fd5b50506040805186815261ffff861660208201526001600160a01b03851693508792507fd6bdba3c6a424d89b06807208373b169671d5d4847d469c4fa905dbcd0ae78f7910160405180910390a3505050508080611383906127b8565b915050611127565b50831561139a5761139a611d96565b50505050505050505050505050565b6000806000806000806000806000807f00000000000000000000000000000000000000000000000000000000000000006001600160a01b031663889b83076040518163ffffffff1660e01b8152600401602060405180830381865afa158015611416573d6000803e3d6000fd5b505050506040513d601f19601f8201168201806040525081019061143a9190612733565b604051632f380b3560e01b8152600481018d90529091507f00000000000000000000000000000000000000000000000000000000000000006001600160a01b031690632f380b359060240160e060405180830381865afa1580156114a2573d6000803e3d6000fd5b505050506040513d601f19601f820116820180604052508101906114c691906127fe565b909192509091509050809650819550829c50839d50505050507f00000000000000000000000000000000000000000000000000000000000000006001600160a01b03166317caf6f16040518163ffffffff1660e01b8152600401602060405180830381865afa15801561153d573d6000803e3d6000fd5b505050506040513d601f19601f820116820180604052508101906115619190612733565b9750876115768a670de0b6b3a7640000612890565b61158091906126c7565b9650670de0b6b3a76400006115958883612890565b61159f91906126c7565b95506115ae8662015180612890565b94506115bb85601e612890565b9350509193959799909294969850565b60006115d76001612262565b905090565b60035461010090046001600160a01b0316331461160b5760405162461bcd60e51b815260040161070d906126fc565b6001600160a01b0381166116725760405162461bcd60e51b815260206004820152602860248201527f63616e6e6f74207472616e73666572206661726d2061646d696e20746f206164604482015267647265737328302960c01b606482015260840161070d565b600380546001600160a01b03838116610100908102610100600160a81b0319841617938490556040519281900482169304169082907fe26b86b59af1ab12a8e5cd4068e9f64c19ef575cf3bf30bf37b92fef2a20411390600090a35050565b60035461010090046001600160a01b031633146117005760405162461bcd60e51b815260040161070d906126fc565b6000848152600660205260409020600281015460ff166117595760405162461bcd60e51b81526020600482015260146024820152731b9bdd0818481d985b1a590819985c9b481c1a5960621b604482015260640161070d565b600081600101546007548661176e919061278f565b61177891906126e9565b9050611787600a6127106126c7565b611793906127106126e9565b8111156117e25760405162461bcd60e51b815260206004820152601c60248201527f6e657720616c6c6f636174696f6e206f7574206f6620626f756e647300000000604482015260640161070d565b600781905560018201805490869055600086900361185b5760028301805460ff1916905560005b600554811015611859578760058281548110611827576118276127a2565b9060005260206000200154036118475761184281600561226c565b611859565b80611851816127b8565b915050611809565b505b604080518281526020810188905288917fa23c6176b0c16652f1119ebe6593b1610c0c711b05167b035697e3269e9cf807910160405180910390a28415611910577f00000000000000000000000000000000000000000000000000000000000000006001600160a01b031663630b5ba16040518163ffffffff1660e01b8152600401600060405180830381600087803b1580156118f757600080fd5b505af115801561190b573d6000803e3d6000fd5b505050505b831561191e5761191e611d96565b50505050505050565b60035461010090046001600160a01b031633146119565760405162461bcd60e51b815260040161070d906126fc565b888714801561196457508885145b801561196f57508883145b6119b35760405162461bcd60e51b81526020600482015260156024820152740c2e4e4c2f240d8cadccee8d040dad2e6dac2e8c6d605b1b604482015260640161070d565b8115611a2d577f00000000000000000000000000000000000000000000000000000000000000006001600160a01b031663630b5ba16040518163ffffffff1660e01b8152600401600060405180830381600087803b158015611a1457600080fd5b505af1158015611a28573d6000803e3d6000fd5b505050505b60005b89811015611c5d577f00000000000000000000000000000000000000000000000000000000000000006001600160a01b031663de9f3a178c8c84818110611a7957611a796127a2565b905060200201358b8b85818110611a9257611a926127a2565b9050602002016020810190611aa791906123b6565b60008b8b87818110611abb57611abb6127a2565b9050602002016020810190611ad09190612873565b8a8a88818110611ae257611ae26127a2565b9050602002016020810190611af791906123b6565b6040516001600160e01b031960e088901b16815260048101959095526001600160a01b039384166024860152911515604485015261ffff16606484015216608482015260a401600060405180830381600087803b158015611b5757600080fd5b505af1158015611b6b573d6000803e3d6000fd5b50505050848482818110611b8157611b816127a2565b9050602002016020810190611b9691906123b6565b6001600160a01b0316898983818110611bb157611bb16127a2565b9050602002016020810190611bc691906123b6565b6001600160a01b03167f4d898462e63ce1ee713488095df223e454e65db487fc24844f3d51b9e039a1768d8d85818110611c0257611c026127a2565b905060200201358a8a86818110611c1b57611c1b6127a2565b9050602002016020810190611c309190612873565b6040805192835261ffff90911660208301520160405180910390a380611c55816127b8565b915050611a30565b508015611c6c57611c6c611d96565b50505050505050505050565b611c80611d07565b6001600160a01b038116611ce55760405162461bcd60e51b815260206004820152602660248201527f4f776e61626c653a206e6577206f776e657220697320746865207a65726f206160448201526564647265737360d01b606482015260840161070d565b611cee81612212565b50565b611cf9611d07565b611d0382826121bc565b5050565b6000546001600160a01b03163314610bcf5760405162461bcd60e51b815260206004820181905260248201527f4f776e61626c653a2063616c6c6572206973206e6f7420746865206f776e6572604482015260640161070d565b6000611d6d8383612323565b9392505050565b6001600160a01b03811660009081526001830160205260408120541515611d6d565b6000611da160055490565b905080600003611dae5750565b60007f00000000000000000000000000000000000000000000000000000000000000006001600160a01b03166317caf6f16040518163ffffffff1660e01b8152600401602060405180830381865afa158015611e0e573d6000803e3d6000fd5b505050506040513d601f19601f82011682018060405250810190611e329190612733565b90506000805b83811015611f185760007f00000000000000000000000000000000000000000000000000000000000000006001600160a01b0316632f380b3560058481548110611e8457611e846127a2565b90600052602060002001546040518263ffffffff1660e01b8152600401611ead91815260200190565b60e060405180830381865afa158015611eca573d6000803e3d6000fd5b505050506040513d601f19601f82011682018060405250810190611eee91906127fe565b50505050509150508083611f02919061278f565b9250508080611f10906127b8565b915050611e38565b506000611f2582846126e9565b90506000600754612710611f3991906126e9565b611f4561271080612890565b611f4f91906126c7565b90506000612710611f608385612890565b611f6a91906126c7565b90506000611f7884836126e9565b905060005b878110156121b25760006006600060058481548110611f9e57611f9e6127a2565b600091825260208083209091015483528281019390935260409182018120825160608101845281548152600182015494810185905260029091015460ff1615159281019290925260075491935091611ff69086612890565b61200091906126c7565b90506000807f00000000000000000000000000000000000000000000000000000000000000006001600160a01b0316632f380b3560058781548110612047576120476127a2565b90600052602060002001546040518263ffffffff1660e01b815260040161207091815260200190565b60e060405180830381865afa15801561208d573d6000803e3d6000fd5b505050506040513d601f19601f820116820180604052508101906120b191906127fe565b8a516040516301b2a43d60e51b81526004810191909152602481018b90526000604482015261ffff821660648201526001600160a01b0380871660848301529599509097507f0000000000000000000000000000000000000000000000000000000000000000909416955063365487a094505060a490920191506121329050565b600060405180830381600087803b15801561214c57600080fd5b505af1158015612160573d6000803e3d6000fd5b505085516040518681529092507faf6de0e99985e2141e73432bf0e3b3ca80f31561c97ef2fb113614913d5a76cd915060200160405180910390a25050505080806121aa906127b8565b915050611f7d565b5050505050505050565b604051637ebb957360e11b81526001600160a01b03838116600483015282151560248301527f0000000000000000000000000000000000000000000000000000000000000000169063fd772ae69060440161068d565b600080546001600160a01b038381166001600160a01b0319831681178455604051919092169283917f8be0079c531659141344cd1fd0a4f28419497f9722a3daafe3b4186f6b6457e09190a35050565b60006105a2825490565b805482106122ae5760405162461bcd60e51b815260206004820152600f60248201526e092dcc6dee4e4cac6e840d2dcc8caf608b1b604482015260640161070d565b805481906122be906001906126e9565b815481106122ce576122ce6127a2565b90600052602060002001548183815481106122eb576122eb6127a2565b906000526020600020018190555080805480612309576123096128a7565b600190038181906000526020600020016000905590555050565b600082600001828154811061233a5761233a6127a2565b9060005260206000200154905092915050565b60006020828403121561235f57600080fd5b5035919050565b8015158114611cee57600080fd5b803561237f81612366565b919050565b60006020828403121561239657600080fd5b8135611d6d81612366565b6001600160a01b0381168114611cee57600080fd5b6000602082840312156123c857600080fd5b8135611d6d816123a1565b600080604083850312156123e657600080fd5b8235915060208301356123f881612366565b809150509250929050565b6000806000806080858703121561241957600080fd5b8435935060208501359250604085013561243281612366565b9150606085013561244281612366565b939692955090935050565b60008083601f84011261245f57600080fd5b50813567ffffffffffffffff81111561247757600080fd5b6020830191508360208260051b850101111561249257600080fd5b9250929050565b600080602083850312156124ac57600080fd5b823567ffffffffffffffff8111156124c357600080fd5b6124cf8582860161244d565b90969095509350505050565b600080600080604085870312156124f157600080fd5b843567ffffffffffffffff8082111561250957600080fd5b6125158883890161244d565b9096509450602087013591508082111561252e57600080fd5b5061253b8782880161244d565b95989497509550505050565b60008060006040848603121561255c57600080fd5b833567ffffffffffffffff81111561257357600080fd5b61257f8682870161244d565b9094509250506020840135612593816123a1565b809150509250925092565b60008060008060008060008060008060c08b8d0312156125bd57600080fd5b8a3567ffffffffffffffff808211156125d557600080fd5b6125e18e838f0161244d565b909c509a5060208d01359150808211156125fa57600080fd5b6126068e838f0161244d565b909a50985060408d013591508082111561261f57600080fd5b61262b8e838f0161244d565b909850965060608d013591508082111561264457600080fd5b506126518d828e0161244d565b9095509350612664905060808c01612374565b915061267260a08c01612374565b90509295989b9194979a5092959850565b6000806040838503121561269657600080fd5b82356126a1816123a1565b915060208301356123f881612366565b634e487b7160e01b600052601160045260246000fd5b6000826126e457634e487b7160e01b600052601260045260246000fd5b500490565b818103818111156105a2576105a26126b1565b6020808252601c908201527f6d7573742062652063616c6c6564206279206661726d2061646d696e00000000604082015260600190565b60006020828403121561274557600080fd5b5051919050565b60208082526023908201527f706964206973206f7574206f6620626f756e6473206f66204d6173746572417060408201526232ab1960e91b606082015260800190565b808201808211156105a2576105a26126b1565b634e487b7160e01b600052603260045260246000fd5b6000600182016127ca576127ca6126b1565b5060010190565b6000602082840312156127e357600080fd5b8151611d6d81612366565b61ffff81168114611cee57600080fd5b600080600080600080600060e0888a03121561281957600080fd5b8751612824816123a1565b602089015160408a0151919850965061283c816123a1565b80955050606088015193506080880151925060a0880151915060c0880151612863816127ee565b8091505092959891949750929550565b60006020828403121561288557600080fd5b8135611d6d816127ee565b80820281158282048414176105a2576105a26126b1565b634e487b7160e01b600052603160045260246000fdfea264697066735822122017d36f6524c6fa993a1ac52e76db50ca9eef3592afcb3ccb18c496628bee2f0c64736f6c63430008110033",
  "source": "// SPDX-License-Identifier: GPL-3.0\npragma solidity 0.8.17;\n\n/*\n  ______                     ______                                 \n /      \\                   /      \\                                \n|  \\ ______   ______ |  \\__   __   __  ______   ______  \n| __| /      \\ /      \\| ___\\  \\ |  \\ |  \\|      \\ /      \\ \n|       \\  \\\\    \\|  |  |  \\\\  \\\n|    |      _\\\\  |  | /         | \n|   |  __/    \\__|  _/ _/    __/ \n|   |      \\     \\\\    \\      \\         \n \\   \\   \\ \\  \\\\  \\  \n         |                                              |       \n         |                                              |       \n          \\                                              \\         \n * App:             https://ApeSwap.finance\n * Medium:          https://ape-swap.medium.com\n * Twitter:         https://twitter.com/ape_swap\n * Telegram:        https://t.me/ape_swap\n * Announcements:   https://t.me/ape_swap_news\n * Reddit:          https://reddit.com/r/ApeSwap\n * Instagram:       https://instagram.com/ApeSwap.finance\n * GitHub:          https://github.com/ApeSwapFinance\n */\n\nimport \"@openzeppelin/contracts/access/Ownable.sol\";\nimport \"@openzeppelin/contracts/token/ERC20/IERC20.sol\";\nimport \"@ape.swap/contracts/contracts/v0.8/access/ContractWhitelist.sol\";\nimport \"./interfaces/IMasterApeV2.sol\";\nimport \"./interfaces/IOwnable.sol\";\nimport \"./interfaces/IRewarderV2.sol\";\n\n/// @title Admin MasterApeV2 proxy contract used to add features to MasterApeV2 admin functions\n/// @dev This contract does NOT handle changing the dev address of the MasterApeV2 because that can only be done\n///  by the dev address itself\n/// @notice Admin functions are separated into onlyOwner and onlyFarmAdmin to separate concerns\ncontract MasterApeAdminV2 is Ownable, ContractWhitelist {\n    struct FixedPercentFarmInfo {\n        uint256 pid;\n        uint256 allocationPercent;\n        bool isActive;\n    }\n\n    /// @notice Farm admin can manage master ape farms and fixed percent farms\n    address public farmAdmin;\n    /// @notice MasterApeV2 Address\n    IMasterApeV2 public immutable masterApeV2;\n    /// @notice Address which is eligible to accept ownership of the MasterApeV2. Set by the current owner.\n    address public pendingMasterApeV2Owner;\n    /// @notice Array of MasterApeV2 pids that are active fixed percent farms\n    uint256[] public fixedPercentFarmPids;\n    /// @notice mapping of MasterApeV2 pids to FixedPercentFarmInfo\n    mapping(uint256 => FixedPercentFarmInfo) public getFixedPercentFarmFromPid;\n    /// @notice The percentages are divided by 10000\n    uint256 public constant PERCENTAGE_PRECISION = 1e4;\n    /// @notice Approaching max fixed farm percentage makes the fixed farm allocations go to infinity\n    uint256 public constant MAX_FIXED_FARM_PERCENTAGE_BUFFER = PERCENTAGE_PRECISION / 10; // 10% Buffer\n    /// @notice Percentage available to additional fixed percent farms\n    uint256 public constant MAX_FIXED_FARM_PERCENTAGE = PERCENTAGE_PRECISION - MAX_FIXED_FARM_PERCENTAGE_BUFFER;\n    /// @notice Total allocation percentage for fixed percent farms\n    uint256 public totalFixedPercentFarmPercentage = 0;\n\n    event SetPendingMasterApeV2Owner(address pendingMasterApeOV2wner);\n    event AddFarm(IERC20 indexed lpToken, uint256 allocation, uint16 depositFeeBP, IRewarderV2 indexed rewarder);\n    event SetFarm(uint256 indexed pid, uint256 allocation, uint16 depositFeeBP, IRewarderV2 indexed rewarder);\n    event SyncFixedPercentFarm(uint256 indexed pid, uint256 allocation);\n    event AddFixedPercentFarm(uint256 indexed pid, uint256 allocationPercentage);\n    event SetFixedPercentFarm(uint256 indexed pid, uint256 previousAllocationPercentage, uint256 allocationPercentage);\n    event TransferredFarmAdmin(address indexed previousFarmAdmin, address indexed newFarmAdmin);\n    event SweepWithdraw(address indexed to, IERC20 indexed token, uint256 amount);\n\n    modifier onlyFarmAdmin() {\n        require(msg.sender == farmAdmin, \"must be called by farm admin\");\n        _;\n    }\n\n    constructor(IMasterApeV2 _masterApeV2, address _farmAdmin) {\n        masterApeV2 = _masterApeV2;\n        farmAdmin = _farmAdmin;\n    }\n\n    /** External Functions  */\n\n    /// @notice Set an address as the pending admin of the MasterApeV2. The address must accept to take ownership.\n    /// @param _pendingMasterApeV2Owner Address to set as the pending owner of the MasterApeV2.\n    function setPendingMasterApeV2Owner(address _pendingMasterApeV2Owner) external onlyOwner {\n        pendingMasterApeV2Owner = _pendingMasterApeV2Owner;\n        emit SetPendingMasterApeV2Owner(pendingMasterApeV2Owner);\n    }\n\n    /// @notice The pendingMasterApeOwner takes ownership through this call\n    /// @dev Transferring MasterApeV2 ownership away from this contract renders this contract useless.\n    function acceptMasterApeV2Ownership() external {\n        require(msg.sender == pendingMasterApeV2Owner, \"not pending owner\");\n        IOwnable(address(masterApeV2)).transferOwnership(pendingMasterApeV2Owner);\n        pendingMasterApeV2Owner = address(0);\n    }\n\n    /// @notice Set an address as the pending admin of the MasterApeV1. The address must accept to take ownership.\n    /// @param _pendingMasterApeV1Owner Address to set as the pending owner of the MasterApeV2.\n    function setPendingMasterApeV1Owner(address _pendingMasterApeV1Owner) external onlyOwner {\n        masterApeV2.setPendingMasterApeV1Owner(_pendingMasterApeV1Owner);\n    }\n\n    /// @notice Helper function to update MasterApeV2 pools in batches\n    /// @dev The MasterApeV2 massUpdatePools function uses a for loop which in the future\n    ///  could reach the block gas limit making it in-callable.\n    /// @param pids Array of MasterApeV2 pids to update\n    function batchUpdateMasterApePools(uint256[] calldata pids) external {\n        for (uint256 pidIndex = 0; pidIndex < pids.length; pidIndex++) {\n            masterApeV2.updatePool(pids[pidIndex]);\n        }\n    }\n\n    /// @notice An external function to update MAv2 Emission rate.\n    /// @param _bananaPerSecond how many BANANAs to mint per second\n    /// @param _withUpdate flag to call massUpdatePool before update\n    function updateEmissionRate(uint256 _bananaPerSecond, bool _withUpdate) external onlyOwner {\n        masterApeV2.updateEmissionRate(_bananaPerSecond, _withUpdate);\n    }\n\n    /// @notice An external function to update the BANANA hard cap.\n    /// @param _hardCap new BANANA hard cap\n    function updateHardCap(uint256 _hardCap) external onlyOwner {\n        masterApeV2.updateHardCap(_hardCap);\n    }\n\n    /// @notice enables smart contract whitelist on MAv2.\n    function setWhitelistEnabled(bool _enabled) external override onlyOwner {\n        masterApeV2.setWhitelistEnabled(_enabled);\n    }\n\n    /// @notice An external function to sweep accidental ERC20 transfers to this contract.\n    ///   Tokens are sent to owner\n    /// @param _tokens Array of ERC20 addresses to sweep\n    /// @param _to Address to send tokens to\n    function sweepTokens(IERC20[] calldata _tokens, address _to) external onlyOwner {\n        for (uint256 index = 0; index < _tokens.length; index++) {\n            IERC20 token = _tokens[index];\n            uint256 balance = token.balanceOf(address(this));\n            token.transfer(_to, balance);\n            emit SweepWithdraw(_to, token, balance);\n        }\n    }\n\n    /// @notice Transfer the farmAdmin to a new address\n    /// @param _newFarmAdmin Address of new farmAdmin\n    function transferFarmAdminOwnership(address _newFarmAdmin) external onlyFarmAdmin {\n        require(_newFarmAdmin != address(0), \"cannot transfer farm admin to address(0)\");\n        address previousFarmAdmin = farmAdmin;\n        farmAdmin = _newFarmAdmin;\n        emit TransferredFarmAdmin(previousFarmAdmin, farmAdmin);\n    }\n\n    /// @notice Update pool allocations based on fixed percentage farm percentages\n    function syncFixedPercentFarms() external onlyFarmAdmin {\n        require(getNumberOfFixedPercentFarms() > 0, \"no fixed farms added\");\n        _syncFixedPercentFarms();\n    }\n\n    /// @notice Add a batch of farms to the MasterApeV2 contract\n    /// @dev syncs fixed percentage farms after update\n    /// @param _allocPoints Array of allocation points to set each address\n    /// @param _stakeTokens Array of stake tokens\n    /// @param _depositFeesBP Array of deposit fee basis points\n    /// @param _rewarders Array of rewarders can be address(0) for no rewarder\n    /// @param _withMassPoolUpdate Mass update pools before update\n    /// @param _syncFixedPercentageFarms Sync fixed percentage farm allocations\n    function addMasterApeFarms(\n        uint256[] calldata _allocPoints,\n        IERC20[] calldata _stakeTokens,\n        uint16[] calldata _depositFeesBP,\n        IRewarderV2[] calldata _rewarders,\n        bool _withMassPoolUpdate,\n        bool _syncFixedPercentageFarms\n    ) external onlyFarmAdmin {\n        require(\n            _allocPoints.length == _stakeTokens.length &&\n                _allocPoints.length == _depositFeesBP.length &&\n                _allocPoints.length == _rewarders.length,\n            \"array length mismatch\"\n        );\n\n        if (_withMassPoolUpdate) {\n            masterApeV2.massUpdatePools();\n        }\n\n        for (uint256 index = 0; index < _allocPoints.length; index++) {\n            masterApeV2.add(_allocPoints[index], _stakeTokens[index], false, _depositFeesBP[index], _rewarders[index]);\n            emit AddFarm(_stakeTokens[index], _allocPoints[index], _depositFeesBP[index], _rewarders[index]);\n        }\n\n        if (_syncFixedPercentageFarms) {\n            _syncFixedPercentFarms();\n        }\n    }\n\n    /// @notice Set a batch of farms to the MasterApeV2 contract\n    /// @dev syncs fixed percentage farms after update\n    /// @param _pids Array of MasterApeV2 pool ids to update\n    /// @param _allocPoints Array of allocation points to set each pid\n    /// @param _depositFeesBP Array of deposit fees for each pid. Pass an empty array to leave the same value.\n    /// @param _rewarders Array of rewarders to set for each pid. Pass an empty array to leave the same value.\n    /// @param _withMassPoolUpdate Mass update pools before update\n    /// @param _syncFixedPercentageFarms Sync fixed percentage farm allocations\n    function setMasterApeFarms(\n        uint256[] calldata _pids,\n        uint256[] calldata _allocPoints,\n        uint16[] calldata _depositFeesBP,\n        IRewarderV2[] calldata _rewarders,\n        bool _withMassPoolUpdate,\n        bool _syncFixedPercentageFarms\n    ) external onlyFarmAdmin {\n        require(_pids.length == _allocPoints.length, \"allocPoints length mismatch\");\n        // Check Deposit fees\n        uint256 depositFeesLength = _depositFeesBP.length;\n        if(_pids.length != depositFeesLength) {\n            require(depositFeesLength == 0, \"depositFeesBP length mismatch\");\n        }\n        // Check rewarder addresses\n        uint256 rewarderLength = _rewarders.length;\n        if(_pids.length != rewarderLength) {\n            require(rewarderLength == 0, \"rewarder length mismatch\");\n        }\n\n        if (_withMassPoolUpdate) {\n            masterApeV2.massUpdatePools();\n        }\n\n        uint256 pidIndexes = masterApeV2.poolLength();\n        for (uint256 index = 0; index < _pids.length; index++) {\n            uint256 currentPid = _pids[index];\n            require(currentPid < pidIndexes, \"pid is out of bounds of MasterApeV2\");\n            uint256 currentAllocPoint = _allocPoints[index];\n            // If no fees or rewarders are passed then this pulls the current from MasterApeV2\n            uint16 currentDepositFeeBP;\n            IRewarderV2 currentRewarder;\n            if(depositFeesLength == 0 || rewarderLength == 0) {\n                // If no length was passed then fill in these values from MasterApeV2\n                ( , , currentRewarder, , , , currentDepositFeeBP) = masterApeV2.getPoolInfo(currentPid);\n            } \n            // Update the deposit fee if passed\n            if(depositFeesLength != 0) {\n                currentDepositFeeBP = _depositFeesBP[index];\n            }\n            // Update the rewarder if passed\n            if(rewarderLength != 0) {\n                currentRewarder = _rewarders[index];\n            }\n\n            // Set all pids with no mass update\n            masterApeV2.set(currentPid, currentAllocPoint, false, currentDepositFeeBP, currentRewarder);\n            emit SetFarm(currentPid, currentAllocPoint, currentDepositFeeBP, currentRewarder);\n        }\n\n        if (_syncFixedPercentageFarms) {\n            _syncFixedPercentFarms();\n        }\n    }\n\n    /// @notice Add a new fixed percentage farm allocation\n    /// @dev Must be a new MasterApeV2 pid and below the max fixed percentage\n    /// @param _pid MasterApeV2 pid to create a fixed percentage farm for\n    /// @param _allocPercentage Percentage based in PERCENTAGE_PRECISION\n    /// @param _withMassPoolUpdate Mass update pools before update\n    /// @param _syncFixedPercentageFarms Sync fixed percentage farm allocations\n    function addFixedPercentFarmAllocation(\n        uint256 _pid,\n        uint256 _allocPercentage,\n        bool _withMassPoolUpdate,\n        bool _syncFixedPercentageFarms\n    ) external onlyFarmAdmin {\n        require(_pid < masterApeV2.poolLength(), \"pid is out of bounds of MasterApeV2\");\n        require(!getFixedPercentFarmFromPid[_pid].isActive, \"fixed percent farm already added\");\n        uint256 newTotalFixedPercentage = totalFixedPercentFarmPercentage + _allocPercentage;\n        require(newTotalFixedPercentage <= MAX_FIXED_FARM_PERCENTAGE, \"allocation out of bounds\");\n\n        totalFixedPercentFarmPercentage = newTotalFixedPercentage;\n        getFixedPercentFarmFromPid[_pid] = FixedPercentFarmInfo(_pid, _allocPercentage, true);\n        fixedPercentFarmPids.push(_pid);\n        emit AddFixedPercentFarm(_pid, _allocPercentage);\n\n        if (_withMassPoolUpdate) {\n            masterApeV2.massUpdatePools();\n        }\n\n        if (_syncFixedPercentageFarms) {\n            _syncFixedPercentFarms();\n        }\n    }\n\n    /// @notice Update/disable a new fixed percentage farm allocation\n    /// @dev If the farm allocation is 0, then the fixed farm will be disabled, but the allocation will be unchanged.\n    /// @param _pid MasterApeV2 pid linked to fixed percentage farm to update\n    /// @param _allocPercentage Percentage based in PERCENTAGE_PRECISION\n    /// @param _withMassPoolUpdate Mass update pools before update\n    /// @param _syncFixedPercentageFarms Sync fixed percentage farm allocations\n    function setFixedPercentFarmAllocation(\n        uint256 _pid,\n        uint256 _allocPercentage,\n        bool _withMassPoolUpdate,\n        bool _syncFixedPercentageFarms\n    ) external onlyFarmAdmin {\n        FixedPercentFarmInfo storage fixedPercentFarm = getFixedPercentFarmFromPid[_pid];\n        require(fixedPercentFarm.isActive, \"not a valid farm pid\");\n        uint256 newTotalFixedPercentFarmPercentage = \n            (_allocPercentage + totalFixedPercentFarmPercentage) - fixedPercentFarm.allocationPercent;\n        require(newTotalFixedPercentFarmPercentage <= MAX_FIXED_FARM_PERCENTAGE, \"new allocation out of bounds\");\n\n        totalFixedPercentFarmPercentage = newTotalFixedPercentFarmPercentage;\n        uint256 previousAllocation = fixedPercentFarm.allocationPercent;\n        fixedPercentFarm.allocationPercent = _allocPercentage;\n\n        if (_allocPercentage == 0) {\n            // Disable fixed percentage farm and MasterApeV2 allocation\n            fixedPercentFarm.isActive = false;\n            // Remove fixed percent farm from pid array\n            for (uint256 index = 0; index < fixedPercentFarmPids.length; index++) {\n                if (fixedPercentFarmPids[index] == _pid) {\n                    _removeFromArray(index, fixedPercentFarmPids);\n                    break;\n                }\n            }\n            // NOTE: The MasterApeV2 pool allocation is left unchanged to not disable a fixed farm\n            //  in case the creation was an accident.\n        }\n        emit SetFixedPercentFarm(_pid, previousAllocation, _allocPercentage);\n\n        if (_withMassPoolUpdate) {\n            masterApeV2.massUpdatePools();\n        }\n\n        if (_syncFixedPercentageFarms) {\n            _syncFixedPercentFarms();\n        }\n    }\n\n    /// @notice Obtain detailed allocation information regarding a MasterApeV2 pool\n    /// @param pid MasterApeV2 pid to pull detailed information from\n    /// @return lpToken Address of the stake token for this pool\n    /// @return poolAllocationPoint Allocation points for this pool\n    /// @return totalAllocationPoints Total allocation points across all pools\n    /// @return poolAllocationPercentMantissa Percentage of pool allocation points to total multiplied by 1e18\n    /// @return poolBananaPerSecond Amount of BANANA given to the pool per second\n    /// @return poolBananaPerDay Amount of BANANA given to the pool per day\n    /// @return poolBananaPerMonth Amount of BANANA given to the pool per month\n    function getDetailedPoolInfo(uint256 pid)\n        external\n        view\n        returns (\n            address lpToken,\n            uint256 poolAllocationPoint,\n            uint256 totalAllocationPoints,\n            uint256 poolAllocationPercentMantissa,\n            uint256 poolBananaPerSecond,\n            uint256 poolBananaPerDay,\n            uint256 poolBananaPerMonth,\n            uint16 depositFeeBP,\n            IRewarderV2 rewarder\n        )\n    {\n        uint256 bananaPerSecond = masterApeV2.bananaPerSecond();\n        (lpToken, poolAllocationPoint, rewarder, , , , depositFeeBP) = masterApeV2.getPoolInfo(pid);\n        totalAllocationPoints = masterApeV2.totalAllocPoint();\n        poolAllocationPercentMantissa = (poolAllocationPoint * 1e18) / totalAllocationPoints;\n        poolBananaPerSecond = (bananaPerSecond * poolAllocationPercentMantissa) / 1e18;\n        // Assumes a 3 second block time\n        poolBananaPerDay = poolBananaPerSecond * 1 days;\n        poolBananaPerMonth = poolBananaPerDay * 30;\n    }\n\n    /** Public Functions  */\n\n    /// @notice Get the number of registered fixed percentage farms\n    /// @return Number of active fixed percentage farms\n    function getNumberOfFixedPercentFarms() public view returns (uint256) {\n        return fixedPercentFarmPids.length;\n    }\n\n    /** Internal Functions  */\n\n    /// @notice Enable or disable a contract address on the whitelist\n    /// @param _address Address to update on whitelist\n    /// @param _enabled Set if the whitelist is enabled or disabled\n    function _setContractWhitelist(address _address, bool _enabled) internal override {\n        masterApeV2.setContractWhitelist(_address, _enabled);\n    }\n\n    /** Private Functions  */\n\n    /// @notice Run through fixed percentage farm allocations and set MasterApeV2 allocations to match the percentage.\n    /// @dev The MasterApeV2 contract manages the BANANA pool percentage on its own\n    /// which is accounted for in the calculations below.\n    function _syncFixedPercentFarms() private {\n        uint256 numberOfFixedPercentFarms = getNumberOfFixedPercentFarms();\n        if (numberOfFixedPercentFarms == 0) {\n            return;\n        }\n        uint256 masterApeV2TotalAllocation = masterApeV2.totalAllocPoint();\n        uint256 currentTotalFixedPercentFarmAllocation = 0;\n        // Calculate the total allocation points of the fixed percent farms\n        for (uint256 index = 0; index < numberOfFixedPercentFarms; index++) {\n            (, uint256 fixedPercentFarmAllocation, , , , , ) = masterApeV2.getPoolInfo(fixedPercentFarmPids[index]);\n            currentTotalFixedPercentFarmAllocation += fixedPercentFarmAllocation;\n        }\n        // Calculate alloted allocations\n        uint256 nonPercentageBasedAllocation = masterApeV2TotalAllocation - currentTotalFixedPercentFarmAllocation;\n        uint256 percentageIncrease = (PERCENTAGE_PRECISION * PERCENTAGE_PRECISION) / \n            (PERCENTAGE_PRECISION - totalFixedPercentFarmPercentage);\n        uint256 finalAllocation = (nonPercentageBasedAllocation * percentageIncrease) / PERCENTAGE_PRECISION;\n        uint256 allotedFixedPercentFarmAllocation = finalAllocation - nonPercentageBasedAllocation;\n        // Update fixed percentage farm allocations\n        for (uint256 index = 0; index < numberOfFixedPercentFarms; index++) {\n            FixedPercentFarmInfo memory fixedPercentFarm = getFixedPercentFarmFromPid[fixedPercentFarmPids[index]];\n            uint256 newFixedPercentFarmAllocation = \n                (allotedFixedPercentFarmAllocation * fixedPercentFarm.allocationPercent) / totalFixedPercentFarmPercentage;\n            (, , IRewarderV2 rewarder, , , , uint16 depositFeeBP) = masterApeV2.getPoolInfo(fixedPercentFarmPids[index]);\n            masterApeV2.set(\n                fixedPercentFarm.pid,\n                newFixedPercentFarmAllocation,\n                false,\n                depositFeeBP,\n                rewarder\n            );\n            emit SyncFixedPercentFarm(fixedPercentFarm.pid, newFixedPercentFarmAllocation);\n        }\n    }\n\n    /// @notice Remove an index from an array by copying the last element to the index\n    /// and then removing the last element.\n    function _removeFromArray(uint256 index, uint256[] storage array) private {\n        require(index < array.length, \"Incorrect index\");\n        array[index] = array[array.length - 1];\n        array.pop();\n    }\n}\n",
  "compiler": {
    "name": "solc",
    "version": "0.8.17+commit.8df45f5f.Emscripten.clang"
  },
  "schemaVersion": "3.4.10",
  "updatedAt": "2022-12-15T03:59:40.719Z",
  "devdoc": {
    "details": "This contract does NOT handle changing the dev address of the MasterApeV2 because that can only be done  by the dev address itself",
    "kind": "dev",
    "methods": {
      "acceptMasterApeV2Ownership()": {
        "details": "Transferring MasterApeV2 ownership away from this contract renders this contract useless."
      },
      "addFixedPercentFarmAllocation(uint256,uint256,bool,bool)": {
        "details": "Must be a new MasterApeV2 pid and below the max fixed percentage",
        "params": {
          "_allocPercentage": "Percentage based in PERCENTAGE_PRECISION",
          "_pid": "MasterApeV2 pid to create a fixed percentage farm for",
          "_syncFixedPercentageFarms": "Sync fixed percentage farm allocations",
          "_withMassPoolUpdate": "Mass update pools before update"
        }
      },
      "addMasterApeFarms(uint256[],address[],uint16[],address[],bool,bool)": {
        "details": "syncs fixed percentage farms after update",
        "params": {
          "_allocPoints": "Array of allocation points to set each address",
          "_depositFeesBP": "Array of deposit fee basis points",
          "_rewarders": "Array of rewarders can be address(0) for no rewarder",
          "_stakeTokens": "Array of stake tokens",
          "_syncFixedPercentageFarms": "Sync fixed percentage farm allocations",
          "_withMassPoolUpdate": "Mass update pools before update"
        }
      },
      "batchUpdateMasterApePools(uint256[])": {
        "details": "The MasterApeV2 massUpdatePools function uses a for loop which in the future  could reach the block gas limit making it in-callable.",
        "params": {
          "pids": "Array of MasterApeV2 pids to update"
        }
      },
      "getDetailedPoolInfo(uint256)": {
        "params": {
          "pid": "MasterApeV2 pid to pull detailed information from"
        },
        "returns": {
          "lpToken": "Address of the stake token for this pool",
          "poolAllocationPercentMantissa": "Percentage of pool allocation points to total multiplied by 1e18",
          "poolAllocationPoint": "Allocation points for this pool",
          "poolBananaPerDay": "Amount of BANANA given to the pool per day",
          "poolBananaPerMonth": "Amount of BANANA given to the pool per month",
          "poolBananaPerSecond": "Amount of BANANA given to the pool per second",
          "totalAllocationPoints": "Total allocation points across all pools"
        }
      },
      "getNumberOfFixedPercentFarms()": {
        "returns": {
          "_0": "Number of active fixed percentage farms"
        }
      },
      "getWhitelistAtIndex(uint256)": {
        "params": {
          "_index": "Index to query"
        }
      },
      "isWhitelisted(address)": {
        "params": {
          "_address": "Address to query"
        }
      },
      "owner()": {
        "details": "Returns the address of the current owner."
      },
      "renounceOwnership()": {
        "details": "Leaves the contract without owner. It will not be possible to call `onlyOwner` functions anymore. Can only be called by the current owner. NOTE: Renouncing ownership will leave the contract without an owner, thereby removing any functionality that is only available to the owner."
      },
      "setBatchContractWhitelist(address[],bool[])": {
        "params": {
          "_addresses": "Addressed to update on whitelist",
          "_enabled": "Set if the whitelist is enabled or disabled for each address passed"
        }
      },
      "setContractWhitelist(address,bool)": {
        "params": {
          "_address": "Address to update on whitelist",
          "_enabled": "Set if the whitelist is enabled or disabled"
        }
      },
      "setFixedPercentFarmAllocation(uint256,uint256,bool,bool)": {
        "details": "If the farm allocation is 0, then the fixed farm will be disabled, but the allocation will be unchanged.",
        "params": {
          "_allocPercentage": "Percentage based in PERCENTAGE_PRECISION",
          "_pid": "MasterApeV2 pid linked to fixed percentage farm to update",
          "_syncFixedPercentageFarms": "Sync fixed percentage farm allocations",
          "_withMassPoolUpdate": "Mass update pools before update"
        }
      },
      "setMasterApeFarms(uint256[],uint256[],uint16[],address[],bool,bool)": {
        "details": "syncs fixed percentage farms after update",
        "params": {
          "_allocPoints": "Array of allocation points to set each pid",
          "_depositFeesBP": "Array of deposit fees for each pid. Pass an empty array to leave the same value.",
          "_pids": "Array of MasterApeV2 pool ids to update",
          "_rewarders": "Array of rewarders to set for each pid. Pass an empty array to leave the same value.",
          "_syncFixedPercentageFarms": "Sync fixed percentage farm allocations",
          "_withMassPoolUpdate": "Mass update pools before update"
        }
      },
      "setPendingMasterApeV1Owner(address)": {
        "params": {
          "_pendingMasterApeV1Owner": "Address to set as the pending owner of the MasterApeV2."
        }
      },
      "setPendingMasterApeV2Owner(address)": {
        "params": {
          "_pendingMasterApeV2Owner": "Address to set as the pending owner of the MasterApeV2."
        }
      },
      "sweepTokens(address[],address)": {
        "params": {
          "_to": "Address to send tokens to",
          "_tokens": "Array of ERC20 addresses to sweep"
        }
      },
      "transferFarmAdminOwnership(address)": {
        "params": {
          "_newFarmAdmin": "Address of new farmAdmin"
        }
      },
      "transferOwnership(address)": {
        "details": "Transfers ownership of the contract to a new account (`newOwner`). Can only be called by the current owner."
      },
      "updateEmissionRate(uint256,bool)": {
        "params": {
          "_bananaPerSecond": "how many BANANAs to mint per second",
          "_withUpdate": "flag to call massUpdatePool before update"
        }
      },
      "updateHardCap(uint256)": {
        "params": {
          "_hardCap": "new BANANA hard cap"
        }
      }
    },
    "title": "Admin MasterApeV2 proxy contract used to add features to MasterApeV2 admin functions",
    "version": 1
  },
  "userdoc": {
    "kind": "user",
    "methods": {
      "MAX_FIXED_FARM_PERCENTAGE()": {
        "notice": "Percentage available to additional fixed percent farms"
      },
      "MAX_FIXED_FARM_PERCENTAGE_BUFFER()": {
        "notice": "Approaching max fixed farm percentage makes the fixed farm allocations go to infinity"
      },
      "PERCENTAGE_PRECISION()": {
        "notice": "The percentages are divided by 10000"
      },
      "acceptMasterApeV2Ownership()": {
        "notice": "The pendingMasterApeOwner takes ownership through this call"
      },
      "addFixedPercentFarmAllocation(uint256,uint256,bool,bool)": {
        "notice": "Add a new fixed percentage farm allocation"
      },
      "addMasterApeFarms(uint256[],address[],uint16[],address[],bool,bool)": {
        "notice": "Add a batch of farms to the MasterApeV2 contract"
      },
      "batchUpdateMasterApePools(uint256[])": {
        "notice": "Helper function to update MasterApeV2 pools in batches"
      },
      "farmAdmin()": {
        "notice": "Farm admin can manage master ape farms and fixed percent farms"
      },
      "fixedPercentFarmPids(uint256)": {
        "notice": "Array of MasterApeV2 pids that are active fixed percent farms"
      },
      "getDetailedPoolInfo(uint256)": {
        "notice": "Obtain detailed allocation information regarding a MasterApeV2 pool"
      },
      "getFixedPercentFarmFromPid(uint256)": {
        "notice": "mapping of MasterApeV2 pids to FixedPercentFarmInfo"
      },
      "getNumberOfFixedPercentFarms()": {
        "notice": "Get the number of registered fixed percentage farms"
      },
      "getWhitelistAtIndex(uint256)": {
        "notice": "Find the address on the whitelist of the provided index"
      },
      "getWhitelistLength()": {
        "notice": "Get the number of addresses on the whitelist"
      },
      "isWhitelisted(address)": {
        "notice": "Check if an address is whitelisted"
      },
      "masterApeV2()": {
        "notice": "MasterApeV2 Address"
      },
      "pendingMasterApeV2Owner()": {
        "notice": "Address which is eligible to accept ownership of the MasterApeV2. Set by the current owner."
      },
      "setBatchContractWhitelist(address[],bool[])": {
        "notice": "Enable or disable contract addresses on the whitelist"
      },
      "setContractWhitelist(address,bool)": {
        "notice": "Enable or disable a contract address on the whitelist"
      },
      "setFixedPercentFarmAllocation(uint256,uint256,bool,bool)": {
        "notice": "Update/disable a new fixed percentage farm allocation"
      },
      "setMasterApeFarms(uint256[],uint256[],uint16[],address[],bool,bool)": {
        "notice": "Set a batch of farms to the MasterApeV2 contract"
      },
      "setPendingMasterApeV1Owner(address)": {
        "notice": "Set an address as the pending admin of the MasterApeV1. The address must accept to take ownership."
      },
      "setPendingMasterApeV2Owner(address)": {
        "notice": "Set an address as the pending admin of the MasterApeV2. The address must accept to take ownership."
      },
      "setWhitelistEnabled(bool)": {
        "notice": "enables smart contract whitelist on MAv2."
      },
      "sweepTokens(address[],address)": {
        "notice": "An external function to sweep accidental ERC20 transfers to this contract.   Tokens are sent to owner"
      },
      "syncFixedPercentFarms()": {
        "notice": "Update pool allocations based on fixed percentage farm percentages"
      },
      "totalFixedPercentFarmPercentage()": {
        "notice": "Total allocation percentage for fixed percent farms"
      },
      "transferFarmAdminOwnership(address)": {
        "notice": "Transfer the farmAdmin to a new address"
      },
      "updateEmissionRate(uint256,bool)": {
        "notice": "An external function to update MAv2 Emission rate."
      },
      "updateHardCap(uint256)": {
        "notice": "An external function to update the BANANA hard cap."
      },
      "whitelistEnabled()": {
        "notice": "marks if a contract whitelist is enabled."
      }
    },
    "notice": "Admin functions are separated into onlyOwner and onlyFarmAdmin to separate concerns",
    "version": 1
  }
}