{
  "contractName": "MasterApeV2",
  "abi": [
    {
      "inputs": [
        {
          "internalType": "contract IERC20",
          "name": "banana_",
          "type": "address"
        },
        {
          "internalType": "contract IMasterApe",
          "name": "masterApe_",
          "type": "address"
        },
        {
          "internalType": "uint256",
          "name": "masterPid_",
          "type": "uint256"
        },
        {
          "internalType": "uint256",
          "name": "bananaPerSecond_",
          "type": "uint256"
        }
      ],
      "stateMutability": "nonpayable",
      "type": "constructor"
    },
    {
      "anonymous": false,
      "inputs": [
        {
          "indexed": true,
          "internalType": "address",
          "name": "user",
          "type": "address"
        },
        {
          "indexed": true,
          "internalType": "uint256",
          "name": "pid",
          "type": "uint256"
        },
        {
          "indexed": false,
          "internalType": "uint256",
          "name": "amount",
          "type": "uint256"
        }
      ],
      "name": "Deposit",
      "type": "event"
    },
    {
      "anonymous": false,
      "inputs": [
        {
          "indexed": true,
          "internalType": "address",
          "name": "user",
          "type": "address"
        },
        {
          "indexed": false,
          "internalType": "uint256",
          "name": "amount",
          "type": "uint256"
        }
      ],
      "name": "DepositBananaRewards",
      "type": "event"
    },
    {
      "anonymous": false,
      "inputs": [
        {
          "indexed": true,
          "internalType": "address",
          "name": "user",
          "type": "address"
        },
        {
          "indexed": true,
          "internalType": "uint256",
          "name": "pid",
          "type": "uint256"
        },
        {
          "indexed": false,
          "internalType": "uint256",
          "name": "amount",
          "type": "uint256"
        }
      ],
      "name": "EmergencyWithdraw",
      "type": "event"
    },
    {
      "anonymous": false,
      "inputs": [
        {
          "indexed": false,
          "internalType": "uint8",
          "name": "version",
          "type": "uint8"
        }
      ],
      "name": "Initialized",
      "type": "event"
    },
    {
      "anonymous": false,
      "inputs": [
        {
          "indexed": true,
          "internalType": "uint256",
          "name": "pid",
          "type": "uint256"
        },
        {
          "indexed": false,
          "internalType": "uint256",
          "name": "allocPoint",
          "type": "uint256"
        },
        {
          "indexed": true,
          "internalType": "contract IERC20",
          "name": "stakeToken",
          "type": "address"
        },
        {
          "indexed": false,
          "internalType": "uint16",
          "name": "depositFee",
          "type": "uint16"
        },
        {
          "indexed": true,
          "internalType": "contract IRewarderV2",
          "name": "rewarder",
          "type": "address"
        }
      ],
      "name": "LogPoolAddition",
      "type": "event"
    },
    {
      "anonymous": false,
      "inputs": [
        {
          "indexed": true,
          "internalType": "uint256",
          "name": "pid",
          "type": "uint256"
        },
        {
          "indexed": false,
          "internalType": "uint256",
          "name": "allocPoint",
          "type": "uint256"
        },
        {
          "indexed": false,
          "internalType": "uint16",
          "name": "depositFee",
          "type": "uint16"
        },
        {
          "indexed": true,
          "internalType": "contract IRewarderV2",
          "name": "rewarder",
          "type": "address"
        }
      ],
      "name": "LogSetPool",
      "type": "event"
    },
    {
      "anonymous": false,
      "inputs": [
        {
          "indexed": true,
          "internalType": "uint256",
          "name": "pid",
          "type": "uint256"
        },
        {
          "indexed": false,
          "internalType": "uint256",
          "name": "lastRewardBlock",
          "type": "uint256"
        },
        {
          "indexed": false,
          "internalType": "uint256",
          "name": "stakeSupply",
          "type": "uint256"
        },
        {
          "indexed": false,
          "internalType": "uint256",
          "name": "accBananaPerShare",
          "type": "uint256"
        }
      ],
      "name": "LogUpdatePool",
      "type": "event"
    },
    {
      "anonymous": false,
      "inputs": [
        {
          "indexed": true,
          "internalType": "address",
          "name": "previousOwner",
          "type": "address"
        },
        {
          "indexed": true,
          "internalType": "address",
          "name": "newOwner",
          "type": "address"
        }
      ],
      "name": "OwnershipTransferred",
      "type": "event"
    },
    {
      "anonymous": false,
      "inputs": [
        {
          "indexed": true,
          "internalType": "address",
          "name": "user",
          "type": "address"
        },
        {
          "indexed": true,
          "internalType": "address",
          "name": "newAddress",
          "type": "address"
        }
      ],
      "name": "SetFeeAddress",
      "type": "event"
    },
    {
      "anonymous": false,
      "inputs": [
        {
          "indexed": false,
          "internalType": "address",
          "name": "pendingMasterApeOwner",
          "type": "address"
        }
      ],
      "name": "SetPendingMasterApeV1Owner",
      "type": "event"
    },
    {
      "anonymous": false,
      "inputs": [
        {
          "indexed": true,
          "internalType": "address",
          "name": "whitelistAddress",
          "type": "address"
        },
        {
          "indexed": false,
          "internalType": "bool",
          "name": "whitelistEnabled",
          "type": "bool"
        }
      ],
      "name": "UpdateContractWhitelist",
      "type": "event"
    },
    {
      "anonymous": false,
      "inputs": [
        {
          "indexed": true,
          "internalType": "address",
          "name": "user",
          "type": "address"
        },
        {
          "indexed": false,
          "internalType": "uint256",
          "name": "bananaPerSecond",
          "type": "uint256"
        }
      ],
      "name": "UpdateEmissionRate",
      "type": "event"
    },
    {
      "anonymous": false,
      "inputs": [
        {
          "indexed": true,
          "internalType": "address",
          "name": "user",
          "type": "address"
        },
        {
          "indexed": false,
          "internalType": "uint256",
          "name": "hardCap",
          "type": "uint256"
        }
      ],
      "name": "UpdateHardCap",
      "type": "event"
    },
    {
      "anonymous": false,
      "inputs": [
        {
          "indexed": false,
          "internalType": "bool",
          "name": "whitelistEnabled",
          "type": "bool"
        }
      ],
      "name": "UpdateWhitelistStatus",
      "type": "event"
    },
    {
      "anonymous": false,
      "inputs": [
        {
          "indexed": true,
          "internalType": "address",
          "name": "user",
          "type": "address"
        },
        {
          "indexed": true,
          "internalType": "uint256",
          "name": "pid",
          "type": "uint256"
        },
        {
          "indexed": false,
          "internalType": "uint256",
          "name": "amount",
          "type": "uint256"
        }
      ],
      "name": "Withdraw",
      "type": "event"
    },
    {
      "inputs": [],
      "name": "MASTER_APE_BANANA_PER_BLOCK",
      "outputs": [
        {
          "internalType": "uint256",
          "name": "",
          "type": "uint256"
        }
      ],
      "stateMutability": "view",
      "type": "function"
    },
    {
      "inputs": [],
      "name": "MASTER_APE_BANANA_PER_SECOND_ESTIMATE",
      "outputs": [
        {
          "internalType": "uint256",
          "name": "",
          "type": "uint256"
        }
      ],
      "stateMutability": "view",
      "type": "function"
    },
    {
      "inputs": [],
      "name": "MAX_DEPOSIT_FEE_BP",
      "outputs": [
        {
          "internalType": "uint256",
          "name": "",
          "type": "uint256"
        }
      ],
      "stateMutability": "view",
      "type": "function"
    },
    {
      "inputs": [],
      "name": "availableBananaRewards",
      "outputs": [
        {
          "internalType": "uint256",
          "name": "",
          "type": "uint256"
        }
      ],
      "stateMutability": "view",
      "type": "function"
    },
    {
      "inputs": [],
      "name": "banana",
      "outputs": [
        {
          "internalType": "contract IERC20",
          "name": "",
          "type": "address"
        }
      ],
      "stateMutability": "view",
      "type": "function"
    },
    {
      "inputs": [],
      "name": "bananaPerSecond",
      "outputs": [
        {
          "internalType": "uint256",
          "name": "",
          "type": "uint256"
        }
      ],
      "stateMutability": "view",
      "type": "function"
    },
    {
      "inputs": [],
      "name": "feeAddress",
      "outputs": [
        {
          "internalType": "address",
          "name": "",
          "type": "address"
        }
      ],
      "stateMutability": "view",
      "type": "function"
    },
    {
      "inputs": [
        {
          "internalType": "uint256",
          "name": "_index",
          "type": "uint256"
        }
      ],
      "name": "getWhitelistAtIndex",
      "outputs": [
        {
          "internalType": "address",
          "name": "",
          "type": "address"
        }
      ],
      "stateMutability": "view",
      "type": "function"
    },
    {
      "inputs": [],
      "name": "getWhitelistLength",
      "outputs": [
        {
          "internalType": "uint256",
          "name": "",
          "type": "uint256"
        }
      ],
      "stateMutability": "view",
      "type": "function"
    },
    {
      "inputs": [],
      "name": "hardCap",
      "outputs": [
        {
          "internalType": "uint256",
          "name": "",
          "type": "uint256"
        }
      ],
      "stateMutability": "view",
      "type": "function"
    },
    {
      "inputs": [
        {
          "internalType": "address",
          "name": "_address",
          "type": "address"
        }
      ],
      "name": "isWhitelisted",
      "outputs": [
        {
          "internalType": "bool",
          "name": "",
          "type": "bool"
        }
      ],
      "stateMutability": "view",
      "type": "function"
    },
    {
      "inputs": [],
      "name": "masterApe",
      "outputs": [
        {
          "internalType": "contract IMasterApe",
          "name": "",
          "type": "address"
        }
      ],
      "stateMutability": "view",
      "type": "function"
    },
    {
      "inputs": [],
      "name": "masterPid",
      "outputs": [
        {
          "internalType": "uint256",
          "name": "",
          "type": "uint256"
        }
      ],
      "stateMutability": "view",
      "type": "function"
    },
    {
      "inputs": [],
      "name": "owner",
      "outputs": [
        {
          "internalType": "address",
          "name": "",
          "type": "address"
        }
      ],
      "stateMutability": "view",
      "type": "function"
    },
    {
      "inputs": [],
      "name": "pendingMasterApeV1Owner",
      "outputs": [
        {
          "internalType": "address",
          "name": "",
          "type": "address"
        }
      ],
      "stateMutability": "view",
      "type": "function"
    },
    {
      "inputs": [
        {
          "internalType": "contract IERC20",
          "name": "",
          "type": "address"
        }
      ],
      "name": "poolExistence",
      "outputs": [
        {
          "internalType": "bool",
          "name": "",
          "type": "bool"
        }
      ],
      "stateMutability": "view",
      "type": "function"
    },
    {
      "inputs": [
        {
          "internalType": "uint256",
          "name": "",
          "type": "uint256"
        }
      ],
      "name": "poolInfo",
      "outputs": [
        {
          "internalType": "contract IERC20",
          "name": "stakeToken",
          "type": "address"
        },
        {
          "internalType": "contract IRewarderV2",
          "name": "rewarder",
          "type": "address"
        },
        {
          "internalType": "uint256",
          "name": "allocPoint",
          "type": "uint256"
        },
        {
          "internalType": "uint256",
          "name": "totalStaked",
          "type": "uint256"
        },
        {
          "internalType": "uint256",
          "name": "lastRewardTime",
          "type": "uint256"
        },
        {
          "internalType": "uint256",
          "name": "accBananaPerShare",
          "type": "uint256"
        },
        {
          "internalType": "uint16",
          "name": "depositFeeBP",
          "type": "uint16"
        }
      ],
      "stateMutability": "view",
      "type": "function"
    },
    {
      "inputs": [],
      "name": "renounceOwnership",
      "outputs": [],
      "stateMutability": "nonpayable",
      "type": "function"
    },
    {
      "inputs": [
        {
          "internalType": "address[]",
          "name": "_addresses",
          "type": "address[]"
        },
        {
          "internalType": "bool[]",
          "name": "_enabled",
          "type": "bool[]"
        }
      ],
      "name": "setBatchContractWhitelist",
      "outputs": [],
      "stateMutability": "nonpayable",
      "type": "function"
    },
    {
      "inputs": [
        {
          "internalType": "address",
          "name": "_address",
          "type": "address"
        },
        {
          "internalType": "bool",
          "name": "_enabled",
          "type": "bool"
        }
      ],
      "name": "setContractWhitelist",
      "outputs": [],
      "stateMutability": "nonpayable",
      "type": "function"
    },
    {
      "inputs": [
        {
          "internalType": "bool",
          "name": "_enabled",
          "type": "bool"
        }
      ],
      "name": "setWhitelistEnabled",
      "outputs": [],
      "stateMutability": "nonpayable",
      "type": "function"
    },
    {
      "inputs": [],
      "name": "totalAllocPoint",
      "outputs": [
        {
          "internalType": "uint256",
          "name": "",
          "type": "uint256"
        }
      ],
      "stateMutability": "view",
      "type": "function"
    },
    {
      "inputs": [
        {
          "internalType": "address",
          "name": "newOwner",
          "type": "address"
        }
      ],
      "name": "transferOwnership",
      "outputs": [],
      "stateMutability": "nonpayable",
      "type": "function"
    },
    {
      "inputs": [],
      "name": "unallocatedBanana",
      "outputs": [
        {
          "internalType": "uint256",
          "name": "",
          "type": "uint256"
        }
      ],
      "stateMutability": "view",
      "type": "function"
    },
    {
      "inputs": [
        {
          "internalType": "uint256",
          "name": "",
          "type": "uint256"
        },
        {
          "internalType": "address",
          "name": "",
          "type": "address"
        }
      ],
      "name": "userInfo",
      "outputs": [
        {
          "internalType": "uint256",
          "name": "amount",
          "type": "uint256"
        },
        {
          "internalType": "uint256",
          "name": "rewardDebt",
          "type": "uint256"
        }
      ],
      "stateMutability": "view",
      "type": "function"
    },
    {
      "inputs": [],
      "name": "whitelistEnabled",
      "outputs": [
        {
          "internalType": "bool",
          "name": "",
          "type": "bool"
        }
      ],
      "stateMutability": "view",
      "type": "function"
    },
    {
      "inputs": [],
      "name": "initialize",
      "outputs": [],
      "stateMutability": "nonpayable",
      "type": "function"
    },
    {
      "inputs": [
        {
          "internalType": "uint256",
          "name": "_pid",
          "type": "uint256"
        },
        {
          "internalType": "uint256",
          "name": "_amount",
          "type": "uint256"
        }
      ],
      "name": "deposit",
      "outputs": [],
      "stateMutability": "nonpayable",
      "type": "function"
    },
    {
      "inputs": [
        {
          "internalType": "uint256",
          "name": "_pid",
          "type": "uint256"
        },
        {
          "internalType": "uint256",
          "name": "_amount",
          "type": "uint256"
        }
      ],
      "name": "withdraw",
      "outputs": [],
      "stateMutability": "nonpayable",
      "type": "function"
    },
    {
      "inputs": [
        {
          "internalType": "uint256",
          "name": "_pid",
          "type": "uint256"
        }
      ],
      "name": "updatePool",
      "outputs": [],
      "stateMutability": "nonpayable",
      "type": "function"
    },
    {
      "inputs": [],
      "name": "harvestFromMasterApe",
      "outputs": [],
      "stateMutability": "nonpayable",
      "type": "function"
    },
    {
      "inputs": [
        {
          "internalType": "uint256",
          "name": "_pid",
          "type": "uint256"
        }
      ],
      "name": "emergencyWithdraw",
      "outputs": [],
      "stateMutability": "nonpayable",
      "type": "function"
    },
    {
      "inputs": [
        {
          "internalType": "address",
          "name": "_feeAddress",
          "type": "address"
        }
      ],
      "name": "setFeeAddress",
      "outputs": [],
      "stateMutability": "nonpayable",
      "type": "function"
    },
    {
      "inputs": [
        {
          "internalType": "uint256",
          "name": "_bananaPerSecond",
          "type": "uint256"
        },
        {
          "internalType": "bool",
          "name": "_withUpdate",
          "type": "bool"
        }
      ],
      "name": "updateEmissionRate",
      "outputs": [],
      "stateMutability": "nonpayable",
      "type": "function"
    },
    {
      "inputs": [
        {
          "internalType": "address",
          "name": "_pendingMasterApeV1Owner",
          "type": "address"
        }
      ],
      "name": "setPendingMasterApeV1Owner",
      "outputs": [],
      "stateMutability": "nonpayable",
      "type": "function"
    },
    {
      "inputs": [],
      "name": "acceptMasterApeV1Ownership",
      "outputs": [],
      "stateMutability": "nonpayable",
      "type": "function"
    },
    {
      "inputs": [
        {
          "internalType": "uint256",
          "name": "_hardCap",
          "type": "uint256"
        }
      ],
      "name": "updateHardCap",
      "outputs": [],
      "stateMutability": "nonpayable",
      "type": "function"
    },
    {
      "inputs": [],
      "name": "poolLength",
      "outputs": [
        {
          "internalType": "uint256",
          "name": "",
          "type": "uint256"
        }
      ],
      "stateMutability": "view",
      "type": "function"
    },
    {
      "inputs": [
        {
          "internalType": "uint256",
          "name": "_pid",
          "type": "uint256"
        },
        {
          "internalType": "address",
          "name": "_user",
          "type": "address"
        }
      ],
      "name": "pendingBanana",
      "outputs": [
        {
          "internalType": "uint256",
          "name": "",
          "type": "uint256"
        }
      ],
      "stateMutability": "view",
      "type": "function"
    },
    {
      "inputs": [
        {
          "internalType": "uint256",
          "name": "_allocPoint",
          "type": "uint256"
        },
        {
          "internalType": "contract IERC20",
          "name": "_stakeToken",
          "type": "address"
        },
        {
          "internalType": "bool",
          "name": "_withUpdate",
          "type": "bool"
        },
        {
          "internalType": "uint16",
          "name": "_depositFeeBP",
          "type": "uint16"
        },
        {
          "internalType": "contract IRewarderV2",
          "name": "_rewarder",
          "type": "address"
        }
      ],
      "name": "add",
      "outputs": [],
      "stateMutability": "nonpayable",
      "type": "function"
    },
    {
      "inputs": [
        {
          "internalType": "uint256",
          "name": "_pid",
          "type": "uint256"
        },
        {
          "internalType": "uint256",
          "name": "_allocPoint",
          "type": "uint256"
        },
        {
          "internalType": "bool",
          "name": "_withUpdate",
          "type": "bool"
        },
        {
          "internalType": "uint16",
          "name": "_depositFeeBP",
          "type": "uint16"
        },
        {
          "internalType": "contract IRewarderV2",
          "name": "_rewarder",
          "type": "address"
        }
      ],
      "name": "set",
      "outputs": [],
      "stateMutability": "nonpayable",
      "type": "function"
    },
    {
      "inputs": [],
      "name": "massUpdatePools",
      "outputs": [],
      "stateMutability": "nonpayable",
      "type": "function"
    },
    {
      "inputs": [
        {
          "internalType": "uint256",
          "name": "_pid",
          "type": "uint256"
        },
        {
          "internalType": "uint256",
          "name": "_amount",
          "type": "uint256"
        },
        {
          "internalType": "address",
          "name": "_to",
          "type": "address"
        }
      ],
      "name": "depositTo",
      "outputs": [],
      "stateMutability": "nonpayable",
      "type": "function"
    },
    {
      "inputs": [
        {
          "internalType": "uint256",
          "name": "_pid",
          "type": "uint256"
        },
        {
          "internalType": "uint256",
          "name": "_amount",
          "type": "uint256"
        },
        {
          "internalType": "address",
          "name": "_to",
          "type": "address"
        }
      ],
      "name": "withdrawTo",
      "outputs": [],
      "stateMutability": "nonpayable",
      "type": "function"
    },
    {
      "inputs": [
        {
          "internalType": "uint256",
          "name": "_amount",
          "type": "uint256"
        }
      ],
      "name": "depositBananaRewards",
      "outputs": [],
      "stateMutability": "nonpayable",
      "type": "function"
    },
    {
      "inputs": [
        {
          "internalType": "uint256",
          "name": "_pid",
          "type": "uint256"
        }
      ],
      "name": "getPoolInfo",
      "outputs": [
        {
          "internalType": "address",
          "name": "lpToken",
          "type": "address"
        },
        {
          "internalType": "uint256",
          "name": "allocPoint",
          "type": "uint256"
        },
        {
          "internalType": "contract IRewarderV2",
          "name": "rewarder",
          "type": "address"
        },
        {
          "internalType": "uint256",
          "name": "lastRewardTime",
          "type": "uint256"
        },
        {
          "internalType": "uint256",
          "name": "accBananaPerShare",
          "type": "uint256"
        },
        {
          "internalType": "uint256",
          "name": "totalStaked",
          "type": "uint256"
        },
        {
          "internalType": "uint16",
          "name": "depositFeeBP",
          "type": "uint16"
        }
      ],
      "stateMutability": "view",
      "type": "function"
    },
    {
      "inputs": [
        {
          "internalType": "uint256",
          "name": "_from",
          "type": "uint256"
        },
        {
          "internalType": "uint256",
          "name": "_to",
          "type": "uint256"
        }
      ],
      "name": "getMultiplier",
      "outputs": [
        {
          "internalType": "uint256",
          "name": "",
          "type": "uint256"
        }
      ],
      "stateMutability": "pure",
      "type": "function"
    }
  ],
  "bytecode": "0x60e06040526b015b6a759f4835dc240000006007553480156200002157600080fd5b506040516200444c3803806200444c833981016040819052620000449162000e12565b6200004f3362000091565b60016004556001600160a01b0380851660c052831660805260a08290526200007781620000ec565b6200008760008581808062000193565b5050505062000fce565b600080546001600160a01b038381166201000081810262010000600160b01b0319851617855560405193049190911692909183917f8be0079c531659141344cd1fd0a4f28419497f9722a3daafe3b4186f6b6457e091a35050565b620001016003678ac7230489e8000062000e75565b811115620001565760405162461bcd60e51b815260206004820152601660248201527f4d6f7265207468616e206d6178696d756d20726174650000000000000000000060448201526064015b60405180910390fd5b600681905560405181815233907fe2492e003bbe8afa53088b406f0c1cb5d9e280370fc72a74cf116ffd343c40539060200160405180910390a250565b6200019d6200045b565b6001600160a01b0384166000908152600e6020526040902054849060ff16156200020a5760405162461bcd60e51b815260206004820152601960248201527f6e6f6e4475706c6963617465643a206475706c6963617465640000000000000060448201526064016200014d565b6103e88361ffff161115620002625760405162461bcd60e51b815260206004820152601860248201527f6164643a20696e76616c6964206465706f73697420666565000000000000000060448201526064016200014d565b8315620002735762000273620004c0565b600042905086600d60008282546200028c919062000e98565b925050819055506001600e6000886001600160a01b03166001600160a01b0316815260200190815260200160002060006101000a81548160ff021916908315150217905550600b6040518060e00160405280886001600160a01b03168152602001856001600160a01b0316815260200189815260200160008152602001838152602001600081526020018661ffff16815250908060018154018082558091505060019003906000526020600020906007020160009091909190915060008201518160000160006101000a8154816001600160a01b0302191690836001600160a01b0316021790555060208201518160010160006101000a8154816001600160a01b0302191690836001600160a01b0316021790555060408201518160020155606082015181600301556080820151816004015560a0820151816005015560c08201518160060160006101000a81548161ffff021916908361ffff1602179055505050826001600160a01b0316866001600160a01b03166001600b8054905062000416919062000eae565b604080518b815261ffff891660208201527fc22f9ee3fed56a1a3f7b694e3202f7f4ada722438be846c67ebb439e27c01b02910160405180910390a450505050505050565b6000546001600160a01b0362010000909104163314620004be5760405162461bcd60e51b815260206004820181905260248201527f4f776e61626c653a2063616c6c6572206973206e6f7420746865206f776e657260448201526064016200014d565b565b600b5460005b81811015620004ed57620004da81620004f1565b620004e58162000ec4565b9050620004c6565b5050565b6000600b828154811062000509576200050962000ee0565b906000526020600020906007020190508060040154421162000529575050565b60038101548015806200053e57506002820154155b156200054f57504260049091015550565b6000620005678360040154426200072a60201b60201c565b426004850155600d5460028501546006549293506000926200058a908562000ef6565b62000596919062000ef6565b620005a2919062000e75565b905080600003620005b4575050505050565b600854811115620005c957620005c962000741565b6007546008548260c0516001600160a01b03166318160ddd6040518163ffffffff1660e01b8152600401602060405180830381865afa15801562000611573d6000803e3d6000fd5b505050506040513d601f19601f8201168201806040525081019062000637919062000f10565b62000643919062000e98565b6200064f919062000eae565b111562000683576200066062000741565b6008548110620006835750600854600654156200068357620006836000620000ec565b8262000698670de0b6b3a76400008362000ef6565b620006a4919062000e75565b846005016000828254620006b9919062000e98565b925050819055508060086000828254620006d4919062000eae565b909155505060048401546005850154604080519283526020830186905282015285907fcb7325664a4a3b7c7223eefc492a97ca4fdf94d46884621e5a8fae5a04b2b9d29060600160405180910390a25050505050565b600062000738838362000eae565b90505b92915050565b60c0516040516370a0823160e01b81523060048201526000916001600160a01b0316906370a0823190602401602060405180830381865afa1580156200078b573d6000803e3d6000fd5b505050506040513d601f19601f82011682018060405250810190620007b1919062000f10565b60805160a051604051631c57762b60e31b81526004810191909152600060248201529192506001600160a01b03169063e2bbb15890604401600060405180830381600087803b1580156200080457600080fd5b505af115801562000819573d6000803e3d6000fd5b505060c0516040516370a0823160e01b8152306004820152600093508492506001600160a01b03909116906370a0823190602401602060405180830381865afa1580156200086b573d6000803e3d6000fd5b505050506040513d601f19601f8201168201806040525081019062000891919062000f10565b6200089d919062000eae565b90508060086000828254620008b3919062000e98565b925050819055508060096000828254620008ce919062000e98565b92505081905550600060c0516001600160a01b03166318160ddd6040518163ffffffff1660e01b8152600401602060405180830381865afa15801562000918573d6000803e3d6000fd5b505050506040513d601f19601f820116820180604052508101906200093e919062000f10565b90506007548110158015620009b9575060006080516001600160a01b0316638aa285506040518163ffffffff1660e01b8152600401602060405180830381865afa15801562000991573d6000803e3d6000fd5b505050506040513d601f19601f82011682018060405250810190620009b7919062000f10565b115b1562000a8457608051604051632fff30a360e11b8152600060048201526001600160a01b0390911690635ffe614690602401600060405180830381600087803b15801562000a0657600080fd5b505af115801562000a1b573d6000803e3d6000fd5b5050505060006007548262000a31919062000eae565b9050806009541062000a6b57806008600082825462000a51919062000eae565b9091555062000a65905061dead8262000a89565b62000a82565b600060085560095462000a829061dead9062000a89565b505b505050565b60095481111562000a9e5762000a9e62000741565b60095481111562000add5760095490506000600981905550620004ed828260c0516001600160a01b031662000b1f60201b62001fc1179092919060201c565b806009600082825462000af1919062000eae565b92505081905550620004ed828260c0516001600160a01b031662000b1f60201b62001fc1179092919060201c565b604080516001600160a01b038416602482015260448082018490528251808303909101815260649091019091526020810180516001600160e01b0390811663a9059cbb60e01b1790915262000a8491859162000b7716565b600062000bd3826040518060400160405280602081526020017f5361666545524332303a206c6f772d6c6576656c2063616c6c206661696c6564815250856001600160a01b031662000c5560201b62002024179092919060201c565b80519091501562000a84578080602001905181019062000bf4919062000f2a565b62000a845760405162461bcd60e51b815260206004820152602a60248201527f5361666545524332303a204552433230206f7065726174696f6e20646964206e6044820152691bdd081cdd58d8d9595960b21b60648201526084016200014d565b606062000c66848460008562000c6e565b949350505050565b60608247101562000cd15760405162461bcd60e51b815260206004820152602660248201527f416464726573733a20696e73756666696369656e742062616c616e636520666f6044820152651c8818d85b1b60d21b60648201526084016200014d565b600080866001600160a01b0316858760405162000cef919062000f7b565b60006040518083038185875af1925050503d806000811462000d2e576040519150601f19603f3d011682016040523d82523d6000602084013e62000d33565b606091505b50909250905062000d478783838762000d52565b979650505050505050565b6060831562000dc657825160000362000dbe576001600160a01b0385163b62000dbe5760405162461bcd60e51b815260206004820152601d60248201527f416464726573733a2063616c6c20746f206e6f6e2d636f6e747261637400000060448201526064016200014d565b508162000c66565b62000c66838381511562000ddd5781518083602001fd5b8060405162461bcd60e51b81526004016200014d919062000f99565b6001600160a01b038116811462000e0f57600080fd5b50565b6000806000806080858703121562000e2957600080fd5b845162000e368162000df9565b602086015190945062000e498162000df9565b6040860151606090960151949790965092505050565b634e487b7160e01b600052601160045260246000fd5b60008262000e9357634e487b7160e01b600052601260045260246000fd5b500490565b808201808211156200073b576200073b62000e5f565b818103818111156200073b576200073b62000e5f565b60006001820162000ed95762000ed962000e5f565b5060010190565b634e487b7160e01b600052603260045260246000fd5b80820281158282048414176200073b576200073b62000e5f565b60006020828403121562000f2357600080fd5b5051919050565b60006020828403121562000f3d57600080fd5b8151801515811462000f4e57600080fd5b9392505050565b60005b8381101562000f7257818101518382015260200162000f58565b50506000910152565b6000825162000f8f81846020870162000f55565b9190910192915050565b602081526000825180602084015262000fba81604085016020870162000f55565b601f01601f19169190910160400192915050565b60805160a05160c0516133d06200107c60003960008181610618015281816110a1015281816121ca0152818161235d015281816123a90152818161258f0152818161275d0152818161289501526129420152600081816105170152818161120f0152818161142801526127df015260008181610450015281816112380152818161139c0152818161145501528181611ec90152818161280f015281816129d50152612a7201526133d06000f3fe608060405234801561001057600080fd5b50600436106102955760003560e01c8063703df79311610167578063a13202e9116100ce578063de9f3a1711610087578063de9f3a1714610666578063e2bbb15814610679578063f2653b161461068c578063f2fde38b14610694578063fb86a404146106a7578063fd772ae6146106b057600080fd5b8063a13202e9146105f0578063aa8f6ca1146105f8578063b7f790c11461060b578063c3cafc6f14610613578063cbd258b51461063a578063d89e4f341461065d57600080fd5b8063889b830711610120578063889b8307146105545780638da5cb5b1461055d5780638dbb1e3a1461057457806393f1a40b146105875780639a269e0c146105ce5780639fb1fb1f146105e157600080fd5b8063703df793146104e4578063715018a6146104f7578063777593fe146104ff57806380b7d5c1146105125780638129fc1c146105395780638705fcd41461054157600080fd5b8063412753581161020b5780635312ea8e116101c45780635312ea8e146104925780635c56b370146104a55780635e81f9c3146104ad578063630b5ba1146104c05780636b4c3077146104c85780636c020b06146104db57600080fd5b80634127535814610412578063441a3e701461042557806345ff0d8f1461043857806348fe55f61461044b57806351eb05a61461047257806351fb012d1461048557600080fd5b806317caf6f11161025d57806317caf6f11461035b5780632f380b3514610364578063365487a0146103c057806337caa6e7146103d3578063387297fc146103dc5780633af32abf146103ef57600080fd5b8063052d9e7e1461029a578063067a0075146102af578063081e3eda146102df57806314cd70e4146102f15780631526fe2714610304575b600080fd5b6102ad6102a8366004612f18565b6106c3565b005b6102c26102bd366004612f35565b610719565b6040516001600160a01b0390911681526020015b60405180910390f35b600b545b6040519081526020016102d6565b6102ad6102ff366004612f63565b61072c565b610317610312366004612f35565b610960565b604080516001600160a01b039889168152979096166020880152948601939093526060850191909152608084015260a083015261ffff1660c082015260e0016102d6565b6102e3600d5481565b610377610372366004612f35565b6109c0565b604080516001600160a01b039889168152602081019790975294909616938501939093526060840191909152608083015260a082015261ffff90911660c082015260e0016102d6565b6102ad6103ce366004612fb3565b610b0b565b6102e36103e881565b6102ad6103ea366004613010565b610cbe565b6104026103fd366004613010565b610d14565b60405190151581526020016102d6565b600a546102c2906001600160a01b031681565b6102ad61043336600461302d565b610d21565b6102ad61044636600461304f565b610d30565b6102c27f000000000000000000000000000000000000000000000000000000000000000081565b6102ad610480366004612f35565b610d4f565b6003546104029060ff1681565b6102ad6104a0366004612f35565b610d6d565b6102e3610ebe565b6102ad6104bb3660046130cb565b610ed4565b6102ad610f96565b6005546102c2906001600160a01b031681565b6102e360095481565b6102ad6104f2366004612f35565b610fbd565b6102ad610fce565b6102ad61050d366004612f35565b610fe2565b6102e37f000000000000000000000000000000000000000000000000000000000000000081565b6102ad611138565b6102ad61054f366004613010565b6114fe565b6102e360065481565b6000546201000090046001600160a01b03166102c2565b6102e361058236600461302d565b611627565b6105b9610595366004613137565b600c6020908152600092835260408084209091529082529020805460019091015482565b604080519283526020830191909152016102d6565b6102ad6105dc366004612f63565b61163a565b6102e3678ac7230489e8000081565b6102e36119e4565b6102e3610606366004613137565b6119f5565b6102ad611b79565b6102c27f000000000000000000000000000000000000000000000000000000000000000081565b610402610648366004613010565b600e6020526000908152604090205460ff1681565b6102e360085481565b6102ad61067436600461315c565b611b93565b6102ad61068736600461302d565b611e4e565b6102ad611e59565b6102ad6106a2366004613010565b611f39565b6102e360075481565b6102ad6106be366004613196565b611faf565b6106cb61203b565b6003805460ff191682151590811790915560405160ff909116151581527fd1a6fe32acce5bcdfbc5fee8b6f05cf793552efccacbf6eb93c4a8a37ad10336906020015b60405180910390a150565b600061072660018361209c565b92915050565b6107346120a8565b6000600b8481548110610749576107496131c4565b60009182526020808320878452600c82526040808520338652909252922060036007909202909201908101548254919350908511156107c85760405162461bcd60e51b81526020600482015260166024820152751dda5d1a191c985dce881a5b9cdd59999a58da595b9d60521b60448201526064015b60405180910390fd5b6107d186612101565b60008260010154670de0b6b3a7640000856005015485600001546107f591906131f0565b6107ff9190613207565b6108099190613229565b9050801561081b5761081b858261232a565b851561086b57858360000160008282546108359190613229565b92505081905550858460030160008282546108509190613229565b9091555050835461086b906001600160a01b03168688611fc1565b60018401546001600160a01b0316156108ed5760018401548354604051630386199160e11b81526001600160a01b039092169163070c3322916108ba918b9133918b9188918a9060040161323c565b600060405180830381600087803b1580156108d457600080fd5b505af11580156108e8573d6000803e3d6000fd5b505050505b60058401548354670de0b6b3a764000091610907916131f0565b6109119190613207565b6001840155604051868152879033907ff279e6a1f5e320cca91135676d9cb6e44ca8a08c0b88342bcdb1144f6511b5689060200160405180910390a35050505061095b6001600455565b505050565b600b818154811061097057600080fd5b600091825260209091206007909102018054600182015460028301546003840154600485015460058601546006909601546001600160a01b039586169750949093169491939092919061ffff1687565b6000806000806000806000600b88815481106109de576109de6131c4565b6000918252602090912060079091020154600b80546001600160a01b03909216918a908110610a0f57610a0f6131c4565b906000526020600020906007020160020154600b8a81548110610a3457610a346131c4565b906000526020600020906007020160010160009054906101000a90046001600160a01b0316600b8b81548110610a6c57610a6c6131c4565b906000526020600020906007020160040154600b8c81548110610a9157610a916131c4565b906000526020600020906007020160050154600b8d81548110610ab657610ab66131c4565b906000526020600020906007020160030154600b8e81548110610adb57610adb6131c4565b6000918252602090912060079091020160060154959e949d50929b509099509750955061ffff9091169350915050565b610b1361203b565b6103e88261ffff161115610b695760405162461bcd60e51b815260206004820152601860248201527f7365743a20696e76616c6964206465706f73697420666565000000000000000060448201526064016107bf565b8215610b7c57610b77610f96565b610b85565b610b8585612101565b83600b8681548110610b9957610b996131c4565b906000526020600020906007020160020154600d54610bb89190613229565b610bc29190613270565b600d8190555083600b8681548110610bdc57610bdc6131c4565b90600052602060002090600702016002018190555081600b8681548110610c0557610c056131c4565b906000526020600020906007020160060160006101000a81548161ffff021916908361ffff16021790555080600b8681548110610c4457610c446131c4565b60009182526020918290206007919091020160010180546001600160a01b0319166001600160a01b039384161790556040805187815261ffff8616928101929092529183169187917f86314aa8d1d923d1298345614250068b896dc84cd630faa7dd6e6d7f76c9674d910160405180910390a35050505050565b610cc661203b565b600580546001600160a01b0319166001600160a01b0383169081179091556040519081527f5c2487322c17aee99ba5d06992e42fbd812b6a7c3e80dc1ee04d2ad4ac2c96339060200161070e565b60006107266001836123d0565b610d2c82823361072c565b5050565b610d3861203b565b8015610d4657610d46610f96565b610d2c826123f2565b610d576120a8565b610d6081612101565b610d6a6001600455565b50565b610d756120a8565b6000600b8281548110610d8a57610d8a6131c4565b60009182526020808320858452600c82526040808520338652909252908320600792909202016003810180548354858555600185018690558254939650939490939283929190610ddb908490613229565b90915550508354610df6906001600160a01b03163383611fc1565b60018401546001600160a01b031615610e79576001840154604051630386199160e11b81526001600160a01b039091169063070c332290610e469088903390819060009081908a9060040161323c565b600060405180830381600087803b158015610e6057600080fd5b505af1158015610e74573d6000803e3d6000fd5b505050505b604051818152859033907fbb757047c2b5f3974fe26b7c10f732e7bce710b0952a71082702781e62ae05959060200160405180910390a350505050610d6a6001600455565b610ed16003678ac7230489e80000613207565b81565b610edc61203b565b828114610f1c5760405162461bcd60e51b815260206004820152600e60248201526d0c2e4e4c2f240dad2e6dac2e8c6d60931b60448201526064016107bf565b60005b83811015610f8f57610f7d858583818110610f3c57610f3c6131c4565b9050602002016020810190610f519190613010565b848484818110610f6357610f636131c4565b9050602002016020810190610f789190612f18565b61248b565b80610f8781613283565b915050610f1f565b5050505050565b600b5460005b81811015610d2c57610fad81612101565b610fb681613283565b9050610f9c565b610fc561203b565b610d6a8161258d565b610fd661203b565b610fe060006126a2565b565b610fea6120a8565b60035460ff168015610ffc5750333214155b156110565761100a33610d14565b6110565760405162461bcd60e51b815260206004820181905260248201527f636865636b57686974656c6973743a206e6f7420696e2077686974656c69737460448201526064016107bf565b600081116110945760405162461bcd60e51b815260206004820152600b60248201526a0616d6f756e7420697320360ac1b60448201526064016107bf565b6110c96001600160a01b037f0000000000000000000000000000000000000000000000000000000000000000163330846126fd565b80600860008282546110db9190613270565b9250508190555080600960008282546110f49190613270565b909155505060405181815233907f3450aa401d6d51d32bd4e94a195c833ee47070b0af418bfc91e88b6c53c4f0289060200160405180910390a2610d6a6001600455565b600054610100900460ff16158080156111585750600054600160ff909116105b806111725750303b158015611172575060005460ff166001145b6111d55760405162461bcd60e51b815260206004820152602e60248201527f496e697469616c697a61626c653a20636f6e747261637420697320616c72656160448201526d191e481a5b9a5d1a585b1a5e995960921b60648201526084016107bf565b6000805460ff1916600117905580156111f8576000805461ff0019166101001790555b61120061203b565b604051632f380b3560e01b81527f000000000000000000000000000000000000000000000000000000000000000060048201526000907f00000000000000000000000000000000000000000000000000000000000000006001600160a01b031690632f380b3590602401608060405180830381865afa158015611287573d6000803e3d6000fd5b505050506040513d601f19601f820116820180604052508101906112ab919061329c565b50506040516370a0823160e01b81523360048201529192508291600091506001600160a01b038316906370a0823190602401602060405180830381865afa1580156112fa573d6000803e3d6000fd5b505050506040513d601f19601f8201168201806040525081019061131e91906132db565b9050806000036113705760405162461bcd60e51b815260206004820152601860248201527f4d617374657241706556323a206261642062616c616e6365000000000000000060448201526064016107bf565b6113856001600160a01b0383163330846126fd565b60405163095ea7b360e01b81526001600160a01b037f0000000000000000000000000000000000000000000000000000000000000000811660048301526024820183905283169063095ea7b3906044016020604051808303816000875af11580156113f4573d6000803e3d6000fd5b505050506040513d601f19601f8201168201806040525081019061141891906132f4565b50604051631c57762b60e31b81527f00000000000000000000000000000000000000000000000000000000000000006004820152602481018290527f00000000000000000000000000000000000000000000000000000000000000006001600160a01b03169063e2bbb15890604401600060405180830381600087803b1580156114a157600080fd5b505af11580156114b5573d6000803e3d6000fd5b505050505050508015610d6a576000805461ff0019169055604051600181527f7f26b83ff96e1f2b6a682f133852f6798a09c465da95921460cefb38474024989060200161070e565b600a546001600160a01b031633148061153957506000546201000090046001600160a01b03166001600160a01b0316336001600160a01b0316145b6115855760405162461bcd60e51b815260206004820152601860248201527f736574466565416464726573733a20464f5242494444454e000000000000000060448201526064016107bf565b6001600160a01b0381166115db5760405162461bcd60e51b815260206004820152601960248201527f736574466565416464726573733a20616464726573732830290000000000000060448201526064016107bf565b600a80546001600160a01b0319166001600160a01b03831690811790915560405133907fd44190acf9d04bdb5d3a1aafff7e6dee8b40b93dfb8c5d3f0eea4b9f4539c3f790600090a350565b60006116338383613229565b9392505050565b6116426120a8565b60035460ff1680156116545750333214155b156116ae5761166233610d14565b6116ae5760405162461bcd60e51b815260206004820181905260248201527f636865636b57686974656c6973743a206e6f7420696e2077686974656c69737460448201526064016107bf565b6000600b84815481106116c3576116c36131c4565b60009182526020808320878452600c825260408085206001600160a01b038816865290925290832060079290920201600381015490935090918061170688612101565b83541561175257600184015460058601548554670de0b6b3a76400009161172c916131f0565b6117369190613207565b6117409190613229565b9050801561175257611752868261232a565b86156118ea5784546040516370a0823160e01b81523060048201526001600160a01b039091169060009082906370a0823190602401602060405180830381865afa1580156117a4573d6000803e3d6000fd5b505050506040513d601f19601f820116820180604052508101906117c891906132db565b90506117df6001600160a01b03831633308c6126fd565b6040516370a0823160e01b815230600482015281906001600160a01b038416906370a0823190602401602060405180830381865afa158015611825573d6000803e3d6000fd5b505050506040513d601f19601f8201168201806040525081019061184991906132db565b6118539190613229565b600688015490945061ffff16156118b35760068701546000906127109061187e9061ffff16876131f0565b6118889190613207565b600a549091506118a5906001600160a01b03858116911683611fc1565b6118af8186613229565b9450505b838660000160008282546118c79190613270565b92505081905550838760030160008282546118e29190613270565b909155505050505b60018501546001600160a01b03161561196c5760018501548454604051630386199160e11b81526001600160a01b039092169163070c332291611939918c918b91829188918b9060040161323c565b600060405180830381600087803b15801561195357600080fd5b505af1158015611967573d6000803e3d6000fd5b505050505b60058501548454670de0b6b3a764000091611986916131f0565b6119909190613207565b600185015560405182815288906001600160a01b038816907f90890809c654f11d6e72a28fa60149770a0d11ec6c92319d6ceb2bb0a4ea1a159060200160405180910390a3505050505061095b6001600455565b60006119f0600161273b565b905090565b600080600b8481548110611a0b57611a0b6131c4565b600091825260208083206040805160e081018252600790940290910180546001600160a01b039081168552600180830154821686860152600283015486850152600383015460608701908152600484015460808801908152600585015460a0890190815260069095015461ffff1660c08901528c8952600c8752858920938c168952928652968490208451808601909552805485520154938301939093525193519151929450929142118015611ac057508015155b8015611acd5750600d5415155b15611b3e576000611ae2856080015142611627565b90506000600d54866040015160065484611afc91906131f0565b611b0691906131f0565b611b109190613207565b905082611b25670de0b6b3a7640000836131f0565b611b2f9190613207565b611b399085613270565b935050505b60208301518351670de0b6b3a764000090611b5a9085906131f0565b611b649190613207565b611b6e9190613229565b979650505050505050565b611b816120a8565b611b89612745565b610fe06001600455565b611b9b61203b565b6001600160a01b0384166000908152600e6020526040902054849060ff1615611c065760405162461bcd60e51b815260206004820152601960248201527f6e6f6e4475706c6963617465643a206475706c6963617465640000000000000060448201526064016107bf565b6103e88361ffff161115611c5c5760405162461bcd60e51b815260206004820152601860248201527f6164643a20696e76616c6964206465706f73697420666565000000000000000060448201526064016107bf565b8315611c6a57611c6a610f96565b600042905086600d6000828254611c819190613270565b925050819055506001600e6000886001600160a01b03166001600160a01b0316815260200190815260200160002060006101000a81548160ff021916908315150217905550600b6040518060e00160405280886001600160a01b03168152602001856001600160a01b0316815260200189815260200160008152602001838152602001600081526020018661ffff16815250908060018154018082558091505060019003906000526020600020906007020160009091909190915060008201518160000160006101000a8154816001600160a01b0302191690836001600160a01b0316021790555060208201518160010160006101000a8154816001600160a01b0302191690836001600160a01b0316021790555060408201518160020155606082015181600301556080820151816004015560a0820151816005015560c08201518160060160006101000a81548161ffff021916908361ffff1602179055505050826001600160a01b0316866001600160a01b03166001600b80549050611e099190613229565b604080518b815261ffff891660208201527fc22f9ee3fed56a1a3f7b694e3202f7f4ada722438be846c67ebb439e27c01b02910160405180910390a450505050505050565b610d2c82823361163a565b6005546001600160a01b03163314611ea75760405162461bcd60e51b81526020600482015260116024820152703737ba103832b73234b7339037bbb732b960791b60448201526064016107bf565b60055460405163f2fde38b60e01b81526001600160a01b0391821660048201527f00000000000000000000000000000000000000000000000000000000000000009091169063f2fde38b90602401600060405180830381600087803b158015611f0f57600080fd5b505af1158015611f23573d6000803e3d6000fd5b5050600580546001600160a01b03191690555050565b611f4161203b565b6001600160a01b038116611fa65760405162461bcd60e51b815260206004820152602660248201527f4f776e61626c653a206e6577206f776e657220697320746865207a65726f206160448201526564647265737360d01b60648201526084016107bf565b610d6a816126a2565b611fb761203b565b610d2c828261248b565b6040516001600160a01b03831660248201526044810182905261095b90849063a9059cbb60e01b906064015b60408051601f198184030181529190526020810180516001600160e01b03166001600160e01b031990931692909217909152612b2f565b60606120338484600085612c01565b949350505050565b6000546001600160a01b0362010000909104163314610fe05760405162461bcd60e51b815260206004820181905260248201527f4f776e61626c653a2063616c6c6572206973206e6f7420746865206f776e657260448201526064016107bf565b60006116338383612cd1565b6002600454036120fa5760405162461bcd60e51b815260206004820152601f60248201527f5265656e7472616e637947756172643a207265656e7472616e742063616c6c0060448201526064016107bf565b6002600455565b6000600b8281548110612116576121166131c4565b9060005260206000209060070201905080600401544211612135575050565b600381015480158061214957506002820154155b1561215957504260049091015550565b6000612169836004015442611627565b426004850155600d54600285015460065492935060009261218a90856131f0565b61219491906131f0565b61219e9190613207565b9050806000036121af575050505050565b6008548111156121c1576121c1612745565b600754600854827f00000000000000000000000000000000000000000000000000000000000000006001600160a01b03166318160ddd6040518163ffffffff1660e01b8152600401602060405180830381865afa158015612226573d6000803e3d6000fd5b505050506040513d601f19601f8201168201806040525081019061224a91906132db565b6122549190613270565b61225e9190613229565b111561228b5761226c612745565b600854811061228b57506008546006541561228b5761228b60006123f2565b8261229e670de0b6b3a7640000836131f0565b6122a89190613207565b8460050160008282546122bb9190613270565b9250508190555080600860008282546122d49190613229565b909155505060048401546005850154604080519283526020830186905282015285907fcb7325664a4a3b7c7223eefc492a97ca4fdf94d46884621e5a8fae5a04b2b9d29060600160405180910390a25050505050565b60095481111561233c5761233c612745565b6009548111156123845750600980546000909155610d2c6001600160a01b037f0000000000000000000000000000000000000000000000000000000000000000168383611fc1565b80600960008282546123969190613229565b90915550610d2c90506001600160a01b037f0000000000000000000000000000000000000000000000000000000000000000168383611fc1565b6001600160a01b03811660009081526001830160205260408120541515611633565b6124056003678ac7230489e80000613207565b81111561244d5760405162461bcd60e51b81526020600482015260166024820152754d6f7265207468616e206d6178696d756d207261746560501b60448201526064016107bf565b600681905560405181815233907fe2492e003bbe8afa53088b406f0c1cb5d9e280370fc72a74cf116ffd343c4053906020015b60405180910390a250565b80156124ed5761249c600183612cfb565b6124e85760405162461bcd60e51b815260206004820152601760248201527f6164647265737320616c726561647920656e61626c656400000000000000000060448201526064016107bf565b612544565b6124f8600183612d10565b6125445760405162461bcd60e51b815260206004820152601860248201527f6164647265737320616c72656164792064697361626c6564000000000000000060448201526064016107bf565b816001600160a01b03167fd1f62536ea3034771c60bea487f2eee8006f7c2789214fd3d5ac1c3794a861e982604051612581911515815260200190565b60405180910390a25050565b7f00000000000000000000000000000000000000000000000000000000000000006001600160a01b03166318160ddd6040518163ffffffff1660e01b8152600401602060405180830381865afa1580156125eb573d6000803e3d6000fd5b505050506040513d601f19601f8201168201806040525081019061260f91906132db565b811161266b5760405162461bcd60e51b815260206004820152602560248201527f5570646174656420636170206973206c657373207468616e20746f74616c20736044820152647570706c7960d81b60648201526084016107bf565b600781905560405181815233907ff4c16f9d6734c0970e0a2583a589c46fd075f8670c738840e4222f3b9cf1b16190602001612480565b600080546001600160a01b038381166201000081810262010000600160b01b0319851617855560405193049190911692909183917f8be0079c531659141344cd1fd0a4f28419497f9722a3daafe3b4186f6b6457e091a35050565b6040516001600160a01b03808516602483015283166044820152606481018290526127359085906323b872dd60e01b90608401611fed565b50505050565b6000610726825490565b6040516370a0823160e01b81523060048201526000907f00000000000000000000000000000000000000000000000000000000000000006001600160a01b0316906370a0823190602401602060405180830381865afa1580156127ac573d6000803e3d6000fd5b505050506040513d601f19601f820116820180604052508101906127d091906132db565b604051631c57762b60e31b81527f00000000000000000000000000000000000000000000000000000000000000006004820152600060248201529091507f00000000000000000000000000000000000000000000000000000000000000006001600160a01b03169063e2bbb15890604401600060405180830381600087803b15801561285b57600080fd5b505af115801561286f573d6000803e3d6000fd5b50506040516370a0823160e01b8152306004820152600092508391506001600160a01b037f000000000000000000000000000000000000000000000000000000000000000016906370a0823190602401602060405180830381865afa1580156128dc573d6000803e3d6000fd5b505050506040513d601f19601f8201168201806040525081019061290091906132db565b61290a9190613229565b9050806008600082825461291e9190613270565b9250508190555080600960008282546129379190613270565b9250508190555060007f00000000000000000000000000000000000000000000000000000000000000006001600160a01b03166318160ddd6040518163ffffffff1660e01b8152600401602060405180830381865afa15801561299e573d6000803e3d6000fd5b505050506040513d601f19601f820116820180604052508101906129c291906132db565b90506007548110158015612a57575060007f00000000000000000000000000000000000000000000000000000000000000006001600160a01b0316638aa285506040518163ffffffff1660e01b8152600401602060405180830381865afa158015612a31573d6000803e3d6000fd5b505050506040513d601f19601f82011682018060405250810190612a5591906132db565b115b1561095b57604051632fff30a360e11b8152600060048201527f00000000000000000000000000000000000000000000000000000000000000006001600160a01b031690635ffe614690602401600060405180830381600087803b158015612abe57600080fd5b505af1158015612ad2573d6000803e3d6000fd5b50505050600060075482612ae69190613229565b90508060095410612b1a578060086000828254612b039190613229565b90915550612b15905061dead8261232a565b612735565b60006008556009546127359061dead9061232a565b6000612b84826040518060400160405280602081526020017f5361666545524332303a206c6f772d6c6576656c2063616c6c206661696c6564815250856001600160a01b03166120249092919063ffffffff16565b80519091501561095b5780806020019051810190612ba291906132f4565b61095b5760405162461bcd60e51b815260206004820152602a60248201527f5361666545524332303a204552433230206f7065726174696f6e20646964206e6044820152691bdd081cdd58d8d9595960b21b60648201526084016107bf565b606082471015612c625760405162461bcd60e51b815260206004820152602660248201527f416464726573733a20696e73756666696369656e742062616c616e636520666f6044820152651c8818d85b1b60d21b60648201526084016107bf565b600080866001600160a01b03168587604051612c7e9190613335565b60006040518083038185875af1925050503d8060008114612cbb576040519150601f19603f3d011682016040523d82523d6000602084013e612cc0565b606091505b5091509150611b6e87838387612d25565b6000826000018281548110612ce857612ce86131c4565b9060005260206000200154905092915050565b6000611633836001600160a01b038416612d9e565b6000611633836001600160a01b038416612ded565b60608315612d94578251600003612d8d576001600160a01b0385163b612d8d5760405162461bcd60e51b815260206004820152601d60248201527f416464726573733a2063616c6c20746f206e6f6e2d636f6e747261637400000060448201526064016107bf565b5081612033565b6120338383612ee0565b6000818152600183016020526040812054612de557508154600181810184556000848152602080822090930184905584548482528286019093526040902091909155610726565b506000610726565b60008181526001830160205260408120548015612ed6576000612e11600183613229565b8554909150600090612e2590600190613229565b9050818114612e8a576000866000018281548110612e4557612e456131c4565b9060005260206000200154905080876000018481548110612e6857612e686131c4565b6000918252602080832090910192909255918252600188019052604090208390555b8554869080612e9b57612e9b613351565b600190038181906000526020600020016000905590558560010160008681526020019081526020016000206000905560019350505050610726565b6000915050610726565b815115612ef05781518083602001fd5b8060405162461bcd60e51b81526004016107bf9190613367565b8015158114610d6a57600080fd5b600060208284031215612f2a57600080fd5b813561163381612f0a565b600060208284031215612f4757600080fd5b5035919050565b6001600160a01b0381168114610d6a57600080fd5b600080600060608486031215612f7857600080fd5b83359250602084013591506040840135612f9181612f4e565b809150509250925092565b803561ffff81168114612fae57600080fd5b919050565b600080600080600060a08688031215612fcb57600080fd5b85359450602086013593506040860135612fe481612f0a565b9250612ff260608701612f9c565b9150608086013561300281612f4e565b809150509295509295909350565b60006020828403121561302257600080fd5b813561163381612f4e565b6000806040838503121561304057600080fd5b50508035926020909101359150565b6000806040838503121561306257600080fd5b82359150602083013561307481612f0a565b809150509250929050565b60008083601f84011261309157600080fd5b50813567ffffffffffffffff8111156130a957600080fd5b6020830191508360208260051b85010111156130c457600080fd5b9250929050565b600080600080604085870312156130e157600080fd5b843567ffffffffffffffff808211156130f957600080fd5b6131058883890161307f565b9096509450602087013591508082111561311e57600080fd5b5061312b8782880161307f565b95989497509550505050565b6000806040838503121561314a57600080fd5b82359150602083013561307481612f4e565b600080600080600060a0868803121561317457600080fd5b85359450602086013561318681612f4e565b93506040860135612fe481612f0a565b600080604083850312156131a957600080fd5b82356131b481612f4e565b9150602083013561307481612f0a565b634e487b7160e01b600052603260045260246000fd5b634e487b7160e01b600052601160045260246000fd5b8082028115828204841417610726576107266131da565b60008261322457634e487b7160e01b600052601260045260246000fd5b500490565b81810381811115610726576107266131da565b9586526001600160a01b0394851660208701529290931660408501526060840152608083019190915260a082015260c00190565b80820180821115610726576107266131da565b600060018201613295576132956131da565b5060010190565b600080600080608085870312156132b257600080fd5b84516132bd81612f4e565b60208601516040870151606090970151919890975090945092505050565b6000602082840312156132ed57600080fd5b5051919050565b60006020828403121561330657600080fd5b815161163381612f0a565b60005b8381101561332c578181015183820152602001613314565b50506000910152565b60008251613347818460208701613311565b9190910192915050565b634e487b7160e01b600052603160045260246000fd5b6020815260008251806020840152613386816040850160208701613311565b601f01601f1916919091016040019291505056fea2646970667358221220555c81ae0590bfce98fe8c0efed06772abedafdbef3767ed575277fb2aee025864736f6c63430008110033",
  "source": "// SPDX-License-Identifier: GPL-3.0\npragma solidity 0.8.17;\n\n/*\n  ______                     ______                                 \n /      \\                   /      \\                                \n|  \\ ______   ______ |  \\__   __   __  ______   ______  \n| __| /      \\ /      \\| ___\\  \\ |  \\ |  \\|      \\ /      \\ \n|       \\  \\\\    \\|  |  |  \\\\  \\\n|    |      _\\\\  |  | /         | \n|   |  __/    \\__|  _/ _/    __/ \n|   |      \\     \\\\    \\      \\         \n \\   \\   \\ \\  \\\\  \\  \n         |                                              |       \n         |                                              |       \n          \\                                              \\         \n * App:             https://ApeSwap.finance\n * Medium:          https://ape-swap.medium.com\n * Twitter:         https://twitter.com/ape_swap\n * Telegram:        https://t.me/ape_swap\n * Announcements:   https://t.me/ape_swap_news\n * Reddit:          https://reddit.com/r/ApeSwap\n * Instagram:       https://instagram.com/ApeSwap.finance\n * GitHub:          https://github.com/ApeSwapFinance\n */\n\nimport \"@openzeppelin/contracts/token/ERC20/IERC20.sol\";\nimport \"@openzeppelin/contracts/token/ERC20/utils/SafeERC20.sol\";\nimport \"@openzeppelin/contracts-upgradeable/proxy/utils/Initializable.sol\";\nimport \"@openzeppelin/contracts/access/Ownable.sol\";\nimport \"@openzeppelin/contracts/security/ReentrancyGuard.sol\";\nimport \"@ape.swap/contracts/contracts/v0.8/access/ContractWhitelist.sol\";\nimport \"./interfaces/IRewarderV2.sol\";\nimport \"./interfaces/IMasterApeV2.sol\";\nimport \"./interfaces/IMasterApe.sol\";\n\n/// @notice The (older) MasterApe contract gives out a constant number of BANANA tokens per block.\n/// It is the only address with minting rights for BANANA.\n/// The idea for this MasterApeV2 (MAV2) contract is therefore to be the owner of a dummy token\n/// that is deposited into the MasterApeV1 (MAV1) contract.\n/// The allocation point for this pool on MAV1 is the total allocation point for all pools that receive incentives.\ncontract MasterApeV2 is IMasterApeV2, Initializable, Ownable, ContractWhitelist, ReentrancyGuard {\n    using SafeERC20 for IERC20;\n\n    /// @notice Info of each user's pool deposit\n    struct UserInfo {\n        uint256 amount; // How many tokens the user has provided\n        uint256 rewardDebt; // Reward debt. See explanation below\n        //\n        // We do some fancy math here. Basically, any point in time, the amount of BANANAs\n        // entitled to a user but is pending to be distributed is:\n        //\n        //   pending reward = (user.amount * pool.accBananaPerShare) - user.rewardDebt\n        //\n        // Whenever a user deposits or withdraws tokens to a pool. Here's what happens:\n        //   1. The pool's `accBananaPerShare` (and `lastRewardBlock`) gets updated.\n        //   2. User receives the pending reward sent to his/her address.\n        //   3. User's `amount` gets updated.\n        //   4. User's `rewardDebt` gets updated.\n    }\n\n    /// @notice Info of each pool.\n    struct PoolInfo {\n        IERC20 stakeToken; // Address of stake token contract.\n        IRewarderV2 rewarder; // Address of rewarder contract.\n        uint256 allocPoint; // How many allocation points assigned to this pool. BANANAs to distribute per block.\n        uint256 totalStaked; // Amount of tokens staked in given pool\n        uint256 lastRewardTime; // Last timestamp BANANAs distribution occurs.\n        uint256 accBananaPerShare; // Accumulated BANANAs per share, times SCALING_FACTOR. Check code.\n        uint16 depositFeeBP; // Deposit fee in basis points\n    }\n\n    /// @notice Address which is eligible to accept ownership of the MasterApeV1. Set by the current owner.\n    address public pendingMasterApeV1Owner;\n    /// @notice Address of MAV1 contract.\n    IMasterApe public immutable masterApe;\n    /// @notice The pool id of the MAV2 mock token pool in MAV1.\n    uint256 public immutable masterPid;\n    /// @notice The BANANA TOKEN!\n    IERC20 public immutable banana;\n    ///  @notice 10 BANANAs per block in MAV1\n    uint256 public constant MASTER_APE_BANANA_PER_BLOCK = 10 ether;\n    /// @notice BNB Chain has 3 second block times at the time of deployment\n    uint256 public constant MASTER_APE_BANANA_PER_SECOND_ESTIMATE = MASTER_APE_BANANA_PER_BLOCK / 3;\n    uint256 public bananaPerSecond;\n    uint256 public hardCap = 420000000 ether;\n    /// @notice keeps track of unallocated BANANA in the contract\n    uint256 public unallocatedBanana;\n    /// @notice keeps track of the reward BANANA balance in the contract\n    uint256 public availableBananaRewards;\n\n    /// @notice Deposit Fee address\n    address public feeAddress;\n    /// @dev Max deposit fee is 10% or 1000 BP\n    uint256 public constant MAX_DEPOSIT_FEE_BP = 1000;\n    uint256 private constant DEPOSIT_FEE_BP = 10000;\n    /// @dev Scaling this up increases support for high supply tokens\n    uint256 private constant SCALING_FACTOR = 1e18; \n\n    /// @notice Info of each pool.\n    PoolInfo[] public poolInfo;\n\n    /// @notice Info of each user that stakes tokens.\n    mapping(uint256 => mapping(address => UserInfo)) public userInfo;\n    /// @notice Total allocation points. Must be the sum of all allocation points in all pools.\n    uint256 public totalAllocPoint;\n    /// @dev tracks existing pools to avoid duplicates\n    mapping(IERC20 => bool) public poolExistence;\n\n    event Deposit(address indexed user, uint256 indexed pid, uint256 amount);\n    event Withdraw(address indexed user, uint256 indexed pid, uint256 amount);\n    event EmergencyWithdraw(address indexed user, uint256 indexed pid, uint256 amount);\n    event SetFeeAddress(address indexed user, address indexed newAddress);\n    event DepositBananaRewards(address indexed user, uint256 amount);\n    event UpdateEmissionRate(address indexed user, uint256 bananaPerSecond);\n    event UpdateHardCap(address indexed user, uint256 hardCap);\n\n    event LogPoolAddition(\n        uint256 indexed pid,\n        uint256 allocPoint,\n        IERC20 indexed stakeToken,\n        uint16 depositFee,\n        IRewarderV2 indexed rewarder\n    );\n    event LogSetPool(uint256 indexed pid, uint256 allocPoint, uint16 depositFee, IRewarderV2 indexed rewarder);\n    event LogUpdatePool(uint256 indexed pid, uint256 lastRewardBlock, uint256 stakeSupply, uint256 accBananaPerShare);\n    event SetPendingMasterApeV1Owner(address pendingMasterApeOwner);\n\n    /// @dev modifier to avoid adding duplicate pools\n    modifier nonDuplicated(IERC20 _stakeToken) {\n        require(poolExistence[_stakeToken] == false, \"nonDuplicated: duplicated\");\n        _;\n    }\n\n    /// @param banana_ the address of the BANANA token\n    /// @param masterApe_ the address of MasterApe\n    /// @param masterPid_ the pool id that will control all allocations\n    /// @param bananaPerSecond_ the emission rates by second\n    constructor(\n        IERC20 banana_,\n        IMasterApe masterApe_,\n        uint256 masterPid_,\n        uint256 bananaPerSecond_\n    ) {\n        banana = banana_;\n        masterApe = masterApe_;\n        masterPid = masterPid_;\n        _updateEmissionRate(bananaPerSecond_);\n        /// @dev init banana pool with an allocation of 0\n        add(0, banana_, false, 0, IRewarderV2(address(0)));\n    }\n\n    /// @notice Deposits a dummy token to `masterApe` MAV1.\n    /// This is required because MAV1 holds the minting permission of BANANA.\n    /// It will transfer all the `dummyToken` in the tx sender address.\n    /// The allocation point for the dummy pool on MAV1 should be equal to the total amount of allocPoint.\n    function initialize() external initializer onlyOwner {\n        (address lpToken, , , ) = masterApe.getPoolInfo(masterPid);\n        IERC20 dummyToken = IERC20(lpToken);\n        uint256 balance = dummyToken.balanceOf(msg.sender);\n        require(balance != 0, \"MasterApeV2: bad balance\");\n        dummyToken.safeTransferFrom(msg.sender, address(this), balance);\n        dummyToken.approve(address(masterApe), balance);\n        masterApe.deposit(masterPid, balance);\n    }\n\n    /// @notice deposit tokens on behalf of sender\n    /// @dev depositTo is nonReentrant\n    /// @param _pid pool id in which to make deposit\n    /// @param _amount amount of tokens to deposit\n    function deposit(uint256 _pid, uint256 _amount) external {\n        depositTo(_pid, _amount, msg.sender);\n    }\n\n    /// @notice withdraw tokens on behalf of sender\n    /// @dev withdrawTo is nonReentrant\n    /// @param _pid pool id in which to make withdraw\n    /// @param _amount amount of tokens to withdraw\n    function withdraw(uint256 _pid, uint256 _amount) external {\n        withdrawTo(_pid, _amount, msg.sender);\n    }\n\n    /// @notice Update reward variables of the given pool to be up-to-date.\n    function updatePool(uint256 _pid) external nonReentrant {\n        _updatePool(_pid);\n    }\n\n    /// @notice Harvests BANANA from `masterApe` MAV1 and pool `masterPid` to MAV2.\n    function harvestFromMasterApe() external nonReentrant {\n        _harvestFromMasterApe();\n    }\n\n    /// @notice Withdraw without caring about rewards. EMERGENCY ONLY.\n    function emergencyWithdraw(uint256 _pid) external nonReentrant {\n        PoolInfo storage pool = poolInfo[_pid];\n        UserInfo storage user = userInfo[_pid][msg.sender];\n        uint256 startingPoolTotalStaked = pool.totalStaked;\n        uint256 amount = user.amount;\n        user.amount = 0;\n        user.rewardDebt = 0;\n        pool.totalStaked -= amount;\n        pool.stakeToken.safeTransfer(msg.sender, amount);\n        // Interactions\n        if (address(pool.rewarder) != address(0)) {\n            pool.rewarder.onReward(_pid, msg.sender, msg.sender, 0, 0, startingPoolTotalStaked);\n        }\n        emit EmergencyWithdraw(msg.sender, _pid, amount);\n    }\n\n    /// @notice updates the deposit fee receiver\n    /// @param _feeAddress address that receives the fee\n    function setFeeAddress(address _feeAddress) external {\n        require(msg.sender == feeAddress || msg.sender == owner(), \"setFeeAddress: FORBIDDEN\");\n        require(_feeAddress != address(0), \"setFeeAddress: address(0)\");\n        feeAddress = _feeAddress;\n        emit SetFeeAddress(msg.sender, _feeAddress);\n    }\n\n    /// @notice updates the emission rate\n    /// @dev reverts if above 3.33 per second\n    /// @param _bananaPerSecond how many BANANA per second\n    /// @param _withUpdate flag to call massUpdatePool before update\n    function updateEmissionRate(uint256 _bananaPerSecond, bool _withUpdate) external onlyOwner {\n        if(_withUpdate) {\n            massUpdatePools();\n        }\n        _updateEmissionRate(_bananaPerSecond);\n    }\n\n    /// @notice Set an address as the pending admin of the MasterApe. The address must accept to take ownership.\n    /// @param _pendingMasterApeV1Owner Address to set as the pending owner of the MasterApe.\n    function setPendingMasterApeV1Owner(address _pendingMasterApeV1Owner) external onlyOwner {\n        pendingMasterApeV1Owner = _pendingMasterApeV1Owner;\n        emit SetPendingMasterApeV1Owner(pendingMasterApeV1Owner);\n    }\n\n    /// @notice The pendingMasterApeOwner takes ownership through this call\n    /// @dev Transferring MasterApe ownership away from this contract can brick this contract.\n    function acceptMasterApeV1Ownership() external {\n        require(msg.sender == pendingMasterApeV1Owner, \"not pending owner\");\n        masterApe.transferOwnership(pendingMasterApeV1Owner);\n        pendingMasterApeV1Owner = address(0);\n    }\n\n    /// @notice updates the hard cap\n    /// @dev reverts if less than current\n    /// @param _hardCap the new hard cap\n    function updateHardCap(uint256 _hardCap) external onlyOwner {\n        _updateHardCap(_hardCap);\n    }\n\n    /// @notice returns the amount of pools created\n    function poolLength() external view returns (uint256) {\n        return poolInfo.length;\n    }\n\n    /// @notice View function to see pending BANANAs on frontend.\n    /// @param _pid PID on which to check pending BANANA\n    /// @param _user address of which balance is being checked on\n    function pendingBanana(uint256 _pid, address _user) external view returns (uint256) {\n        PoolInfo memory pool = poolInfo[_pid];\n        UserInfo memory user = userInfo[_pid][_user];\n        uint256 accBananaPerShare = pool.accBananaPerShare;\n        uint256 stakeSupply = pool.totalStaked;\n        if (block.timestamp > pool.lastRewardTime && stakeSupply != 0 && totalAllocPoint != 0) {\n            uint256 multiplier = getMultiplier(pool.lastRewardTime, block.timestamp);\n            uint256 bananaReward = (multiplier * bananaPerSecond * pool.allocPoint) / totalAllocPoint;\n            accBananaPerShare += (bananaReward * SCALING_FACTOR) / stakeSupply;\n        }\n        return ((user.amount * accBananaPerShare) / SCALING_FACTOR) - user.rewardDebt;\n    }\n\n    /// @notice Adds a new pool into the Master Ape\n    /// @param _allocPoint allocation points of new pool\n    /// @param _stakeToken stake token of new pool. It cannot be duplicated\n    /// @param _withUpdate if we should mass update all existing pools\n    /// @param _depositFeeBP the basis points of the deposit fee\n    /// @param _rewarder A rewarder compliant smart contract\n    function add(\n        uint256 _allocPoint,\n        IERC20 _stakeToken,\n        bool _withUpdate,\n        uint16 _depositFeeBP,\n        IRewarderV2 _rewarder\n    ) public onlyOwner nonDuplicated(_stakeToken) {\n        require(_depositFeeBP <= MAX_DEPOSIT_FEE_BP, \"add: invalid deposit fee\");\n\n        if (_withUpdate) {\n            massUpdatePools();\n        }\n\n        uint256 lastRewardTime = block.timestamp;\n        totalAllocPoint += _allocPoint;\n        poolExistence[_stakeToken] = true;\n\n        poolInfo.push(\n            PoolInfo({\n                stakeToken: _stakeToken,\n                rewarder: _rewarder,\n                allocPoint: _allocPoint,\n                lastRewardTime: lastRewardTime,\n                accBananaPerShare: 0,\n                totalStaked: 0,\n                depositFeeBP: _depositFeeBP\n            })\n        );\n\n        emit LogPoolAddition(poolInfo.length - 1, _allocPoint, _stakeToken, _depositFeeBP, _rewarder);\n    }\n\n    /// @notice  Update the given pool's BANANA allocation point and deposit fee. Can only be called by the owner.\n    /// @param _pid id of pool to update\n    /// @param _allocPoint allocation points of new pool\n    /// @param _withUpdate if we should mass update all existing pools\n    /// @param _depositFeeBP the basis points of the deposit fee\n    /// @param _rewarder A rewarder compliant smart contract\n    function set(\n        uint256 _pid,\n        uint256 _allocPoint,\n        bool _withUpdate,\n        uint16 _depositFeeBP,\n        IRewarderV2 _rewarder\n    ) external onlyOwner {\n        require(_depositFeeBP <= MAX_DEPOSIT_FEE_BP, \"set: invalid deposit fee\");\n        if (_withUpdate) {\n            massUpdatePools();\n        } else {\n            _updatePool(_pid);\n        }\n\n        totalAllocPoint = (totalAllocPoint - poolInfo[_pid].allocPoint) + _allocPoint;\n        poolInfo[_pid].allocPoint = _allocPoint;\n        poolInfo[_pid].depositFeeBP = _depositFeeBP;\n        poolInfo[_pid].rewarder = _rewarder;\n\n        emit LogSetPool(_pid, _allocPoint, _depositFeeBP, _rewarder);\n    }\n\n    /// @notice Update reward variables for all pools. Be careful of gas spending!\n    function massUpdatePools() public {\n        uint256 length = poolInfo.length;\n        for (uint256 pid = 0; pid < length; ++pid) {\n            _updatePool(pid);\n        }\n    }\n\n    /// @notice Deposit tokens to MasterApe for BANANA allocation.\n    /// @param _pid pool id in which to make deposit\n    /// @param _amount amount of tokens to deposit\n    /// @param _to who receives the staked amount\n    function depositTo(\n        uint256 _pid,\n        uint256 _amount,\n        address _to\n    ) public nonReentrant checkEOAorWhitelist {\n        PoolInfo storage pool = poolInfo[_pid];\n        UserInfo storage user = userInfo[_pid][_to];\n        uint256 startingPoolTotalStaked = pool.totalStaked;\n        uint256 finalDepositAmount;\n        uint256 pending;\n        _updatePool(_pid);\n        if (user.amount > 0) {\n            pending = ((user.amount * pool.accBananaPerShare) / SCALING_FACTOR) - user.rewardDebt;\n            if (pending > 0) {\n                _safeBananaTransfer(_to, pending);\n            }\n        }\n        if (_amount > 0) {\n            // Prefetch balance to account for transfer fees\n            IERC20 stakeToken = pool.stakeToken;\n            uint256 preStakeBalance = stakeToken.balanceOf(address(this));\n            stakeToken.safeTransferFrom(msg.sender, address(this), _amount);\n            finalDepositAmount = stakeToken.balanceOf(address(this)) - preStakeBalance;\n\n            if (pool.depositFeeBP > 0) {\n                uint256 depositFee = (finalDepositAmount * pool.depositFeeBP) / DEPOSIT_FEE_BP;\n                stakeToken.safeTransfer(feeAddress, depositFee);\n                finalDepositAmount -= depositFee;\n            }\n\n            user.amount += finalDepositAmount;\n            pool.totalStaked += finalDepositAmount;\n        }\n        // Interactions\n        if (address(pool.rewarder) != address(0)) {\n            pool.rewarder.onReward(_pid, _to, _to, pending, user.amount, startingPoolTotalStaked);\n        }\n        user.rewardDebt = (user.amount * pool.accBananaPerShare) / SCALING_FACTOR;\n        emit Deposit(_to, _pid, finalDepositAmount);\n    }\n\n    /// @notice Withdraw tokens from MasterApe.\n    /// @param _pid pool id in which to make withdraw\n    /// @param _amount amount of tokens to withdraw\n    /// @param _to address who receives the withdrawn amount\n    function withdrawTo(\n        uint256 _pid,\n        uint256 _amount,\n        address _to\n    ) public nonReentrant {\n        PoolInfo storage pool = poolInfo[_pid];\n        UserInfo storage user = userInfo[_pid][msg.sender];\n        uint256 startingPoolTotalStaked = pool.totalStaked;\n        require(user.amount >= _amount, \"withdraw: insufficient\");\n        _updatePool(_pid);\n        uint256 pending = ((user.amount * pool.accBananaPerShare) / SCALING_FACTOR) - user.rewardDebt;\n        if (pending > 0) {\n            _safeBananaTransfer(_to, pending);\n        }\n        if (_amount > 0) {\n            user.amount -= _amount;\n            pool.totalStaked -= _amount;\n            pool.stakeToken.safeTransfer(_to, _amount);\n        }\n        // Interactions\n        if (address(pool.rewarder) != address(0)) {\n            pool.rewarder.onReward(_pid, msg.sender, _to, pending, user.amount, startingPoolTotalStaked);\n        }\n        user.rewardDebt = (user.amount * pool.accBananaPerShare) / SCALING_FACTOR;\n        emit Withdraw(msg.sender, _pid, _amount);\n    }\n\n    /// @notice Deposits BANANA from `masterApe` MAV1 and pool `masterPid` to MAV2.\n    /// @param _amount Amount of BANANA to add to BANANA rewards\n    function depositBananaRewards(uint256 _amount) external nonReentrant checkEOAorWhitelist {\n        require(_amount > 0, 'amount is 0');\n        banana.safeTransferFrom(msg.sender, address(this), _amount);\n        unallocatedBanana += _amount;\n        availableBananaRewards += _amount;\n        emit DepositBananaRewards(msg.sender, _amount);\n    }\n\n    /// @notice returns all pool info\n    function getPoolInfo(uint256 _pid)\n        public\n        view\n        returns (\n            address lpToken,\n            uint256 allocPoint,\n            IRewarderV2 rewarder,\n            uint256 lastRewardTime,\n            uint256 accBananaPerShare,\n            uint256 totalStaked,\n            uint16 depositFeeBP\n        )\n    {\n        return (\n            address(poolInfo[_pid].stakeToken),\n            poolInfo[_pid].allocPoint,\n            poolInfo[_pid].rewarder,\n            poolInfo[_pid].lastRewardTime,\n            poolInfo[_pid].accBananaPerShare,\n            poolInfo[_pid].totalStaked,\n            poolInfo[_pid].depositFeeBP\n        );\n    }\n\n    /// @notice Return reward multiplier over the given _from to _to block.\n    /// @param _from from what timestamp\n    /// @param _to to what timestamp\n    /// @return uint256\n    function getMultiplier(uint256 _from, uint256 _to) public pure returns (uint256) {\n        return _to - _from;\n    }\n\n    /// @dev Safe banana transfer function, just in case if rounding error causes pool to not have enough BANANAs.\n    function _safeBananaTransfer(address _to, uint256 _amount) internal {\n        if (_amount > availableBananaRewards) {\n            _harvestFromMasterApe();\n        }\n        /// @dev availableBananaRewards is updated inside harvestFromMasterApe()\n        if (_amount > availableBananaRewards) {\n            _amount = availableBananaRewards;\n            availableBananaRewards = 0;\n            banana.safeTransfer(_to, _amount);\n        } else {\n            availableBananaRewards -= _amount;\n            banana.safeTransfer(_to, _amount);\n        }\n    }\n\n    function _updateEmissionRate(uint256 _bananaPerSecond) private {\n        require(_bananaPerSecond <= MASTER_APE_BANANA_PER_SECOND_ESTIMATE, \"More than maximum rate\");\n        bananaPerSecond = _bananaPerSecond;\n        emit UpdateEmissionRate(msg.sender, _bananaPerSecond);\n    }\n\n    function _updateHardCap(uint256 _hardCap) private {\n        require(_hardCap > banana.totalSupply(), \"Updated cap is less than total supply\");\n        hardCap = _hardCap;\n        emit UpdateHardCap(msg.sender, _hardCap);\n    }\n\n    /// @notice Update reward variables of the given pool to be up-to-date.\n    function _updatePool(uint256 _pid) internal {\n        PoolInfo storage pool = poolInfo[_pid];\n        if (block.timestamp <= pool.lastRewardTime) {\n            return;\n        }\n        uint256 stakeSupply = pool.totalStaked;\n        if (stakeSupply == 0 || pool.allocPoint == 0) {\n            pool.lastRewardTime = block.timestamp;\n            return;\n        }\n        uint256 multiplier = getMultiplier(pool.lastRewardTime, block.timestamp);\n        pool.lastRewardTime = block.timestamp;\n        uint256 totalBanana = (multiplier * bananaPerSecond * pool.allocPoint) / totalAllocPoint;\n        if (totalBanana == 0) return;\n        if (totalBanana > unallocatedBanana) _harvestFromMasterApe();\n        /// @dev BANANA hard cap and emissions will be hit at separate times. This handles the emission rate.\n        if (banana.totalSupply() + totalBanana - unallocatedBanana > hardCap) {\n            // This is true when assigning more rewards than possible within the bounds of the hardcap\n            _harvestFromMasterApe();\n            // Make sure we have the latest number for unallocatedBanana before doing any crazy stuff\n            if (totalBanana >= unallocatedBanana) {\n                // This can only be true if emissions stopped\n                // (or if we are allocating more than 3.333 per second which should not be possible)\n                // See _updateEmissionRate\n                totalBanana = unallocatedBanana;\n                if (bananaPerSecond != 0) {\n                    // If we get here MasterApeV1 Emissions already stopped\n                    // we allocate the remainder unallocatedBanana and stop emissions on MAv2\n                    _updateEmissionRate(0);\n                }\n            }\n        }\n\n        pool.accBananaPerShare += (totalBanana * SCALING_FACTOR) / stakeSupply;\n        unallocatedBanana -= totalBanana;\n        emit LogUpdatePool(_pid, pool.lastRewardTime, stakeSupply, pool.accBananaPerShare);\n    }\n\n    /// @notice Harvests BANANA from `masterApe` MAV1 and pool `masterPid` to MAV2.\n    function _harvestFromMasterApe() internal {\n        uint256 beforeBananaBal = banana.balanceOf(address(this));\n        masterApe.deposit(masterPid, 0);\n        uint256 newBanana = banana.balanceOf(address(this)) - beforeBananaBal;\n        unallocatedBanana += newBanana;\n        availableBananaRewards += newBanana;\n\n        uint256 bananaTotalSupply = banana.totalSupply();\n        if (bananaTotalSupply >= hardCap && masterApe.BONUS_MULTIPLIER() > 0) {\n            /// @dev BANANA hard cap and emissions will be hit at separate times. This handles the hard cap.\n            masterApe.updateMultiplier(0);\n            uint256 surplus = bananaTotalSupply - hardCap;\n            if (availableBananaRewards >= surplus) {\n                unallocatedBanana -= surplus;\n                _safeBananaTransfer(0x000000000000000000000000000000000000dEaD, surplus);\n            } else {\n                /// @dev These are safeguards to avoid bricking the contract\n                /// nevertheless off-chain checks and interactions should make this case impossible\n                /// This happens when the hard-cap block is missed by so much\n                /// that the surplus in the dev wallet exceeds what this contract can burn by itself\n                unallocatedBanana = 0;\n                _safeBananaTransfer(0x000000000000000000000000000000000000dEaD, availableBananaRewards);\n            }\n        }\n    }\n}\n",
  "compiler": {
    "name": "solc",
    "version": "0.8.17+commit.8df45f5f.Emscripten.clang"
  },
  "schemaVersion": "3.4.10",
  "updatedAt": "2022-12-15T03:59:40.729Z",
  "devdoc": {
    "kind": "dev",
    "methods": {
      "acceptMasterApeV1Ownership()": {
        "details": "Transferring MasterApe ownership away from this contract can brick this contract."
      },
      "add(uint256,address,bool,uint16,address)": {
        "params": {
          "_allocPoint": "allocation points of new pool",
          "_depositFeeBP": "the basis points of the deposit fee",
          "_rewarder": "A rewarder compliant smart contract",
          "_stakeToken": "stake token of new pool. It cannot be duplicated",
          "_withUpdate": "if we should mass update all existing pools"
        }
      },
      "constructor": {
        "params": {
          "bananaPerSecond_": "the emission rates by second",
          "banana_": "the address of the BANANA token",
          "masterApe_": "the address of MasterApe",
          "masterPid_": "the pool id that will control all allocations"
        }
      },
      "deposit(uint256,uint256)": {
        "details": "depositTo is nonReentrant",
        "params": {
          "_amount": "amount of tokens to deposit",
          "_pid": "pool id in which to make deposit"
        }
      },
      "depositBananaRewards(uint256)": {
        "params": {
          "_amount": "Amount of BANANA to add to BANANA rewards"
        }
      },
      "depositTo(uint256,uint256,address)": {
        "params": {
          "_amount": "amount of tokens to deposit",
          "_pid": "pool id in which to make deposit",
          "_to": "who receives the staked amount"
        }
      },
      "getMultiplier(uint256,uint256)": {
        "params": {
          "_from": "from what timestamp",
          "_to": "to what timestamp"
        },
        "returns": {
          "_0": "uint256"
        }
      },
      "getWhitelistAtIndex(uint256)": {
        "params": {
          "_index": "Index to query"
        }
      },
      "isWhitelisted(address)": {
        "params": {
          "_address": "Address to query"
        }
      },
      "owner()": {
        "details": "Returns the address of the current owner."
      },
      "pendingBanana(uint256,address)": {
        "params": {
          "_pid": "PID on which to check pending BANANA",
          "_user": "address of which balance is being checked on"
        }
      },
      "renounceOwnership()": {
        "details": "Leaves the contract without owner. It will not be possible to call `onlyOwner` functions anymore. Can only be called by the current owner. NOTE: Renouncing ownership will leave the contract without an owner, thereby removing any functionality that is only available to the owner."
      },
      "set(uint256,uint256,bool,uint16,address)": {
        "params": {
          "_allocPoint": "allocation points of new pool",
          "_depositFeeBP": "the basis points of the deposit fee",
          "_pid": "id of pool to update",
          "_rewarder": "A rewarder compliant smart contract",
          "_withUpdate": "if we should mass update all existing pools"
        }
      },
      "setBatchContractWhitelist(address[],bool[])": {
        "params": {
          "_addresses": "Addressed to update on whitelist",
          "_enabled": "Set if the whitelist is enabled or disabled for each address passed"
        }
      },
      "setContractWhitelist(address,bool)": {
        "params": {
          "_address": "Address to update on whitelist",
          "_enabled": "Set if the whitelist is enabled or disabled"
        }
      },
      "setFeeAddress(address)": {
        "params": {
          "_feeAddress": "address that receives the fee"
        }
      },
      "setPendingMasterApeV1Owner(address)": {
        "params": {
          "_pendingMasterApeV1Owner": "Address to set as the pending owner of the MasterApe."
        }
      },
      "transferOwnership(address)": {
        "details": "Transfers ownership of the contract to a new account (`newOwner`). Can only be called by the current owner."
      },
      "updateEmissionRate(uint256,bool)": {
        "details": "reverts if above 3.33 per second",
        "params": {
          "_bananaPerSecond": "how many BANANA per second",
          "_withUpdate": "flag to call massUpdatePool before update"
        }
      },
      "updateHardCap(uint256)": {
        "details": "reverts if less than current",
        "params": {
          "_hardCap": "the new hard cap"
        }
      },
      "withdraw(uint256,uint256)": {
        "details": "withdrawTo is nonReentrant",
        "params": {
          "_amount": "amount of tokens to withdraw",
          "_pid": "pool id in which to make withdraw"
        }
      },
      "withdrawTo(uint256,uint256,address)": {
        "params": {
          "_amount": "amount of tokens to withdraw",
          "_pid": "pool id in which to make withdraw",
          "_to": "address who receives the withdrawn amount"
        }
      }
    },
    "stateVariables": {
      "MAX_DEPOSIT_FEE_BP": {
        "details": "Max deposit fee is 10% or 1000 BP"
      },
      "SCALING_FACTOR": {
        "details": "Scaling this up increases support for high supply tokens"
      },
      "poolExistence": {
        "details": "tracks existing pools to avoid duplicates"
      }
    },
    "version": 1
  },
  "userdoc": {
    "kind": "user",
    "methods": {
      "MASTER_APE_BANANA_PER_BLOCK()": {
        "notice": "10 BANANAs per block in MAV1"
      },
      "MASTER_APE_BANANA_PER_SECOND_ESTIMATE()": {
        "notice": "BNB Chain has 3 second block times at the time of deployment"
      },
      "acceptMasterApeV1Ownership()": {
        "notice": "The pendingMasterApeOwner takes ownership through this call"
      },
      "add(uint256,address,bool,uint16,address)": {
        "notice": "Adds a new pool into the Master Ape"
      },
      "availableBananaRewards()": {
        "notice": "keeps track of the reward BANANA balance in the contract"
      },
      "banana()": {
        "notice": "The BANANA TOKEN!"
      },
      "deposit(uint256,uint256)": {
        "notice": "deposit tokens on behalf of sender"
      },
      "depositBananaRewards(uint256)": {
        "notice": "Deposits BANANA from `masterApe` MAV1 and pool `masterPid` to MAV2."
      },
      "depositTo(uint256,uint256,address)": {
        "notice": "Deposit tokens to MasterApe for BANANA allocation."
      },
      "emergencyWithdraw(uint256)": {
        "notice": "Withdraw without caring about rewards. EMERGENCY ONLY."
      },
      "feeAddress()": {
        "notice": "Deposit Fee address"
      },
      "getMultiplier(uint256,uint256)": {
        "notice": "Return reward multiplier over the given _from to _to block."
      },
      "getPoolInfo(uint256)": {
        "notice": "returns all pool info"
      },
      "getWhitelistAtIndex(uint256)": {
        "notice": "Find the address on the whitelist of the provided index"
      },
      "getWhitelistLength()": {
        "notice": "Get the number of addresses on the whitelist"
      },
      "harvestFromMasterApe()": {
        "notice": "Harvests BANANA from `masterApe` MAV1 and pool `masterPid` to MAV2."
      },
      "initialize()": {
        "notice": "Deposits a dummy token to `masterApe` MAV1. This is required because MAV1 holds the minting permission of BANANA. It will transfer all the `dummyToken` in the tx sender address. The allocation point for the dummy pool on MAV1 should be equal to the total amount of allocPoint."
      },
      "isWhitelisted(address)": {
        "notice": "Check if an address is whitelisted"
      },
      "massUpdatePools()": {
        "notice": "Update reward variables for all pools. Be careful of gas spending!"
      },
      "masterApe()": {
        "notice": "Address of MAV1 contract."
      },
      "masterPid()": {
        "notice": "The pool id of the MAV2 mock token pool in MAV1."
      },
      "pendingBanana(uint256,address)": {
        "notice": "View function to see pending BANANAs on frontend."
      },
      "pendingMasterApeV1Owner()": {
        "notice": "Address which is eligible to accept ownership of the MasterApeV1. Set by the current owner."
      },
      "poolInfo(uint256)": {
        "notice": "Info of each pool."
      },
      "poolLength()": {
        "notice": "returns the amount of pools created"
      },
      "set(uint256,uint256,bool,uint16,address)": {
        "notice": "Update the given pool's BANANA allocation point and deposit fee. Can only be called by the owner."
      },
      "setBatchContractWhitelist(address[],bool[])": {
        "notice": "Enable or disable contract addresses on the whitelist"
      },
      "setContractWhitelist(address,bool)": {
        "notice": "Enable or disable a contract address on the whitelist"
      },
      "setFeeAddress(address)": {
        "notice": "updates the deposit fee receiver"
      },
      "setPendingMasterApeV1Owner(address)": {
        "notice": "Set an address as the pending admin of the MasterApe. The address must accept to take ownership."
      },
      "setWhitelistEnabled(bool)": {
        "notice": "enables smart contract whitelist"
      },
      "totalAllocPoint()": {
        "notice": "Total allocation points. Must be the sum of all allocation points in all pools."
      },
      "unallocatedBanana()": {
        "notice": "keeps track of unallocated BANANA in the contract"
      },
      "updateEmissionRate(uint256,bool)": {
        "notice": "updates the emission rate"
      },
      "updateHardCap(uint256)": {
        "notice": "updates the hard cap"
      },
      "updatePool(uint256)": {
        "notice": "Update reward variables of the given pool to be up-to-date."
      },
      "userInfo(uint256,address)": {
        "notice": "Info of each user that stakes tokens."
      },
      "whitelistEnabled()": {
        "notice": "marks if a contract whitelist is enabled."
      },
      "withdraw(uint256,uint256)": {
        "notice": "withdraw tokens on behalf of sender"
      },
      "withdrawTo(uint256,uint256,address)": {
        "notice": "Withdraw tokens from MasterApe."
      }
    },
    "notice": "The (older) MasterApe contract gives out a constant number of BANANA tokens per block. It is the only address with minting rights for BANANA. The idea for this MasterApeV2 (MAV2) contract is therefore to be the owner of a dummy token that is deposited into the MasterApeV1 (MAV1) contract. The allocation point for this pool on MAV1 is the total allocation point for all pools that receive incentives.",
    "version": 1
  }
}