{
  "_format": "hh-sol-artifact-1",
  "contractName": "MasterApeV2",
  "sourceName": "contracts/MasterApeV2.sol",
  "abi": [
    {
      "inputs": [
        {
          "internalType": "contract IERC20",
          "name": "banana_",
          "type": "address"
        },
        {
          "internalType": "contract IMasterApe",
          "name": "masterApe_",
          "type": "address"
        },
        {
          "internalType": "uint256",
          "name": "masterPid_",
          "type": "uint256"
        },
        {
          "internalType": "uint256",
          "name": "bananaPerSecond_",
          "type": "uint256"
        }
      ],
      "stateMutability": "nonpayable",
      "type": "constructor"
    },
    {
      "anonymous": false,
      "inputs": [
        {
          "indexed": true,
          "internalType": "address",
          "name": "user",
          "type": "address"
        },
        {
          "indexed": true,
          "internalType": "uint256",
          "name": "pid",
          "type": "uint256"
        },
        {
          "indexed": false,
          "internalType": "uint256",
          "name": "amount",
          "type": "uint256"
        }
      ],
      "name": "Deposit",
      "type": "event"
    },
    {
      "anonymous": false,
      "inputs": [
        {
          "indexed": true,
          "internalType": "address",
          "name": "user",
          "type": "address"
        },
        {
          "indexed": true,
          "internalType": "uint256",
          "name": "pid",
          "type": "uint256"
        },
        {
          "indexed": false,
          "internalType": "uint256",
          "name": "amount",
          "type": "uint256"
        }
      ],
      "name": "EmergencyWithdraw",
      "type": "event"
    },
    {
      "anonymous": false,
      "inputs": [
        {
          "indexed": false,
          "internalType": "uint8",
          "name": "version",
          "type": "uint8"
        }
      ],
      "name": "Initialized",
      "type": "event"
    },
    {
      "anonymous": false,
      "inputs": [
        {
          "indexed": true,
          "internalType": "uint256",
          "name": "pid",
          "type": "uint256"
        },
        {
          "indexed": false,
          "internalType": "uint256",
          "name": "allocPoint",
          "type": "uint256"
        },
        {
          "indexed": true,
          "internalType": "contract IERC20",
          "name": "stakeToken",
          "type": "address"
        },
        {
          "indexed": false,
          "internalType": "uint16",
          "name": "depositFee",
          "type": "uint16"
        },
        {
          "indexed": true,
          "internalType": "contract IRewarder",
          "name": "rewarder",
          "type": "address"
        }
      ],
      "name": "LogPoolAddition",
      "type": "event"
    },
    {
      "anonymous": false,
      "inputs": [
        {
          "indexed": true,
          "internalType": "uint256",
          "name": "pid",
          "type": "uint256"
        },
        {
          "indexed": false,
          "internalType": "uint256",
          "name": "allocPoint",
          "type": "uint256"
        },
        {
          "indexed": false,
          "internalType": "uint16",
          "name": "depositFee",
          "type": "uint16"
        },
        {
          "indexed": true,
          "internalType": "contract IRewarder",
          "name": "rewarder",
          "type": "address"
        }
      ],
      "name": "LogSetPool",
      "type": "event"
    },
    {
      "anonymous": false,
      "inputs": [
        {
          "indexed": true,
          "internalType": "uint256",
          "name": "pid",
          "type": "uint256"
        },
        {
          "indexed": false,
          "internalType": "uint256",
          "name": "lastRewardBlock",
          "type": "uint256"
        },
        {
          "indexed": false,
          "internalType": "uint256",
          "name": "stakeSupply",
          "type": "uint256"
        },
        {
          "indexed": false,
          "internalType": "uint256",
          "name": "accBananaPerShare",
          "type": "uint256"
        }
      ],
      "name": "LogUpdatePool",
      "type": "event"
    },
    {
      "anonymous": false,
      "inputs": [
        {
          "indexed": true,
          "internalType": "address",
          "name": "previousOwner",
          "type": "address"
        },
        {
          "indexed": true,
          "internalType": "address",
          "name": "newOwner",
          "type": "address"
        }
      ],
      "name": "OwnershipTransferred",
      "type": "event"
    },
    {
      "anonymous": false,
      "inputs": [
        {
          "indexed": true,
          "internalType": "address",
          "name": "user",
          "type": "address"
        },
        {
          "indexed": true,
          "internalType": "address",
          "name": "newAddress",
          "type": "address"
        }
      ],
      "name": "SetFeeAddress",
      "type": "event"
    },
    {
      "anonymous": false,
      "inputs": [
        {
          "indexed": false,
          "internalType": "address",
          "name": "pendingMasterApeOwner",
          "type": "address"
        }
      ],
      "name": "SetPendingMasterApeOwner",
      "type": "event"
    },
    {
      "anonymous": false,
      "inputs": [
        {
          "indexed": true,
          "internalType": "address",
          "name": "whitelistAddress",
          "type": "address"
        },
        {
          "indexed": false,
          "internalType": "bool",
          "name": "whitelistEnabled",
          "type": "bool"
        }
      ],
      "name": "UpdateContractWhitelist",
      "type": "event"
    },
    {
      "anonymous": false,
      "inputs": [
        {
          "indexed": true,
          "internalType": "address",
          "name": "user",
          "type": "address"
        },
        {
          "indexed": false,
          "internalType": "uint256",
          "name": "bananaPerSecond",
          "type": "uint256"
        }
      ],
      "name": "UpdateEmissionRate",
      "type": "event"
    },
    {
      "anonymous": false,
      "inputs": [
        {
          "indexed": true,
          "internalType": "address",
          "name": "user",
          "type": "address"
        },
        {
          "indexed": false,
          "internalType": "uint256",
          "name": "hardCap",
          "type": "uint256"
        }
      ],
      "name": "UpdateHardCap",
      "type": "event"
    },
    {
      "anonymous": false,
      "inputs": [
        {
          "indexed": false,
          "internalType": "bool",
          "name": "whitelistEnabled",
          "type": "bool"
        }
      ],
      "name": "UpdateWhitelistStatus",
      "type": "event"
    },
    {
      "anonymous": false,
      "inputs": [
        {
          "indexed": true,
          "internalType": "address",
          "name": "user",
          "type": "address"
        },
        {
          "indexed": true,
          "internalType": "uint256",
          "name": "pid",
          "type": "uint256"
        },
        {
          "indexed": false,
          "internalType": "uint256",
          "name": "amount",
          "type": "uint256"
        }
      ],
      "name": "Withdraw",
      "type": "event"
    },
    {
      "inputs": [],
      "name": "MASTER_APE_BANANA_PER_BLOCK",
      "outputs": [
        {
          "internalType": "uint256",
          "name": "",
          "type": "uint256"
        }
      ],
      "stateMutability": "view",
      "type": "function"
    },
    {
      "inputs": [],
      "name": "MASTER_APE_BANANA_PER_SECOND_ESTIMATE",
      "outputs": [
        {
          "internalType": "uint256",
          "name": "",
          "type": "uint256"
        }
      ],
      "stateMutability": "view",
      "type": "function"
    },
    {
      "inputs": [],
      "name": "MAX_DEPOSIT_FEE_BP",
      "outputs": [
        {
          "internalType": "uint256",
          "name": "",
          "type": "uint256"
        }
      ],
      "stateMutability": "view",
      "type": "function"
    },
    {
      "inputs": [],
      "name": "acceptMasterApeOwnership",
      "outputs": [],
      "stateMutability": "nonpayable",
      "type": "function"
    },
    {
      "inputs": [
        {
          "internalType": "uint256",
          "name": "_allocPoint",
          "type": "uint256"
        },
        {
          "internalType": "contract IERC20",
          "name": "_stakeToken",
          "type": "address"
        },
        {
          "internalType": "bool",
          "name": "_withUpdate",
          "type": "bool"
        },
        {
          "internalType": "uint16",
          "name": "_depositFeeBP",
          "type": "uint16"
        },
        {
          "internalType": "contract IRewarder",
          "name": "_rewarder",
          "type": "address"
        }
      ],
      "name": "add",
      "outputs": [],
      "stateMutability": "nonpayable",
      "type": "function"
    },
    {
      "inputs": [],
      "name": "banana",
      "outputs": [
        {
          "internalType": "contract IERC20",
          "name": "",
          "type": "address"
        }
      ],
      "stateMutability": "view",
      "type": "function"
    },
    {
      "inputs": [],
      "name": "bananaPerSecond",
      "outputs": [
        {
          "internalType": "uint256",
          "name": "",
          "type": "uint256"
        }
      ],
      "stateMutability": "view",
      "type": "function"
    },
    {
      "inputs": [
        {
          "internalType": "uint256",
          "name": "_pid",
          "type": "uint256"
        },
        {
          "internalType": "uint256",
          "name": "_amount",
          "type": "uint256"
        }
      ],
      "name": "deposit",
      "outputs": [],
      "stateMutability": "nonpayable",
      "type": "function"
    },
    {
      "inputs": [
        {
          "internalType": "uint256",
          "name": "_pid",
          "type": "uint256"
        },
        {
          "internalType": "uint256",
          "name": "_amount",
          "type": "uint256"
        },
        {
          "internalType": "address",
          "name": "_to",
          "type": "address"
        }
      ],
      "name": "depositTo",
      "outputs": [],
      "stateMutability": "nonpayable",
      "type": "function"
    },
    {
      "inputs": [
        {
          "internalType": "uint256",
          "name": "_pid",
          "type": "uint256"
        }
      ],
      "name": "emergencyWithdraw",
      "outputs": [],
      "stateMutability": "nonpayable",
      "type": "function"
    },
    {
      "inputs": [],
      "name": "feeAddress",
      "outputs": [
        {
          "internalType": "address",
          "name": "",
          "type": "address"
        }
      ],
      "stateMutability": "view",
      "type": "function"
    },
    {
      "inputs": [
        {
          "internalType": "uint256",
          "name": "_from",
          "type": "uint256"
        },
        {
          "internalType": "uint256",
          "name": "_to",
          "type": "uint256"
        }
      ],
      "name": "getMultiplier",
      "outputs": [
        {
          "internalType": "uint256",
          "name": "",
          "type": "uint256"
        }
      ],
      "stateMutability": "pure",
      "type": "function"
    },
    {
      "inputs": [
        {
          "internalType": "uint256",
          "name": "_pid",
          "type": "uint256"
        }
      ],
      "name": "getPoolInfo",
      "outputs": [
        {
          "internalType": "address",
          "name": "lpToken",
          "type": "address"
        },
        {
          "internalType": "uint256",
          "name": "allocPoint",
          "type": "uint256"
        },
        {
          "internalType": "address",
          "name": "rewarder",
          "type": "address"
        },
        {
          "internalType": "uint256",
          "name": "lastRewardBlock",
          "type": "uint256"
        },
        {
          "internalType": "uint256",
          "name": "accBananaPerShare",
          "type": "uint256"
        },
        {
          "internalType": "uint256",
          "name": "totalStaked",
          "type": "uint256"
        },
        {
          "internalType": "uint16",
          "name": "depositFeeBP",
          "type": "uint16"
        }
      ],
      "stateMutability": "view",
      "type": "function"
    },
    {
      "inputs": [],
      "name": "hardCap",
      "outputs": [
        {
          "internalType": "uint256",
          "name": "",
          "type": "uint256"
        }
      ],
      "stateMutability": "view",
      "type": "function"
    },
    {
      "inputs": [],
      "name": "harvestFromMasterApe",
      "outputs": [],
      "stateMutability": "nonpayable",
      "type": "function"
    },
    {
      "inputs": [],
      "name": "initialize",
      "outputs": [],
      "stateMutability": "nonpayable",
      "type": "function"
    },
    {
      "inputs": [],
      "name": "massUpdatePools",
      "outputs": [],
      "stateMutability": "nonpayable",
      "type": "function"
    },
    {
      "inputs": [],
      "name": "masterApe",
      "outputs": [
        {
          "internalType": "contract IMasterApe",
          "name": "",
          "type": "address"
        }
      ],
      "stateMutability": "view",
      "type": "function"
    },
    {
      "inputs": [],
      "name": "masterPid",
      "outputs": [
        {
          "internalType": "uint256",
          "name": "",
          "type": "uint256"
        }
      ],
      "stateMutability": "view",
      "type": "function"
    },
    {
      "inputs": [],
      "name": "owner",
      "outputs": [
        {
          "internalType": "address",
          "name": "",
          "type": "address"
        }
      ],
      "stateMutability": "view",
      "type": "function"
    },
    {
      "inputs": [
        {
          "internalType": "uint256",
          "name": "_pid",
          "type": "uint256"
        },
        {
          "internalType": "address",
          "name": "_user",
          "type": "address"
        }
      ],
      "name": "pendingBanana",
      "outputs": [
        {
          "internalType": "uint256",
          "name": "",
          "type": "uint256"
        }
      ],
      "stateMutability": "view",
      "type": "function"
    },
    {
      "inputs": [],
      "name": "pendingMasterApeV1Owner",
      "outputs": [
        {
          "internalType": "address",
          "name": "",
          "type": "address"
        }
      ],
      "stateMutability": "view",
      "type": "function"
    },
    {
      "inputs": [
        {
          "internalType": "contract IERC20",
          "name": "",
          "type": "address"
        }
      ],
      "name": "poolExistence",
      "outputs": [
        {
          "internalType": "bool",
          "name": "",
          "type": "bool"
        }
      ],
      "stateMutability": "view",
      "type": "function"
    },
    {
      "inputs": [
        {
          "internalType": "uint256",
          "name": "",
          "type": "uint256"
        }
      ],
      "name": "poolInfo",
      "outputs": [
        {
          "internalType": "contract IERC20",
          "name": "stakeToken",
          "type": "address"
        },
        {
          "internalType": "contract IRewarder",
          "name": "rewarder",
          "type": "address"
        },
        {
          "internalType": "uint256",
          "name": "allocPoint",
          "type": "uint256"
        },
        {
          "internalType": "uint256",
          "name": "totalStaked",
          "type": "uint256"
        },
        {
          "internalType": "uint256",
          "name": "lastRewardTime",
          "type": "uint256"
        },
        {
          "internalType": "uint256",
          "name": "accBananaPerShare",
          "type": "uint256"
        },
        {
          "internalType": "uint16",
          "name": "depositFeeBP",
          "type": "uint16"
        }
      ],
      "stateMutability": "view",
      "type": "function"
    },
    {
      "inputs": [],
      "name": "poolLength",
      "outputs": [
        {
          "internalType": "uint256",
          "name": "",
          "type": "uint256"
        }
      ],
      "stateMutability": "view",
      "type": "function"
    },
    {
      "inputs": [],
      "name": "renounceOwnership",
      "outputs": [],
      "stateMutability": "nonpayable",
      "type": "function"
    },
    {
      "inputs": [
        {
          "internalType": "uint256",
          "name": "_pid",
          "type": "uint256"
        },
        {
          "internalType": "uint256",
          "name": "_allocPoint",
          "type": "uint256"
        },
        {
          "internalType": "bool",
          "name": "_withUpdate",
          "type": "bool"
        },
        {
          "internalType": "uint16",
          "name": "_depositFeeBP",
          "type": "uint16"
        },
        {
          "internalType": "contract IRewarder",
          "name": "_rewarder",
          "type": "address"
        }
      ],
      "name": "set",
      "outputs": [],
      "stateMutability": "nonpayable",
      "type": "function"
    },
    {
      "inputs": [
        {
          "internalType": "address[]",
          "name": "_addresses",
          "type": "address[]"
        },
        {
          "internalType": "bool[]",
          "name": "_enabled",
          "type": "bool[]"
        }
      ],
      "name": "setBatchContractWhitelist",
      "outputs": [],
      "stateMutability": "nonpayable",
      "type": "function"
    },
    {
      "inputs": [
        {
          "internalType": "address",
          "name": "_address",
          "type": "address"
        },
        {
          "internalType": "bool",
          "name": "_enabled",
          "type": "bool"
        }
      ],
      "name": "setContractWhitelist",
      "outputs": [],
      "stateMutability": "nonpayable",
      "type": "function"
    },
    {
      "inputs": [
        {
          "internalType": "address",
          "name": "_feeAddress",
          "type": "address"
        }
      ],
      "name": "setFeeAddress",
      "outputs": [],
      "stateMutability": "nonpayable",
      "type": "function"
    },
    {
      "inputs": [
        {
          "internalType": "address",
          "name": "_pendingMasterApeOwner",
          "type": "address"
        }
      ],
      "name": "setPendingMasterApeOwner",
      "outputs": [],
      "stateMutability": "nonpayable",
      "type": "function"
    },
    {
      "inputs": [],
      "name": "toggleWhitelist",
      "outputs": [],
      "stateMutability": "nonpayable",
      "type": "function"
    },
    {
      "inputs": [],
      "name": "totalAllocPoint",
      "outputs": [
        {
          "internalType": "uint256",
          "name": "",
          "type": "uint256"
        }
      ],
      "stateMutability": "view",
      "type": "function"
    },
    {
      "inputs": [
        {
          "internalType": "address",
          "name": "newOwner",
          "type": "address"
        }
      ],
      "name": "transferOwnership",
      "outputs": [],
      "stateMutability": "nonpayable",
      "type": "function"
    },
    {
      "inputs": [],
      "name": "unallocatedBanana",
      "outputs": [
        {
          "internalType": "uint256",
          "name": "",
          "type": "uint256"
        }
      ],
      "stateMutability": "view",
      "type": "function"
    },
    {
      "inputs": [
        {
          "internalType": "uint256",
          "name": "_bananaPerSecond",
          "type": "uint256"
        }
      ],
      "name": "updateEmissionRate",
      "outputs": [],
      "stateMutability": "nonpayable",
      "type": "function"
    },
    {
      "inputs": [
        {
          "internalType": "uint256",
          "name": "_hardCap",
          "type": "uint256"
        }
      ],
      "name": "updateHardCap",
      "outputs": [],
      "stateMutability": "nonpayable",
      "type": "function"
    },
    {
      "inputs": [
        {
          "internalType": "uint256",
          "name": "_pid",
          "type": "uint256"
        }
      ],
      "name": "updatePool",
      "outputs": [],
      "stateMutability": "nonpayable",
      "type": "function"
    },
    {
      "inputs": [
        {
          "internalType": "uint256",
          "name": "",
          "type": "uint256"
        },
        {
          "internalType": "address",
          "name": "",
          "type": "address"
        }
      ],
      "name": "userInfo",
      "outputs": [
        {
          "internalType": "uint256",
          "name": "amount",
          "type": "uint256"
        },
        {
          "internalType": "uint256",
          "name": "rewardDebt",
          "type": "uint256"
        }
      ],
      "stateMutability": "view",
      "type": "function"
    },
    {
      "inputs": [
        {
          "internalType": "address",
          "name": "",
          "type": "address"
        }
      ],
      "name": "whitelist",
      "outputs": [
        {
          "internalType": "bool",
          "name": "",
          "type": "bool"
        }
      ],
      "stateMutability": "view",
      "type": "function"
    },
    {
      "inputs": [],
      "name": "whitelistEnabled",
      "outputs": [
        {
          "internalType": "bool",
          "name": "",
          "type": "bool"
        }
      ],
      "stateMutability": "view",
      "type": "function"
    },
    {
      "inputs": [
        {
          "internalType": "uint256",
          "name": "_pid",
          "type": "uint256"
        },
        {
          "internalType": "uint256",
          "name": "_amount",
          "type": "uint256"
        }
      ],
      "name": "withdraw",
      "outputs": [],
      "stateMutability": "nonpayable",
      "type": "function"
    },
    {
      "inputs": [
        {
          "internalType": "uint256",
          "name": "_pid",
          "type": "uint256"
        },
        {
          "internalType": "uint256",
          "name": "_amount",
          "type": "uint256"
        },
        {
          "internalType": "address",
          "name": "_to",
          "type": "address"
        }
      ],
      "name": "withdrawTo",
      "outputs": [],
      "stateMutability": "nonpayable",
      "type": "function"
    }
  ],
  "bytecode": "0x60e0604052600380546001600160a01b03191690556b015b6a759f4835dc240000006005553480156200003157600080fd5b50604051620034a0380380620034a08339810160408190526200005491620000fc565b6200005f3362000088565b60016002556001600160a01b0393841660c0529190921660805260a09190915260045562000149565b600080546001600160a01b038381166201000081810262010000600160b01b0319851617855560405193049190911692909183917f8be0079c531659141344cd1fd0a4f28419497f9722a3daafe3b4186f6b6457e091a35050565b6001600160a01b0381168114620000f957600080fd5b50565b600080600080608085870312156200011357600080fd5b84516200012081620000e3565b60208601519094506200013381620000e3565b6040860151606090960151949790965092505050565b60805160a05160c05161327f62000221600039600081816105c901528181610e0901528181611bc801528181611ce201528181611d6901528181611f2a01528181611fbc0152818161205a015281816120f101528181612200015281816126dd01528181612777015281816128010152818161283501526129280152600081816104ad015281816112f10152818161150a0152611c4a0152600081816103e301528181610cc90152818161131a0152818161147e0152818161153701528181611c7a01528181611df60152611e93015261327f6000f3fe608060405234801561001057600080fd5b50600436106102695760003560e01c8063715018a6116101515780639fb1fb1f116100c3578063d89e4f3411610087578063d89e4f341461060e578063de9f3a1714610617578063e2bbb1581461062a578063f2fde38b1461063d578063fb86a40414610650578063fd772ae61461065957600080fd5b80639fb1fb1f1461059a578063aa8f6ca1146105a9578063b7f790c1146105bc578063c3cafc6f146105c4578063cbd258b5146105eb57600080fd5b8063889b830711610115578063889b8307146104ea5780638da5cb5b146104f35780638dbb1e3a1461050a57806393f1a40b1461051d5780639a269e0c146105645780639b19251a1461057757600080fd5b8063715018a6146104985780637e15144b146104a057806380b7d5c1146104a85780638129fc1c146104cf5780638705fcd4146104d757600080fd5b806341275358116101ea5780635312ea8e116101ae5780635312ea8e1461043c5780635c56b3701461044f5780635e81f9c314610457578063630b5ba11461046a5780636b4c307714610472578063703df7931461048557600080fd5b806341275358146103a0578063441a3e70146103cb57806348fe55f6146103de57806351eb05a61461040557806351fb012d1461041857600080fd5b80631de692d3116102315780631de692d31461030d5780632f380b3514610320578063365487a01461037c57806337346a3a1461038f57806337caa6e71461039757600080fd5b8063081e3eda1461026e5780630ba84cd21461028557806314cd70e41461029a5780631526fe27146102ad57806317caf6f114610304575b600080fd5b6008545b6040519081526020015b60405180910390f35b610298610293366004612d26565b61066c565b005b6102986102a8366004612d54565b610688565b6102c06102bb366004612d26565b610898565b604080516001600160a01b039889168152979096166020880152948601939093526060850191909152608084015260a083015261ffff1660c082015260e00161027c565b610272600a5481565b61029861031b366004612d8d565b6108f8565b61033361032e366004612d26565b610955565b604080516001600160a01b039889168152602081019790975294909616938501939093526060840191909152608083015260a082015261ffff90911660c082015260e00161027c565b61029861038a366004612dd6565b610aa0565b610298610c59565b6102726103e881565b6007546103b3906001600160a01b031681565b6040516001600160a01b03909116815260200161027c565b6102986103d9366004612e33565b610d39565b6103b37f000000000000000000000000000000000000000000000000000000000000000081565b610298610413366004612d26565b610d48565b60005461042c90600160b01b900460ff1681565b604051901515815260200161027c565b61029861044a366004612d26565b610f61565b6102726110a6565b610298610465366004612f34565b6110bc565b610298611160565b6003546103b3906001600160a01b031681565b610298610493366004612d26565b611187565b610298611198565b6102986111ac565b6102727f000000000000000000000000000000000000000000000000000000000000000081565b61029861121a565b6102986104e5366004612d8d565b6115e0565b61027260045481565b6000546201000090046001600160a01b03166103b3565b610272610518366004612e33565b6116b3565b61054f61052b366004612ff6565b60096020908152600092835260408084209091529082529020805460019091015482565b6040805192835260208301919091520161027c565b610298610572366004612d54565b6116c8565b61042c610585366004612d8d565b60016020526000908152604090205460ff1681565b610272678ac7230489e8000081565b6102726105b7366004612ff6565b611a52565b610298611bb0565b6103b37f000000000000000000000000000000000000000000000000000000000000000081565b61042c6105f9366004612d8d565b600b6020526000908152604090205460ff1681565b61027260065481565b610298610625366004613026565b61218b565b610298610638366004612e33565b6124bd565b61029861064b366004612d8d565b6124c8565b61027260055481565b610298610667366004613060565b61253e565b610674612550565b61067d816125b1565b610685611160565b50565b61069061264a565b6000600884815481106106a5576106a561308e565b60009182526020808320878452600982526040808520338652909252922080546007909202909201925084111561071c5760405162461bcd60e51b81526020600482015260166024820152751dda5d1a191c985dce881a5b9cdd59999a58da595b9d60521b60448201526064015b60405180910390fd5b61072585610d48565b600061075f826001015461075964e8d4a51000610753876005015487600001546126a190919063ffffffff16565b906126ad565b906126b9565b905080156107715761077184826126c5565b84156107af57815461078390866126b9565b8255600383015461079490866126b9565b600384015582546107af906001600160a01b03168587612858565b60018301546001600160a01b03161561082f57600183015482546040516344af0fa760e01b81526001600160a01b03909216916344af0fa7916107fc918a9133918a9188916004016130a4565b600060405180830381600087803b15801561081657600080fd5b505af115801561082a573d6000803e3d6000fd5b505050505b6005830154825461084a9164e8d4a5100091610753916126a1565b6001830155604051858152869033907ff279e6a1f5e320cca91135676d9cb6e44ca8a08c0b88342bcdb1144f6511b5689060200160405180910390a35050506108936001600255565b505050565b600881815481106108a857600080fd5b600091825260209091206007909102018054600182015460028301546003840154600485015460058601546006909601546001600160a01b039586169750949093169491939092919061ffff1687565b610900612550565b600380546001600160a01b0319166001600160a01b0383169081179091556040519081527f4e24d2bdf029d594c721d76f1f427a0277ec76d150e7e4d665955a2b78f01e33906020015b60405180910390a150565b6000806000806000806000600888815481106109735761097361308e565b6000918252602090912060079091020154600880546001600160a01b03909216918a9081106109a4576109a461308e565b90600052602060002090600702016002015460088a815481106109c9576109c961308e565b906000526020600020906007020160010160009054906101000a90046001600160a01b031660088b81548110610a0157610a0161308e565b90600052602060002090600702016003015460088c81548110610a2657610a2661308e565b90600052602060002090600702016004015460088d81548110610a4b57610a4b61308e565b90600052602060002090600702016005015460088e81548110610a7057610a7061308e565b6000918252602090912060079091020160060154959e949d50929b509099509750955061ffff9091169350915050565b610aa8612550565b6103e88261ffff161115610afe5760405162461bcd60e51b815260206004820152601860248201527f7365743a20696e76616c6964206465706f7369742066656500000000000000006044820152606401610713565b8215610b1157610b0c611160565b610b1a565b610b1a85610d48565b610b5d84610b5760088881548110610b3457610b3461308e565b906000526020600020906007020160020154600a546126b990919063ffffffff16565b906128bb565b600a819055508360088681548110610b7757610b7761308e565b9060005260206000209060070201600201819055508160088681548110610ba057610ba061308e565b906000526020600020906007020160060160006101000a81548161ffff021916908361ffff1602179055508060088681548110610bdf57610bdf61308e565b60009182526020918290206007919091020160010180546001600160a01b0319166001600160a01b039384161790556040805187815261ffff8616928101929092529183169187917f86314aa8d1d923d1298345614250068b896dc84cd630faa7dd6e6d7f76c9674d910160405180910390a35050505050565b6003546001600160a01b03163314610ca75760405162461bcd60e51b81526020600482015260116024820152703737ba103832b73234b7339037bbb732b960791b6044820152606401610713565b60035460405163f2fde38b60e01b81526001600160a01b0391821660048201527f00000000000000000000000000000000000000000000000000000000000000009091169063f2fde38b90602401600060405180830381600087803b158015610d0f57600080fd5b505af1158015610d23573d6000803e3d6000fd5b5050600380546001600160a01b03191690555050565b610d44828233610688565b5050565b600060088281548110610d5d57610d5d61308e565b9060005260206000209060070201905080600401544211610d7c575050565b6003810154801580610d9057506002820154155b15610da057504260049091015550565b6000610db08360040154426116b3565b90506000610ddd600a546107538660020154610dd7600454876126a190919063ffffffff16565b906126a1565b905080600003610dee575050505050565b600654811115610e0057610e00611bb0565b600554600654827f00000000000000000000000000000000000000000000000000000000000000006001600160a01b03166318160ddd6040518163ffffffff1660e01b8152600401602060405180830381865afa158015610e65573d6000803e3d6000fd5b505050506040513d601f19601f82011682018060405250810190610e8991906130d3565b610e939190613102565b610e9d9190613115565b1115610eca57610eab611bb0565b6006548110610eca575060065460045415610eca57610eca60006125b1565b610eeb610ee0846107538464e8d4a510006126a1565b6005860154906128bb565b600585015542600485015560068054829190600090610f0b908490613115565b909155505060048401546005850154604080519283526020830186905282015285907fcb7325664a4a3b7c7223eefc492a97ca4fdf94d46884621e5a8fae5a04b2b9d29060600160405180910390a25050505050565b610f6961264a565b600060088281548110610f7e57610f7e61308e565b6000918252602080832085845260098252604080852033865290925290832080548482556001820194909455600792909202016003810154909350909190610fc690826126b9565b60038401558254610fe1906001600160a01b03163383612858565b60018301546001600160a01b03161561106257600183015482546040516344af0fa760e01b81526001600160a01b03909216916344af0fa79161102f918891339182916000916004016130a4565b600060405180830381600087803b15801561104957600080fd5b505af115801561105d573d6000803e3d6000fd5b505050505b604051818152849033907fbb757047c2b5f3974fe26b7c10f732e7bce710b0952a71082702781e62ae05959060200160405180910390a35050506106856001600255565b6110b96003678ac7230489e80000613128565b81565b6110c4612550565b80518251146111065760405162461bcd60e51b815260206004820152600e60248201526d0c2e4e4c2f240dad2e6dac2e8c6d60931b6044820152606401610713565b60005b82518110156108935761114e8382815181106111275761112761308e565b60200260200101518383815181106111415761114161308e565b60200260200101516128c7565b806111588161314a565b915050611109565b60085460005b81811015610d445761117781610d48565b6111808161314a565b9050611166565b61118f612550565b61068581612926565b6111a0612550565b6111aa6000612a3b565b565b6111b4612550565b6000805460ff600160b01b808304821615810260ff60b01b1990931692909217928390556040517fd1a6fe32acce5bcdfbc5fee8b6f05cf793552efccacbf6eb93c4a8a37ad10336936112109390049091161515815260200190565b60405180910390a1565b600054610100900460ff161580801561123a5750600054600160ff909116105b806112545750303b158015611254575060005460ff166001145b6112b75760405162461bcd60e51b815260206004820152602e60248201527f496e697469616c697a61626c653a20636f6e747261637420697320616c72656160448201526d191e481a5b9a5d1a585b1a5e995960921b6064820152608401610713565b6000805460ff1916600117905580156112da576000805461ff0019166101001790555b6112e2612550565b604051632f380b3560e01b81527f000000000000000000000000000000000000000000000000000000000000000060048201526000907f00000000000000000000000000000000000000000000000000000000000000006001600160a01b031690632f380b3590602401608060405180830381865afa158015611369573d6000803e3d6000fd5b505050506040513d601f19601f8201168201806040525081019061138d9190613163565b50506040516370a0823160e01b81523360048201529192508291600091506001600160a01b038316906370a0823190602401602060405180830381865afa1580156113dc573d6000803e3d6000fd5b505050506040513d601f19601f8201168201806040525081019061140091906130d3565b9050806000036114525760405162461bcd60e51b815260206004820152601860248201527f4d617374657241706556323a206261642062616c616e636500000000000000006044820152606401610713565b6114676001600160a01b038316333084612a96565b60405163095ea7b360e01b81526001600160a01b037f0000000000000000000000000000000000000000000000000000000000000000811660048301526024820183905283169063095ea7b3906044016020604051808303816000875af11580156114d6573d6000803e3d6000fd5b505050506040513d601f19601f820116820180604052508101906114fa91906131a2565b50604051631c57762b60e31b81527f00000000000000000000000000000000000000000000000000000000000000006004820152602481018290527f00000000000000000000000000000000000000000000000000000000000000006001600160a01b03169063e2bbb15890604401600060405180830381600087803b15801561158357600080fd5b505af1158015611597573d6000803e3d6000fd5b505050505050508015610685576000805461ff0019169055604051600181527f7f26b83ff96e1f2b6a682f133852f6798a09c465da95921460cefb38474024989060200161094a565b6007546001600160a01b031633148061161b57506000546201000090046001600160a01b03166001600160a01b0316336001600160a01b0316145b6116675760405162461bcd60e51b815260206004820152601860248201527f736574466565416464726573733a20464f5242494444454e00000000000000006044820152606401610713565b600780546001600160a01b0319166001600160a01b03831690811790915560405133907fd44190acf9d04bdb5d3a1aafff7e6dee8b40b93dfb8c5d3f0eea4b9f4539c3f790600090a350565b60006116bf82846126b9565b90505b92915050565b6116d061264a565b600054600160b01b900460ff1680156116e95750333214155b1561174d573360009081526001602052604090205460ff1661174d5760405162461bcd60e51b815260206004820181905260248201527f636865636b57686974656c6973743a206e6f7420696e2077686974656c6973746044820152606401610713565b6000600884815481106117625761176261308e565b600091825260208083208784526009825260408085206001600160a01b03881686529092529083206007909202019250908061179d87610d48565b8254156117e2576117d0836001015461075964e8d4a51000610753886005015488600001546126a190919063ffffffff16565b905080156117e2576117e285826126c5565b85156119645783546040516370a0823160e01b81523060048201526000916001600160a01b0316906370a0823190602401602060405180830381865afa158015611830573d6000803e3d6000fd5b505050506040513d601f19601f8201168201806040525081019061185491906130d3565b855490915061186e906001600160a01b031633308a612a96565b84546040516370a0823160e01b815230600482015282916001600160a01b0316906370a0823190602401602060405180830381865afa1580156118b5573d6000803e3d6000fd5b505050506040513d601f19601f820116820180604052508101906118d991906130d3565b6118e39190613115565b600686015490935061ffff1615611940576006850154600090611913906127109061075390879061ffff166126a1565b6007548754919250611932916001600160a01b03908116911683612858565b61193c84826126b9565b9350505b835461194c90846128bb565b8455600385015461195d90846128bb565b6003860155505b60018401546001600160a01b0316156119e457600184015483546040516344af0fa760e01b81526001600160a01b03909216916344af0fa7916119b1918b918a91829188916004016130a4565b600060405180830381600087803b1580156119cb57600080fd5b505af11580156119df573d6000803e3d6000fd5b505050505b600584015483546119ff9164e8d4a5100091610753916126a1565b600184015560405182815287906001600160a01b038716907f90890809c654f11d6e72a28fa60149770a0d11ec6c92319d6ceb2bb0a4ea1a159060200160405180910390a3505050506108936001600255565b60008060088481548110611a6857611a6861308e565b600091825260208083206040805160e081018252600790940290910180546001600160a01b039081168552600180830154821686860152600283015486850152600383015460608701908152600484015460808801908152600585015460a0890190815260069095015461ffff1660c08901528c895260098752858920938c168952928652968490208451808601909552805485520154938301939093525193519151929450929142118015611b1d57508015155b15611b7d576000611b328560800151426116b3565b90506000611b59600a546107538860400151610dd7600454876126a190919063ffffffff16565b9050611b78611b71846107538464e8d4a510006126a1565b85906128bb565b935050505b611ba5836020015161075964e8d4a510006107538688600001516126a190919063ffffffff16565b979650505050505050565b6040516370a0823160e01b81523060048201526000907f00000000000000000000000000000000000000000000000000000000000000006001600160a01b0316906370a0823190602401602060405180830381865afa158015611c17573d6000803e3d6000fd5b505050506040513d601f19601f82011682018060405250810190611c3b91906130d3565b604051631c57762b60e31b81527f00000000000000000000000000000000000000000000000000000000000000006004820152600060248201529091507f00000000000000000000000000000000000000000000000000000000000000006001600160a01b03169063e2bbb15890604401600060405180830381600087803b158015611cc657600080fd5b505af1158015611cda573d6000803e3d6000fd5b5050505060007f00000000000000000000000000000000000000000000000000000000000000006001600160a01b03166318160ddd6040518163ffffffff1660e01b8152600401602060405180830381865afa158015611d3e573d6000803e3d6000fd5b505050506040513d601f19601f82011682018060405250810190611d6291906130d3565b90506005547f00000000000000000000000000000000000000000000000000000000000000006001600160a01b03166318160ddd6040518163ffffffff1660e01b8152600401602060405180830381865afa158015611dc5573d6000803e3d6000fd5b505050506040513d601f19601f82011682018060405250810190611de991906130d3565b10158015611e78575060007f00000000000000000000000000000000000000000000000000000000000000006001600160a01b0316638aa285506040518163ffffffff1660e01b8152600401602060405180830381865afa158015611e52573d6000803e3d6000fd5b505050506040513d601f19601f82011682018060405250810190611e7691906130d3565b115b156120d957604051632fff30a360e11b8152600060048201527f00000000000000000000000000000000000000000000000000000000000000006001600160a01b031690635ffe614690602401600060405180830381600087803b158015611edf57600080fd5b505af1158015611ef3573d6000803e3d6000fd5b50505050600060055482611f079190613115565b6040516370a0823160e01b81523060048201529091506000906001600160a01b037f000000000000000000000000000000000000000000000000000000000000000016906370a0823190602401602060405180830381865afa158015611f71573d6000803e3d6000fd5b505050506040513d601f19601f82011682018060405250810190611f9591906130d3565b90508181106120375760405163a9059cbb60e01b815261dead6004820152602481018390527f00000000000000000000000000000000000000000000000000000000000000006001600160a01b03169063a9059cbb906044016020604051808303816000875af115801561200d573d6000803e3d6000fd5b505050506040513d601f19601f8201168201806040525081019061203191906131a2565b506120d6565b600060065560405163a9059cbb60e01b815261dead6004820152602481018290527f00000000000000000000000000000000000000000000000000000000000000006001600160a01b03169063a9059cbb906044016020604051808303816000875af11580156120ab573d6000803e3d6000fd5b505050506040513d601f19601f820116820180604052508101906120cf91906131a2565b5050505050565b50505b6040516370a0823160e01b81523060048201526000907f00000000000000000000000000000000000000000000000000000000000000006001600160a01b0316906370a0823190602401602060405180830381865afa158015612140573d6000803e3d6000fd5b505050506040513d601f19601f8201168201806040525081019061216491906130d3565b90506121708382613115565b600660008282546121819190613102565b9091555050505050565b612193612550565b6001600160a01b0384166000908152600b6020526040902054849060ff16156121fe5760405162461bcd60e51b815260206004820152601960248201527f6e6f6e4475706c6963617465643a206475706c696361746564000000000000006044820152606401610713565b7f00000000000000000000000000000000000000000000000000000000000000006001600160a01b0316856001600160a01b0316036122775760405162461bcd60e51b81526020600482015260156024820152741090539053904818d85b89dd081899481859191959605a1b6044820152606401610713565b6103e88361ffff1611156122cd5760405162461bcd60e51b815260206004820152601860248201527f6164643a20696e76616c6964206465706f7369742066656500000000000000006044820152606401610713565b83156122db576122db611160565b600a5442906122ea90886128bb565b600a819055506001600b6000886001600160a01b03166001600160a01b0316815260200190815260200160002060006101000a81548160ff02191690831515021790555060086040518060e00160405280886001600160a01b03168152602001856001600160a01b0316815260200189815260200160008152602001838152602001600081526020018661ffff16815250908060018154018082558091505060019003906000526020600020906007020160009091909190915060008201518160000160006101000a8154816001600160a01b0302191690836001600160a01b0316021790555060208201518160010160006101000a8154816001600160a01b0302191690836001600160a01b0316021790555060408201518160020155606082015181600301556080820151816004015560a0820151816005015560c08201518160060160006101000a81548161ffff021916908361ffff1602179055505050826001600160a01b0316866001600160a01b031661247860016008805490506126b990919063ffffffff16565b604080518b815261ffff891660208201527fc22f9ee3fed56a1a3f7b694e3202f7f4ada722438be846c67ebb439e27c01b02910160405180910390a450505050505050565b610d448282336116c8565b6124d0612550565b6001600160a01b0381166125355760405162461bcd60e51b815260206004820152602660248201527f4f776e61626c653a206e6577206f776e657220697320746865207a65726f206160448201526564647265737360d01b6064820152608401610713565b61068581612a3b565b612546612550565b610d4482826128c7565b6000546001600160a01b03620100009091041633146111aa5760405162461bcd60e51b815260206004820181905260248201527f4f776e61626c653a2063616c6c6572206973206e6f7420746865206f776e65726044820152606401610713565b6125c46003678ac7230489e80000613128565b81111561260c5760405162461bcd60e51b81526020600482015260166024820152754d6f7265207468616e206d6178696d756d207261746560501b6044820152606401610713565b600481905560405181815233907fe2492e003bbe8afa53088b406f0c1cb5d9e280370fc72a74cf116ffd343c4053906020015b60405180910390a250565b600280540361269b5760405162461bcd60e51b815260206004820152601f60248201527f5265656e7472616e637947756172643a207265656e7472616e742063616c6c006044820152606401610713565b60028055565b60006116bf82846131bf565b60006116bf8284613128565b60006116bf8284613115565b6040516370a0823160e01b81523060048201526000907f00000000000000000000000000000000000000000000000000000000000000006001600160a01b0316906370a0823190602401602060405180830381865afa15801561272c573d6000803e3d6000fd5b505050506040513d601f19601f8201168201806040525081019061275091906130d3565b90508082111561276257612762611bb0565b6040516370a0823160e01b81523060048201527f00000000000000000000000000000000000000000000000000000000000000006001600160a01b0316906370a0823190602401602060405180830381865afa1580156127c6573d6000803e3d6000fd5b505050506040513d601f19601f820116820180604052508101906127ea91906130d3565b905080821115612828576108936001600160a01b037f0000000000000000000000000000000000000000000000000000000000000000168483612858565b6108936001600160a01b037f00000000000000000000000000000000000000000000000000000000000000001684845b6040516001600160a01b03831660248201526044810182905261089390849063a9059cbb60e01b906064015b60408051601f198184030181529190526020810180516001600160e01b03166001600160e01b031990931692909217909152612ad4565b60006116bf8284613102565b6001600160a01b038216600081815260016020908152604091829020805460ff191685151590811790915591519182527fd1f62536ea3034771c60bea487f2eee8006f7c2789214fd3d5ac1c3794a861e9910160405180910390a25050565b7f00000000000000000000000000000000000000000000000000000000000000006001600160a01b03166318160ddd6040518163ffffffff1660e01b8152600401602060405180830381865afa158015612984573d6000803e3d6000fd5b505050506040513d601f19601f820116820180604052508101906129a891906130d3565b8111612a045760405162461bcd60e51b815260206004820152602560248201527f5570646174656420636170206973206c657373207468616e20746f74616c20736044820152647570706c7960d81b6064820152608401610713565b600581905560405181815233907ff4c16f9d6734c0970e0a2583a589c46fd075f8670c738840e4222f3b9cf1b1619060200161263f565b600080546001600160a01b038381166201000081810262010000600160b01b0319851617855560405193049190911692909183917f8be0079c531659141344cd1fd0a4f28419497f9722a3daafe3b4186f6b6457e091a35050565b6040516001600160a01b0380851660248301528316604482015260648101829052612ace9085906323b872dd60e01b90608401612884565b50505050565b6000612b29826040518060400160405280602081526020017f5361666545524332303a206c6f772d6c6576656c2063616c6c206661696c6564815250856001600160a01b0316612ba69092919063ffffffff16565b8051909150156108935780806020019051810190612b4791906131a2565b6108935760405162461bcd60e51b815260206004820152602a60248201527f5361666545524332303a204552433230206f7065726174696f6e20646964206e6044820152691bdd081cdd58d8d9595960b21b6064820152608401610713565b6060612bb58484600085612bbd565b949350505050565b606082471015612c1e5760405162461bcd60e51b815260206004820152602660248201527f416464726573733a20696e73756666696369656e742062616c616e636520666f6044820152651c8818d85b1b60d21b6064820152608401610713565b600080866001600160a01b03168587604051612c3a91906131fa565b60006040518083038185875af1925050503d8060008114612c77576040519150601f19603f3d011682016040523d82523d6000602084013e612c7c565b606091505b5091509150611ba58783838760608315612cf7578251600003612cf0576001600160a01b0385163b612cf05760405162461bcd60e51b815260206004820152601d60248201527f416464726573733a2063616c6c20746f206e6f6e2d636f6e74726163740000006044820152606401610713565b5081612bb5565b612bb58383815115612d0c5781518083602001fd5b8060405162461bcd60e51b81526004016107139190613216565b600060208284031215612d3857600080fd5b5035919050565b6001600160a01b038116811461068557600080fd5b600080600060608486031215612d6957600080fd5b83359250602084013591506040840135612d8281612d3f565b809150509250925092565b600060208284031215612d9f57600080fd5b8135612daa81612d3f565b9392505050565b801515811461068557600080fd5b803561ffff81168114612dd157600080fd5b919050565b600080600080600060a08688031215612dee57600080fd5b85359450602086013593506040860135612e0781612db1565b9250612e1560608701612dbf565b91506080860135612e2581612d3f565b809150509295509295909350565b60008060408385031215612e4657600080fd5b50508035926020909101359150565b634e487b7160e01b600052604160045260246000fd5b604051601f8201601f1916810167ffffffffffffffff81118282101715612e9457612e94612e55565b604052919050565b600067ffffffffffffffff821115612eb657612eb6612e55565b5060051b60200190565b600082601f830112612ed157600080fd5b81356020612ee6612ee183612e9c565b612e6b565b82815260059290921b84018101918181019086841115612f0557600080fd5b8286015b84811015612f29578035612f1c81612db1565b8352918301918301612f09565b509695505050505050565b60008060408385031215612f4757600080fd5b823567ffffffffffffffff80821115612f5f57600080fd5b818501915085601f830112612f7357600080fd5b81356020612f83612ee183612e9c565b82815260059290921b84018101918181019089841115612fa257600080fd5b948201945b83861015612fc9578535612fba81612d3f565b82529482019490820190612fa7565b96505086013592505080821115612fdf57600080fd5b50612fec85828601612ec0565b9150509250929050565b6000806040838503121561300957600080fd5b82359150602083013561301b81612d3f565b809150509250929050565b600080600080600060a0868803121561303e57600080fd5b85359450602086013561305081612d3f565b93506040860135612e0781612db1565b6000806040838503121561307357600080fd5b823561307e81612d3f565b9150602083013561301b81612db1565b634e487b7160e01b600052603260045260246000fd5b9485526001600160a01b0393841660208601529190921660408401526060830191909152608082015260a00190565b6000602082840312156130e557600080fd5b5051919050565b634e487b7160e01b600052601160045260246000fd5b808201808211156116c2576116c26130ec565b818103818111156116c2576116c26130ec565b60008261314557634e487b7160e01b600052601260045260246000fd5b500490565b60006001820161315c5761315c6130ec565b5060010190565b6000806000806080858703121561317957600080fd5b845161318481612d3f565b60208601516040870151606090970151919890975090945092505050565b6000602082840312156131b457600080fd5b8151612daa81612db1565b80820281158282048414176116c2576116c26130ec565b60005b838110156131f15781810151838201526020016131d9565b50506000910152565b6000825161320c8184602087016131d6565b9190910192915050565b60208152600082518060208401526132358160408501602087016131d6565b601f01601f1916919091016040019291505056fea2646970667358221220f023e89f3d27d7227185d743c66ff4596f995eb4c63fe81d114f98baa2fd791c64736f6c63430008110033",
  "linkReferences": {},
  "deployedLinkReferences": {}
}