{
  "_format": "hh-sol-artifact-1",
  "contractName": "ApeSwapMultiSwapRouter",
  "sourceName": "contracts/ApeSwapMultiSwapRouter.sol",
  "abi": [
    {
      "inputs": [
        {
          "internalType": "address[]",
          "name": "_factories",
          "type": "address[]"
        },
        {
          "internalType": "address",
          "name": "_WETH9",
          "type": "address"
        }
      ],
      "stateMutability": "nonpayable",
      "type": "constructor"
    },
    {
      "anonymous": false,
      "inputs": [
        {
          "indexed": false,
          "internalType": "address",
          "name": "router",
          "type": "address"
        }
      ],
      "name": "FactoryAdded",
      "type": "event"
    },
    {
      "anonymous": false,
      "inputs": [
        {
          "indexed": false,
          "internalType": "address",
          "name": "router",
          "type": "address"
        }
      ],
      "name": "FactoryRemoved",
      "type": "event"
    },
    {
      "anonymous": false,
      "inputs": [
        {
          "indexed": true,
          "internalType": "address",
          "name": "previousOwner",
          "type": "address"
        },
        {
          "indexed": true,
          "internalType": "address",
          "name": "newOwner",
          "type": "address"
        }
      ],
      "name": "OwnershipTransferred",
      "type": "event"
    },
    {
      "inputs": [],
      "name": "WETH9",
      "outputs": [
        {
          "internalType": "address",
          "name": "",
          "type": "address"
        }
      ],
      "stateMutability": "view",
      "type": "function"
    },
    {
      "inputs": [
        {
          "internalType": "address",
          "name": "_factory",
          "type": "address"
        }
      ],
      "name": "addFactory",
      "outputs": [],
      "stateMutability": "nonpayable",
      "type": "function"
    },
    {
      "inputs": [
        {
          "internalType": "contract IApeRouter02",
          "name": "router",
          "type": "address"
        },
        {
          "internalType": "address",
          "name": "tokenA",
          "type": "address"
        },
        {
          "internalType": "address",
          "name": "tokenB",
          "type": "address"
        },
        {
          "internalType": "uint256",
          "name": "amountADesired",
          "type": "uint256"
        },
        {
          "internalType": "uint256",
          "name": "amountBDesired",
          "type": "uint256"
        },
        {
          "internalType": "uint256",
          "name": "amountAMin",
          "type": "uint256"
        },
        {
          "internalType": "uint256",
          "name": "amountBMin",
          "type": "uint256"
        },
        {
          "internalType": "address",
          "name": "to",
          "type": "address"
        }
      ],
      "name": "addLiquidity",
      "outputs": [
        {
          "internalType": "uint256",
          "name": "amountA",
          "type": "uint256"
        },
        {
          "internalType": "uint256",
          "name": "amountB",
          "type": "uint256"
        },
        {
          "internalType": "uint256",
          "name": "liquidity",
          "type": "uint256"
        }
      ],
      "stateMutability": "nonpayable",
      "type": "function"
    },
    {
      "inputs": [
        {
          "components": [
            {
              "internalType": "address",
              "name": "factory",
              "type": "address"
            },
            {
              "internalType": "bytes",
              "name": "path",
              "type": "bytes"
            },
            {
              "internalType": "address",
              "name": "recipient",
              "type": "address"
            },
            {
              "internalType": "uint256",
              "name": "amountIn",
              "type": "uint256"
            },
            {
              "internalType": "uint256",
              "name": "amountOutMinimum",
              "type": "uint256"
            }
          ],
          "internalType": "struct IV3SwapRouter.ExactInputParams",
          "name": "params",
          "type": "tuple"
        }
      ],
      "name": "exactInput",
      "outputs": [
        {
          "internalType": "uint256",
          "name": "amountOut",
          "type": "uint256"
        }
      ],
      "stateMutability": "payable",
      "type": "function"
    },
    {
      "inputs": [
        {
          "components": [
            {
              "internalType": "address",
              "name": "factory",
              "type": "address"
            },
            {
              "internalType": "address",
              "name": "tokenIn",
              "type": "address"
            },
            {
              "internalType": "address",
              "name": "tokenOut",
              "type": "address"
            },
            {
              "internalType": "uint24",
              "name": "fee",
              "type": "uint24"
            },
            {
              "internalType": "address",
              "name": "recipient",
              "type": "address"
            },
            {
              "internalType": "uint256",
              "name": "amountIn",
              "type": "uint256"
            },
            {
              "internalType": "uint256",
              "name": "amountOutMinimum",
              "type": "uint256"
            },
            {
              "internalType": "uint160",
              "name": "sqrtPriceLimitX96",
              "type": "uint160"
            }
          ],
          "internalType": "struct IV3SwapRouter.ExactInputSingleParams",
          "name": "params",
          "type": "tuple"
        }
      ],
      "name": "exactInputSingle",
      "outputs": [
        {
          "internalType": "uint256",
          "name": "amountOut",
          "type": "uint256"
        }
      ],
      "stateMutability": "payable",
      "type": "function"
    },
    {
      "inputs": [
        {
          "components": [
            {
              "internalType": "address",
              "name": "factory",
              "type": "address"
            },
            {
              "internalType": "bytes",
              "name": "path",
              "type": "bytes"
            },
            {
              "internalType": "address",
              "name": "recipient",
              "type": "address"
            },
            {
              "internalType": "uint256",
              "name": "amountOut",
              "type": "uint256"
            },
            {
              "internalType": "uint256",
              "name": "amountInMaximum",
              "type": "uint256"
            }
          ],
          "internalType": "struct IV3SwapRouter.ExactOutputParams",
          "name": "params",
          "type": "tuple"
        }
      ],
      "name": "exactOutput",
      "outputs": [
        {
          "internalType": "uint256",
          "name": "amountIn",
          "type": "uint256"
        }
      ],
      "stateMutability": "payable",
      "type": "function"
    },
    {
      "inputs": [
        {
          "components": [
            {
              "internalType": "address",
              "name": "factory",
              "type": "address"
            },
            {
              "internalType": "address",
              "name": "tokenIn",
              "type": "address"
            },
            {
              "internalType": "address",
              "name": "tokenOut",
              "type": "address"
            },
            {
              "internalType": "uint24",
              "name": "fee",
              "type": "uint24"
            },
            {
              "internalType": "address",
              "name": "recipient",
              "type": "address"
            },
            {
              "internalType": "uint256",
              "name": "amountOut",
              "type": "uint256"
            },
            {
              "internalType": "uint256",
              "name": "amountInMaximum",
              "type": "uint256"
            },
            {
              "internalType": "uint160",
              "name": "sqrtPriceLimitX96",
              "type": "uint160"
            }
          ],
          "internalType": "struct IV3SwapRouter.ExactOutputSingleParams",
          "name": "params",
          "type": "tuple"
        }
      ],
      "name": "exactOutputSingle",
      "outputs": [
        {
          "internalType": "uint256",
          "name": "amountIn",
          "type": "uint256"
        }
      ],
      "stateMutability": "payable",
      "type": "function"
    },
    {
      "inputs": [
        {
          "internalType": "address",
          "name": "",
          "type": "address"
        }
      ],
      "name": "factories",
      "outputs": [
        {
          "internalType": "bool",
          "name": "",
          "type": "bool"
        }
      ],
      "stateMutability": "view",
      "type": "function"
    },
    {
      "inputs": [],
      "name": "factory",
      "outputs": [
        {
          "internalType": "address",
          "name": "",
          "type": "address"
        }
      ],
      "stateMutability": "view",
      "type": "function"
    },
    {
      "inputs": [
        {
          "internalType": "bytes32",
          "name": "previousBlockhash",
          "type": "bytes32"
        },
        {
          "internalType": "bytes[]",
          "name": "data",
          "type": "bytes[]"
        }
      ],
      "name": "multicall",
      "outputs": [
        {
          "internalType": "bytes[]",
          "name": "",
          "type": "bytes[]"
        }
      ],
      "stateMutability": "payable",
      "type": "function"
    },
    {
      "inputs": [
        {
          "internalType": "uint256",
          "name": "deadline",
          "type": "uint256"
        },
        {
          "internalType": "bytes[]",
          "name": "data",
          "type": "bytes[]"
        }
      ],
      "name": "multicall",
      "outputs": [
        {
          "internalType": "bytes[]",
          "name": "",
          "type": "bytes[]"
        }
      ],
      "stateMutability": "payable",
      "type": "function"
    },
    {
      "inputs": [
        {
          "internalType": "bytes[]",
          "name": "data",
          "type": "bytes[]"
        }
      ],
      "name": "multicall",
      "outputs": [
        {
          "internalType": "bytes[]",
          "name": "results",
          "type": "bytes[]"
        }
      ],
      "stateMutability": "payable",
      "type": "function"
    },
    {
      "inputs": [],
      "name": "owner",
      "outputs": [
        {
          "internalType": "address",
          "name": "",
          "type": "address"
        }
      ],
      "stateMutability": "view",
      "type": "function"
    },
    {
      "inputs": [
        {
          "internalType": "address",
          "name": "token",
          "type": "address"
        },
        {
          "internalType": "uint256",
          "name": "value",
          "type": "uint256"
        }
      ],
      "name": "pull",
      "outputs": [],
      "stateMutability": "payable",
      "type": "function"
    },
    {
      "inputs": [],
      "name": "refundETH",
      "outputs": [],
      "stateMutability": "payable",
      "type": "function"
    },
    {
      "inputs": [
        {
          "internalType": "address",
          "name": "_factory",
          "type": "address"
        }
      ],
      "name": "removeFactory",
      "outputs": [],
      "stateMutability": "nonpayable",
      "type": "function"
    },
    {
      "inputs": [],
      "name": "renounceOwnership",
      "outputs": [],
      "stateMutability": "nonpayable",
      "type": "function"
    },
    {
      "inputs": [
        {
          "internalType": "contract IApeRouter02",
          "name": "router",
          "type": "address"
        },
        {
          "internalType": "uint256",
          "name": "amountIn",
          "type": "uint256"
        },
        {
          "internalType": "uint256",
          "name": "amountOutMin",
          "type": "uint256"
        },
        {
          "internalType": "address[]",
          "name": "path",
          "type": "address[]"
        },
        {
          "internalType": "address",
          "name": "to",
          "type": "address"
        }
      ],
      "name": "swapExactTokensForTokens",
      "outputs": [
        {
          "internalType": "uint256",
          "name": "amountOut",
          "type": "uint256"
        }
      ],
      "stateMutability": "payable",
      "type": "function"
    },
    {
      "inputs": [
        {
          "internalType": "contract IApeRouter02",
          "name": "router",
          "type": "address"
        },
        {
          "internalType": "uint256",
          "name": "amountOut",
          "type": "uint256"
        },
        {
          "internalType": "uint256",
          "name": "amountInMax",
          "type": "uint256"
        },
        {
          "internalType": "address[]",
          "name": "path",
          "type": "address[]"
        },
        {
          "internalType": "address",
          "name": "to",
          "type": "address"
        }
      ],
      "name": "swapTokensForExactTokens",
      "outputs": [
        {
          "internalType": "uint256",
          "name": "amountIn",
          "type": "uint256"
        }
      ],
      "stateMutability": "payable",
      "type": "function"
    },
    {
      "inputs": [
        {
          "internalType": "address",
          "name": "token",
          "type": "address"
        },
        {
          "internalType": "uint256",
          "name": "amountMinimum",
          "type": "uint256"
        },
        {
          "internalType": "address",
          "name": "recipient",
          "type": "address"
        }
      ],
      "name": "sweepToken",
      "outputs": [],
      "stateMutability": "payable",
      "type": "function"
    },
    {
      "inputs": [
        {
          "internalType": "address",
          "name": "token",
          "type": "address"
        },
        {
          "internalType": "uint256",
          "name": "amountMinimum",
          "type": "uint256"
        }
      ],
      "name": "sweepToken",
      "outputs": [],
      "stateMutability": "payable",
      "type": "function"
    },
    {
      "inputs": [
        {
          "internalType": "address",
          "name": "token",
          "type": "address"
        },
        {
          "internalType": "uint256",
          "name": "amountMinimum",
          "type": "uint256"
        },
        {
          "internalType": "uint256",
          "name": "feeBips",
          "type": "uint256"
        },
        {
          "internalType": "address",
          "name": "feeRecipient",
          "type": "address"
        }
      ],
      "name": "sweepTokenWithFee",
      "outputs": [],
      "stateMutability": "payable",
      "type": "function"
    },
    {
      "inputs": [
        {
          "internalType": "address",
          "name": "token",
          "type": "address"
        },
        {
          "internalType": "uint256",
          "name": "amountMinimum",
          "type": "uint256"
        },
        {
          "internalType": "address",
          "name": "recipient",
          "type": "address"
        },
        {
          "internalType": "uint256",
          "name": "feeBips",
          "type": "uint256"
        },
        {
          "internalType": "address",
          "name": "feeRecipient",
          "type": "address"
        }
      ],
      "name": "sweepTokenWithFee",
      "outputs": [],
      "stateMutability": "payable",
      "type": "function"
    },
    {
      "inputs": [
        {
          "internalType": "address",
          "name": "newOwner",
          "type": "address"
        }
      ],
      "name": "transferOwnership",
      "outputs": [],
      "stateMutability": "nonpayable",
      "type": "function"
    },
    {
      "inputs": [
        {
          "internalType": "int256",
          "name": "amount0Delta",
          "type": "int256"
        },
        {
          "internalType": "int256",
          "name": "amount1Delta",
          "type": "int256"
        },
        {
          "internalType": "bytes",
          "name": "_data",
          "type": "bytes"
        }
      ],
      "name": "uniswapV3SwapCallback",
      "outputs": [],
      "stateMutability": "nonpayable",
      "type": "function"
    },
    {
      "inputs": [
        {
          "internalType": "uint256",
          "name": "amountMinimum",
          "type": "uint256"
        },
        {
          "internalType": "address",
          "name": "recipient",
          "type": "address"
        }
      ],
      "name": "unwrapWETH9",
      "outputs": [],
      "stateMutability": "payable",
      "type": "function"
    },
    {
      "inputs": [
        {
          "internalType": "uint256",
          "name": "amountMinimum",
          "type": "uint256"
        }
      ],
      "name": "unwrapWETH9",
      "outputs": [],
      "stateMutability": "payable",
      "type": "function"
    },
    {
      "inputs": [
        {
          "internalType": "uint256",
          "name": "amountMinimum",
          "type": "uint256"
        },
        {
          "internalType": "address",
          "name": "recipient",
          "type": "address"
        },
        {
          "internalType": "uint256",
          "name": "feeBips",
          "type": "uint256"
        },
        {
          "internalType": "address",
          "name": "feeRecipient",
          "type": "address"
        }
      ],
      "name": "unwrapWETH9WithFee",
      "outputs": [],
      "stateMutability": "payable",
      "type": "function"
    },
    {
      "inputs": [
        {
          "internalType": "uint256",
          "name": "amountMinimum",
          "type": "uint256"
        },
        {
          "internalType": "uint256",
          "name": "feeBips",
          "type": "uint256"
        },
        {
          "internalType": "address",
          "name": "feeRecipient",
          "type": "address"
        }
      ],
      "name": "unwrapWETH9WithFee",
      "outputs": [],
      "stateMutability": "payable",
      "type": "function"
    },
    {
      "inputs": [
        {
          "internalType": "uint256",
          "name": "value",
          "type": "uint256"
        }
      ],
      "name": "wrapETH",
      "outputs": [],
      "stateMutability": "payable",
      "type": "function"
    },
    {
      "stateMutability": "payable",
      "type": "receive"
    }
  ],
  "bytecode": "0x60c06040526000196002553480156200001757600080fd5b5060405162005822380380620058228339810160408190526200003a916200012e565b600060808190526001600160601b0319606083901b1660a05282906200005f6200010d565b600080546001600160a01b0319166001600160a01b0383169081178255604051929350917f8be0079c531659141344cd1fd0a4f28419497f9722a3daafe3b4186f6b6457e0908290a35060005b815181101562000103576001806000848481518110620000c857fe5b6020908102919091018101516001600160a01b03168252810191909152604001600020805460ff1916911515919091179055600101620000ac565b5050505062000200565b3390565b80516001600160a01b03811681146200012957600080fd5b919050565b6000806040838503121562000141578182fd5b82516001600160401b038082111562000158578384fd5b818501915085601f8301126200016c578384fd5b81516020828211156200017b57fe5b808202604051828282010181811086821117156200019557fe5b604052838152828101945085830182870184018b1015620001b4578889fd5b8896505b84871015620001e157620001cc8162000111565b865260019690960195948301948301620001b8565b509650620001f3905087820162000111565b9450505050509250929050565b60805160601c60a05160601c6155cb62000257600039806101ee52806107045280610c085280610d325280610dd95280611c115280611d3b5280613720528061378052806138015250806124a852506155cb6000f3fe6080604052600436106101d15760003560e01c8063786707e1116100f7578063d4ef38de11610095578063f2d5d56b11610064578063f2d5d56b146104d2578063f2fde38b146104e5578063fa461e3314610505578063fab52689146105255761027c565b8063d4ef38de14610486578063df2ab5bb14610499578063e0e189a0146104ac578063e90a182f146104bf5761027c565b80639b2c0a37116100d15780639b2c0a3714610438578063a3a4bc9a1461044b578063ac9650d81461045e578063c45a0155146104715761027c565b8063786707e1146103fd578063882f3b85146104105780638da5cb5b146104235761027c565b806349404b7c1161016f57806352f897f51161013e57806352f897f5146103935780635ae401dc146103c2578063715018a6146103d557806372cce0b8146103ea5761027c565b806349404b7c1461032b578063496169971461033e5780634aa4a4fc146103515780634b37c73f146103735761027c565b80631f0464d1116101ab5780631f0464d1146102c557806329ce1ec5146102e55780633068c554146103055780633fb49a1e146103185761027c565b80630c73b1e81461028157806312210e8a146102aa5780631c58db4f146102b25761027c565b3661027c573373ffffffffffffffffffffffffffffffffffffffff7f0000000000000000000000000000000000000000000000000000000000000000161461027a57604080517f08c379a000000000000000000000000000000000000000000000000000000000815260206004820152600960248201527f4e6f742057455448390000000000000000000000000000000000000000000000604482015290519081900360640190fd5b005b600080fd5b61029461028f366004614e68565b610552565b6040516102a191906153ba565b60405180910390f35b61027a6106f0565b61027a6102c0366004614fa5565b610702565b6102d86102d3366004614ab6565b610786565b6040516102a191906151fe565b3480156102f157600080fd5b5061027a610300366004614883565b61080e565b61027a61031336600461498c565b6109d2565b610294610326366004614db8565b6109e5565b61027a610339366004614fd5565b610c04565b61027a61034c366004614fa5565b610dca565b34801561035d57600080fd5b50610366610dd7565b6040516102a1919061512f565b34801561037f57600080fd5b5061027a61038e366004614883565b610dfb565b34801561039f57600080fd5b506103b36103ae366004614b00565b610fba565b6040516102a19392919061546d565b6102d86103d0366004614ab6565b61128f565b3480156103e157600080fd5b5061027a611308565b6102946103f8366004614ea0565b61141f565b61029461040b366004614d06565b6115ba565b61029461041e366004614b84565b61181f565b34801561042f57600080fd5b50610366611bd7565b61027a610446366004615004565b611bf3565b610294610459366004614b84565b611e09565b6102d861046c3660046149d5565b61234c565b34801561047d57600080fd5b506103666124a6565b61027a610494366004615042565b6124ca565b61027a6104a73660046148ed565b6124d6565b61027a6104ba36600461492e565b6125ed565b61027a6104cd3660046148c2565b612753565b61027a6104e03660046148c2565b612762565b3480156104f157600080fd5b5061027a610500366004614883565b61276e565b34801561051157600080fd5b5061027a610520366004614c21565b61290f565b34801561053157600080fd5b50610545610540366004614883565b612bc9565b6040516102a1919061527c565b60006105616020830183614883565b73ffffffffffffffffffffffffffffffffffffffff811660009081526001602052604090205460ff166105f557604080517f08c379a000000000000000000000000000000000000000000000000000000000815260206004820152601760248201527f466163746f7279206e6f742077686974656c6973746564000000000000000000604482015290519081900360640190fd5b6106796106056020850185614883565b606085018035906106199060408801614883565b600060405180604001604052808980602001906106369190615483565b8080601f01602080910402602001604051908101604052809392919081815260200183838082843760009201919091525050509082525033602090910152612bde565b50600254915082608001358211156106c6576040517f08c379a00000000000000000000000000000000000000000000000000000000081526004016106bd9061529a565b60405180910390fd5b507fffffffffffffffffffffffffffffffffffffffffffffffffffffffffffffffff600255919050565b4715610700576107003347612dc7565b565b7f000000000000000000000000000000000000000000000000000000000000000073ffffffffffffffffffffffffffffffffffffffff1663d0e30db0826040518263ffffffff1660e01b81526004016000604051808303818588803b15801561076a57600080fd5b505af115801561077e573d6000803e3d6000fd5b505050505050565b606083806001430340146107fb57604080517f08c379a000000000000000000000000000000000000000000000000000000000815260206004820152600960248201527f426c6f636b686173680000000000000000000000000000000000000000000000604482015290519081900360640190fd5b610805848461234c565b95945050505050565b610816612f15565b73ffffffffffffffffffffffffffffffffffffffff16610834611bd7565b73ffffffffffffffffffffffffffffffffffffffff16146108b657604080517f08c379a000000000000000000000000000000000000000000000000000000000815260206004820181905260248201527f4f776e61626c653a2063616c6c6572206973206e6f7420746865206f776e6572604482015290519081900360640190fd5b73ffffffffffffffffffffffffffffffffffffffff811660009081526001602052604090205460ff161561094b57604080517f08c379a000000000000000000000000000000000000000000000000000000000815260206004820152601860248201527f466163746f727920697320616c72656164792061646465640000000000000000604482015290519081900360640190fd5b73ffffffffffffffffffffffffffffffffffffffff811660008181526001602081815260409283902080547fffffffffffffffffffffffffffffffffffffffffffffffffffffffffffffff0016909217909155815192835290517f6fdc0147105e43e21da80a75b42d0fd464060d5e1a34b0cefbf0b4ccfc2e36a19281900390910190a150565b6109df84843385856125ed565b50505050565b805173ffffffffffffffffffffffffffffffffffffffff811660009081526001602052604081205490919060ff16610a7e57604080517f08c379a000000000000000000000000000000000000000000000000000000000815260206004820152601760248201527f466163746f7279206e6f742077686974656c6973746564000000000000000000604482015290519081900360640190fd5b6000808460a001511415610b3c575060208301516040517f70a0823100000000000000000000000000000000000000000000000000000000815260019173ffffffffffffffffffffffffffffffffffffffff16906370a0823190610ae690309060040161512f565b60206040518083038186803b158015610afe57600080fd5b505afa158015610b12573d6000803e3d6000fd5b505050506040513d601f19601f82011682018060405250810190610b369190614fbd565b60a08501525b610bbd84600001518560a0015186608001518760e0015160405180604001604052808a602001518b606001518c60400151604051602001610b7f939291906150b9565b604051602081830303815290604052815260200187610b9e5733610ba0565b305b73ffffffffffffffffffffffffffffffffffffffff169052612f19565b92508360c00151831015610bfd576040517f08c379a00000000000000000000000000000000000000000000000000000000081526004016106bd9061533b565b5050919050565b60007f000000000000000000000000000000000000000000000000000000000000000073ffffffffffffffffffffffffffffffffffffffff166370a08231306040518263ffffffff1660e01b8152600401808273ffffffffffffffffffffffffffffffffffffffff16815260200191505060206040518083038186803b158015610c8d57600080fd5b505afa158015610ca1573d6000803e3d6000fd5b505050506040513d6020811015610cb757600080fd5b5051905082811015610d2a57604080517f08c379a000000000000000000000000000000000000000000000000000000000815260206004820152601260248201527f496e73756666696369656e742057455448390000000000000000000000000000604482015290519081900360640190fd5b8015610dc5577f000000000000000000000000000000000000000000000000000000000000000073ffffffffffffffffffffffffffffffffffffffff16632e1a7d4d826040518263ffffffff1660e01b815260040180828152602001915050600060405180830381600087803b158015610da357600080fd5b505af1158015610db7573d6000803e3d6000fd5b50505050610dc58282612dc7565b505050565b610dd48133610c04565b50565b7f000000000000000000000000000000000000000000000000000000000000000081565b610e03612f15565b73ffffffffffffffffffffffffffffffffffffffff16610e21611bd7565b73ffffffffffffffffffffffffffffffffffffffff1614610ea357604080517f08c379a000000000000000000000000000000000000000000000000000000000815260206004820181905260248201527f4f776e61626c653a2063616c6c6572206973206e6f7420746865206f776e6572604482015290519081900360640190fd5b73ffffffffffffffffffffffffffffffffffffffff811660009081526001602052604090205460ff16610f3757604080517f08c379a000000000000000000000000000000000000000000000000000000000815260206004820152601660248201527f466163746f7279206973206e6f742070726573656e7400000000000000000000604482015290519081900360640190fd5b73ffffffffffffffffffffffffffffffffffffffff811660008181526001602090815260409182902080547fffffffffffffffffffffffffffffffffffffffffffffffffffffffffffffff00169055815192835290517fafa2737b2090fa39c66b7348625f0c03726240f724defbc6216d679506f944419281900390910190a150565b73ffffffffffffffffffffffffffffffffffffffff8816600090815260016020526040812054819081908b9060ff1661105457604080517f08c379a000000000000000000000000000000000000000000000000000000000815260206004820152601760248201527f466163746f7279206e6f742077686974656c6973746564000000000000000000604482015290519081900360640190fd5b6110638c8c8c8c8c8c8c6130cc565b809450819550505060008c73ffffffffffffffffffffffffffffffffffffffff1663c45a01556040518163ffffffff1660e01b815260040160206040518083038186803b1580156110b357600080fd5b505afa1580156110c7573d6000803e3d6000fd5b505050506040513d601f19601f820116820180604052508101906110eb91906148a6565b73ffffffffffffffffffffffffffffffffffffffff1663e6a439058d8d6040518363ffffffff1660e01b8152600401611125929190615150565b60206040518083038186803b15801561113d57600080fd5b505afa158015611151573d6000803e3d6000fd5b505050506040513d601f19601f8201168201806040525081019061117591906148a6565b90506111838c33838861371e565b61118f8b33838761371e565b73ffffffffffffffffffffffffffffffffffffffff8616600114156111b6573395506111d9565b73ffffffffffffffffffffffffffffffffffffffff8616600214156111d9573095505b6040517f6a62784200000000000000000000000000000000000000000000000000000000815273ffffffffffffffffffffffffffffffffffffffff821690636a6278429061122b90899060040161512f565b602060405180830381600087803b15801561124557600080fd5b505af1158015611259573d6000803e3d6000fd5b505050506040513d601f19601f8201168201806040525081019061127d9190614fbd565b92505050985098509895505050505050565b6060838061129b6138fc565b11156107fb57604080517f08c379a000000000000000000000000000000000000000000000000000000000815260206004820152601360248201527f5472616e73616374696f6e20746f6f206f6c6400000000000000000000000000604482015290519081900360640190fd5b611310612f15565b73ffffffffffffffffffffffffffffffffffffffff1661132e611bd7565b73ffffffffffffffffffffffffffffffffffffffff16146113b057604080517f08c379a000000000000000000000000000000000000000000000000000000000815260206004820181905260248201527f4f776e61626c653a2063616c6c6572206973206e6f7420746865206f776e6572604482015290519081900360640190fd5b6000805460405173ffffffffffffffffffffffffffffffffffffffff909116907f8be0079c531659141344cd1fd0a4f28419497f9722a3daafe3b4186f6b6457e0908390a3600080547fffffffffffffffffffffffff0000000000000000000000000000000000000000169055565b600061142e6020830183614883565b73ffffffffffffffffffffffffffffffffffffffff811660009081526001602052604090205460ff166114c257604080517f08c379a000000000000000000000000000000000000000000000000000000000815260206004820152601760248201527f466163746f7279206e6f742077686974656c6973746564000000000000000000604482015290519081900360640190fd5b61157a6114d26020850185614883565b60a085018035906114e69060808801614883565b6114f7610100880160e08901614883565b60405180604001604052808960400160208101906115159190614883565b61152560808c0160608d01614f8b565b61153560408d0160208e01614883565b604051602001611547939291906150b9565b60405160208183030381529060405281526020013373ffffffffffffffffffffffffffffffffffffffff16815250612bde565b91508260c001358211156106c6576040517f08c379a00000000000000000000000000000000000000000000000000000000081526004016106bd9061529a565b805173ffffffffffffffffffffffffffffffffffffffff811660009081526001602052604081205490919060ff1661165357604080517f08c379a000000000000000000000000000000000000000000000000000000000815260206004820152601760248201527f466163746f7279206e6f742077686974656c6973746564000000000000000000604482015290519081900360640190fd5b60008084606001511415611722576001905060006116748560200151613900565b50506040517f70a0823100000000000000000000000000000000000000000000000000000000815290915073ffffffffffffffffffffffffffffffffffffffff8216906370a08231906116cb90309060040161512f565b60206040518083038186803b1580156116e357600080fd5b505afa1580156116f7573d6000803e3d6000fd5b505050506040513d601f19601f8201168201806040525081019061171b9190614fbd565b6060860152505b60008161172f5733611731565b305b90505b60006117438660200151613931565b90506117a18660000151876060015183611761578860400151611763565b305b6000604051806040016040528061177d8d6020015161393d565b81526020018873ffffffffffffffffffffffffffffffffffffffff16815250612f19565b606087015280156117c6573091506117bc8660200151613952565b60208701526117d3565b85606001519450506117d9565b50611734565b8460800151841015611817576040517f08c379a00000000000000000000000000000000000000000000000000000000081526004016106bd9061533b565b505050919050565b73ffffffffffffffffffffffffffffffffffffffff8616600090815260016020526040812054879060ff166118b557604080517f08c379a000000000000000000000000000000000000000000000000000000000815260206004820152601760248201527f466163746f7279206e6f742077686974656c6973746564000000000000000000604482015290519081900360640190fd5b6040517f1f00ca7400000000000000000000000000000000000000000000000000000000815273ffffffffffffffffffffffffffffffffffffffff891690631f00ca749061190b908a90899089906004016153c3565b60006040518083038186803b15801561192357600080fd5b505afa158015611937573d6000803e3d6000fd5b505050506040513d6000823e601f3d9081017fffffffffffffffffffffffffffffffffffffffffffffffffffffffffffffffe016820160405261197d9190810190614a15565b60008151811061198957fe5b60200260200101519150858211156119cd576040517f08c379a00000000000000000000000000000000000000000000000000000000081526004016106bd9061529a565b611b43858560008181106119dd57fe5b90506020020160208101906119f29190614883565b338a73ffffffffffffffffffffffffffffffffffffffff1663c45a01556040518163ffffffff1660e01b815260040160206040518083038186803b158015611a3957600080fd5b505afa158015611a4d573d6000803e3d6000fd5b505050506040513d601f19601f82011682018060405250810190611a7191906148a6565b73ffffffffffffffffffffffffffffffffffffffff1663e6a4390589896000818110611a9957fe5b9050602002016020810190611aae9190614883565b8a8a6001818110611abb57fe5b9050602002016020810190611ad09190614883565b6040518363ffffffff1660e01b8152600401611aed929190615150565b60206040518083038186803b158015611b0557600080fd5b505afa158015611b19573d6000803e3d6000fd5b505050506040513d601f19601f82011682018060405250810190611b3d91906148a6565b8561371e565b73ffffffffffffffffffffffffffffffffffffffff831660011415611b6a57339250611b8d565b73ffffffffffffffffffffffffffffffffffffffff831660021415611b8d573092505b611bcc88868680806020026020016040519081016040528093929190818152602001838360200280828437600092019190915250889250613987915050565b509695505050505050565b60005473ffffffffffffffffffffffffffffffffffffffff1690565b600082118015611c04575060648211155b611c0d57600080fd5b60007f000000000000000000000000000000000000000000000000000000000000000073ffffffffffffffffffffffffffffffffffffffff166370a08231306040518263ffffffff1660e01b8152600401808273ffffffffffffffffffffffffffffffffffffffff16815260200191505060206040518083038186803b158015611c9657600080fd5b505afa158015611caa573d6000803e3d6000fd5b505050506040513d6020811015611cc057600080fd5b5051905084811015611d3357604080517f08c379a000000000000000000000000000000000000000000000000000000000815260206004820152601260248201527f496e73756666696369656e742057455448390000000000000000000000000000604482015290519081900360640190fd5b8015611e02577f000000000000000000000000000000000000000000000000000000000000000073ffffffffffffffffffffffffffffffffffffffff16632e1a7d4d826040518263ffffffff1660e01b815260040180828152602001915050600060405180830381600087803b158015611dac57600080fd5b505af1158015611dc0573d6000803e3d6000fd5b505050506000612710611ddc8584613f1590919063ffffffff16565b81611de357fe5b0490508015611df657611df68382612dc7565b61077e85828403612dc7565b5050505050565b73ffffffffffffffffffffffffffffffffffffffff8616600090815260016020526040812054879060ff16611e9f57604080517f08c379a000000000000000000000000000000000000000000000000000000000815260206004820152601760248201527f466163746f7279206e6f742077686974656c6973746564000000000000000000604482015290519081900360640190fd5b600087611f54575060018585600081611eb457fe5b9050602002016020810190611ec99190614883565b73ffffffffffffffffffffffffffffffffffffffff166370a08231306040518263ffffffff1660e01b8152600401611f01919061512f565b60206040518083038186803b158015611f1957600080fd5b505afa158015611f2d573d6000803e3d6000fd5b505050506040513d601f19601f82011682018060405250810190611f519190614fbd565b97505b6120d686866000818110611f6457fe5b9050602002016020810190611f799190614883565b82611f845733611f86565b305b8b73ffffffffffffffffffffffffffffffffffffffff1663c45a01556040518163ffffffff1660e01b815260040160206040518083038186803b158015611fcc57600080fd5b505afa158015611fe0573d6000803e3d6000fd5b505050506040513d601f19601f8201168201806040525081019061200491906148a6565b73ffffffffffffffffffffffffffffffffffffffff1663e6a439058a8a600081811061202c57fe5b90506020020160208101906120419190614883565b8b8b600181811061204e57fe5b90506020020160208101906120639190614883565b6040518363ffffffff1660e01b8152600401612080929190615150565b60206040518083038186803b15801561209857600080fd5b505afa1580156120ac573d6000803e3d6000fd5b505050506040513d601f19601f820116820180604052508101906120d091906148a6565b8b61371e565b73ffffffffffffffffffffffffffffffffffffffff8416600114156120fd57339350612120565b73ffffffffffffffffffffffffffffffffffffffff841660021415612120573093505b600086867fffffffffffffffffffffffffffffffffffffffffffffffffffffffffffffffff810181811061215057fe5b90506020020160208101906121659190614883565b73ffffffffffffffffffffffffffffffffffffffff166370a08231866040518263ffffffff1660e01b815260040161219d919061512f565b60206040518083038186803b1580156121b557600080fd5b505afa1580156121c9573d6000803e3d6000fd5b505050506040513d601f19601f820116820180604052508101906121ed9190614fbd565b905061222e8a8888808060200260200160405190810160405280939291908181526020018383602002808284376000920191909152508a9250613987915050565b6123038188887fffffffffffffffffffffffffffffffffffffffffffffffffffffffffffffffff810181811061226057fe5b90506020020160208101906122759190614883565b73ffffffffffffffffffffffffffffffffffffffff166370a08231886040518263ffffffff1660e01b81526004016122ad919061512f565b60206040518083038186803b1580156122c557600080fd5b505afa1580156122d9573d6000803e3d6000fd5b505050506040513d601f19601f820116820180604052508101906122fd9190614fbd565b90613f39565b93508784101561233f576040517f08c379a00000000000000000000000000000000000000000000000000000000081526004016106bd9061533b565b5050509695505050505050565b60608167ffffffffffffffff8111801561236557600080fd5b5060405190808252806020026020018201604052801561239957816020015b60608152602001906001900390816123845790505b50905060005b8281101561249f57600080308686858181106123b757fe5b90506020028101906123c99190615483565b6040516123d792919061511f565b600060405180830381855af49150503d8060008114612412576040519150601f19603f3d011682016040523d82523d6000602084013e612417565b606091505b50915091508161247d5760448151101561243057600080fd5b6004810190508080602001905181019061244a9190614c9c565b6040517f08c379a00000000000000000000000000000000000000000000000000000000081526004016106bd9190615287565b8084848151811061248a57fe5b6020908102919091010152505060010161239f565b5092915050565b7f000000000000000000000000000000000000000000000000000000000000000081565b610dc583338484611bf3565b60008373ffffffffffffffffffffffffffffffffffffffff166370a08231306040518263ffffffff1660e01b8152600401808273ffffffffffffffffffffffffffffffffffffffff16815260200191505060206040518083038186803b15801561253f57600080fd5b505afa158015612553573d6000803e3d6000fd5b505050506040513d602081101561256957600080fd5b50519050828110156125dc57604080517f08c379a000000000000000000000000000000000000000000000000000000000815260206004820152601260248201527f496e73756666696369656e7420746f6b656e0000000000000000000000000000604482015290519081900360640190fd5b80156109df576109df848383613f49565b6000821180156125fe575060648211155b61260757600080fd5b60008573ffffffffffffffffffffffffffffffffffffffff166370a08231306040518263ffffffff1660e01b8152600401808273ffffffffffffffffffffffffffffffffffffffff16815260200191505060206040518083038186803b15801561267057600080fd5b505afa158015612684573d6000803e3d6000fd5b505050506040513d602081101561269a57600080fd5b505190508481101561270d57604080517f08c379a000000000000000000000000000000000000000000000000000000000815260206004820152601260248201527f496e73756666696369656e7420746f6b656e0000000000000000000000000000604482015290519081900360640190fd5b801561077e5760006127106127228386613f15565b8161272957fe5b049050801561273d5761273d878483613f49565b61274a8786838503613f49565b50505050505050565b61275e8282336124d6565b5050565b61275e8233308461411e565b612776612f15565b73ffffffffffffffffffffffffffffffffffffffff16612794611bd7565b73ffffffffffffffffffffffffffffffffffffffff161461281657604080517f08c379a000000000000000000000000000000000000000000000000000000000815260206004820181905260248201527f4f776e61626c653a2063616c6c6572206973206e6f7420746865206f776e6572604482015290519081900360640190fd5b73ffffffffffffffffffffffffffffffffffffffff8116612882576040517f08c379a00000000000000000000000000000000000000000000000000000000081526004018080602001828103825260268152602001806155996026913960400191505060405180910390fd5b6000805460405173ffffffffffffffffffffffffffffffffffffffff808516939216917f8be0079c531659141344cd1fd0a4f28419497f9722a3daafe3b4186f6b6457e091a3600080547fffffffffffffffffffffffff00000000000000000000000000000000000000001673ffffffffffffffffffffffffffffffffffffffff92909216919091179055565b3373ffffffffffffffffffffffffffffffffffffffff1663c45a01556040518163ffffffff1660e01b815260040160206040518083038186803b15801561295557600080fd5b505afa158015612969573d6000803e3d6000fd5b505050506040513d601f19601f8201168201806040525081019061298d91906148a6565b73ffffffffffffffffffffffffffffffffffffffff811660009081526001602052604090205460ff16612a2157604080517f08c379a000000000000000000000000000000000000000000000000000000000815260206004820152601760248201527f466163746f7279206e6f742077686974656c6973746564000000000000000000604482015290519081900360640190fd5b6000851380612a305750600084135b612a3957600080fd5b6000612a4783850185614eb8565b90506000806000612a5b8460000151613900565b92509250925060008060008b13612aa1578473ffffffffffffffffffffffffffffffffffffffff168473ffffffffffffffffffffffffffffffffffffffff16108a612ad2565b8373ffffffffffffffffffffffffffffffffffffffff168573ffffffffffffffffffffffffffffffffffffffff16108b5b915091508115612af157612aec858760200151338461371e565b612bbc565b8551612afc90613931565b15612ba5578551612b0c90613952565b8660000181905250612b9f3373ffffffffffffffffffffffffffffffffffffffff1663c45a01556040518163ffffffff1660e01b815260040160206040518083038186803b158015612b5d57600080fd5b505afa158015612b71573d6000803e3d6000fd5b505050506040513d601f19601f82011682018060405250810190612b9591906148a6565b823360008a612bde565b50612bbc565b80600281905550612bbc848760200151338461371e565b5050505050505050505050565b60016020526000908152604090205460ff1681565b600073ffffffffffffffffffffffffffffffffffffffff841660011415612c0757339350612c2a565b73ffffffffffffffffffffffffffffffffffffffff841660021415612c2a573093505b6000806000612c3c8560000151613900565b9194509250905073ffffffffffffffffffffffffffffffffffffffff80841690831610600080612c6e8c8688876142fb565b73ffffffffffffffffffffffffffffffffffffffff1663128acb088b85612c948f6143a4565b60000373ffffffffffffffffffffffffffffffffffffffff8e1615612cb9578d612cdf565b87612cd85773fffd8963efd1fc6a506488495d951d5263988d25612cdf565b6401000276a45b8d604051602001612cf09190615372565b6040516020818303038152906040526040518663ffffffff1660e01b8152600401612d1f9594939291906151ac565b6040805180830381600087803b158015612d3857600080fd5b505af1158015612d4c573d6000803e3d6000fd5b505050506040513d601f19601f82011682018060405250810190612d709190614bfe565b91509150600083612d85578183600003612d8b565b82826000035b909850905073ffffffffffffffffffffffffffffffffffffffff8a16612db7578b8114612db757600080fd5b5050505050505095945050505050565b6040805160008082526020820190925273ffffffffffffffffffffffffffffffffffffffff84169083906040518082805190602001908083835b60208310612e3e57805182527fffffffffffffffffffffffffffffffffffffffffffffffffffffffffffffffe09092019160209182019101612e01565b6001836020036101000a03801982511681845116808217855250505050505090500191505060006040518083038185875af1925050503d8060008114612ea0576040519150601f19603f3d011682016040523d82523d6000602084013e612ea5565b606091505b5050905080610dc557604080517f08c379a000000000000000000000000000000000000000000000000000000000815260206004820152600360248201527f5354450000000000000000000000000000000000000000000000000000000000604482015290519081900360640190fd5b3390565b600073ffffffffffffffffffffffffffffffffffffffff841660011415612f4257339350612f65565b73ffffffffffffffffffffffffffffffffffffffff841660021415612f65573093505b6000806000612f778560000151613900565b9194509250905073ffffffffffffffffffffffffffffffffffffffff80831690841610600080612fa98c8787876142fb565b73ffffffffffffffffffffffffffffffffffffffff1663128acb088b85612fcf8f6143a4565b73ffffffffffffffffffffffffffffffffffffffff8e1615612ff1578d613017565b876130105773fffd8963efd1fc6a506488495d951d5263988d25613017565b6401000276a45b8d6040516020016130289190615372565b6040516020818303038152906040526040518663ffffffff1660e01b81526004016130579594939291906151ac565b6040805180830381600087803b15801561307057600080fd5b505af1158015613084573d6000803e3d6000fd5b505050506040513d601f19601f820116820180604052508101906130a89190614bfe565b91509150826130b757816130b9565b805b6000039c9b505050505050505050505050565b600080600073ffffffffffffffffffffffffffffffffffffffff168973ffffffffffffffffffffffffffffffffffffffff1663c45a01556040518163ffffffff1660e01b815260040160206040518083038186803b15801561312d57600080fd5b505afa158015613141573d6000803e3d6000fd5b505050506040513d601f19601f8201168201806040525081019061316591906148a6565b73ffffffffffffffffffffffffffffffffffffffff1663e6a439058a8a6040518363ffffffff1660e01b815260040161319f929190615150565b60206040518083038186803b1580156131b757600080fd5b505afa1580156131cb573d6000803e3d6000fd5b505050506040513d601f19601f820116820180604052508101906131ef91906148a6565b73ffffffffffffffffffffffffffffffffffffffff161415613317578873ffffffffffffffffffffffffffffffffffffffff1663c45a01556040518163ffffffff1660e01b815260040160206040518083038186803b15801561325157600080fd5b505afa158015613265573d6000803e3d6000fd5b505050506040513d601f19601f8201168201806040525081019061328991906148a6565b73ffffffffffffffffffffffffffffffffffffffff1663c9c6539689896040518363ffffffff1660e01b81526004016132c3929190615150565b602060405180830381600087803b1580156132dd57600080fd5b505af11580156132f1573d6000803e3d6000fd5b505050506040513d601f19601f8201168201806040525081019061331591906148a6565b505b6000808a73ffffffffffffffffffffffffffffffffffffffff1663c45a01556040518163ffffffff1660e01b815260040160206040518083038186803b15801561336057600080fd5b505afa158015613374573d6000803e3d6000fd5b505050506040513d601f19601f8201168201806040525081019061339891906148a6565b73ffffffffffffffffffffffffffffffffffffffff1663e6a439058b8b6040518363ffffffff1660e01b81526004016133d2929190615150565b60206040518083038186803b1580156133ea57600080fd5b505afa1580156133fe573d6000803e3d6000fd5b505050506040513d601f19601f8201168201806040525081019061342291906148a6565b73ffffffffffffffffffffffffffffffffffffffff16630902f1ac6040518163ffffffff1660e01b815260040160606040518083038186803b15801561346757600080fd5b505afa15801561347b573d6000803e3d6000fd5b505050506040513d601f19601f8201168201806040525081019061349f9190614f48565b506dffffffffffffffffffffffffffff1691506dffffffffffffffffffffffffffff1691508873ffffffffffffffffffffffffffffffffffffffff168a73ffffffffffffffffffffffffffffffffffffffff16106134fe578082613501565b81815b909250905081158015613512575080155b1561352257879350869250613710565b6040517fad615dec00000000000000000000000000000000000000000000000000000000815260009073ffffffffffffffffffffffffffffffffffffffff8d169063ad615dec9061357b908c908790879060040161546d565b60206040518083038186803b15801561359357600080fd5b505afa1580156135a7573d6000803e3d6000fd5b505050506040513d601f19601f820116820180604052508101906135cb9190614fbd565b9050878111613619578581101561360e576040517f08c379a00000000000000000000000000000000000000000000000000000000081526004016106bd906152d1565b88945092508261370e565b6040517fad615dec00000000000000000000000000000000000000000000000000000000815260009073ffffffffffffffffffffffffffffffffffffffff8e169063ad615dec90613672908c908790899060040161546d565b60206040518083038186803b15801561368a57600080fd5b505afa15801561369e573d6000803e3d6000fd5b505050506040513d601f19601f820116820180604052508101906136c29190614fbd565b9050898111156136ce57fe5b87811015613708576040517f08c379a00000000000000000000000000000000000000000000000000000000081526004016106bd90615306565b94508793505b505b505097509795505050505050565b7f000000000000000000000000000000000000000000000000000000000000000073ffffffffffffffffffffffffffffffffffffffff168473ffffffffffffffffffffffffffffffffffffffff161480156137795750804710155b156138c2577f000000000000000000000000000000000000000000000000000000000000000073ffffffffffffffffffffffffffffffffffffffff1663d0e30db0826040518263ffffffff1660e01b81526004016000604051808303818588803b1580156137e657600080fd5b505af11580156137fa573d6000803e3d6000fd5b50505050507f000000000000000000000000000000000000000000000000000000000000000073ffffffffffffffffffffffffffffffffffffffff1663a9059cbb83836040518363ffffffff1660e01b8152600401808373ffffffffffffffffffffffffffffffffffffffff16815260200182815260200192505050602060405180830381600087803b15801561389057600080fd5b505af11580156138a4573d6000803e3d6000fd5b505050506040513d60208110156138ba57600080fd5b506109df9050565b73ffffffffffffffffffffffffffffffffffffffff83163014156138f0576138eb848383613f49565b6109df565b6109df8484848461411e565b4290565b6000808061390e84826143d6565b925061391b8460146144d6565b90506139288460176143d6565b91509193909250565b8051604211155b919050565b606061394c826000602b6145c6565b92915050565b805160609061394c9083906017907fffffffffffffffffffffffffffffffffffffffffffffffffffffffffffffffe9016145c6565b60005b60018351038110156109df576000808483815181106139a557fe5b60200260200101518584600101815181106139bc57fe5b60200260200101519150915060008173ffffffffffffffffffffffffffffffffffffffff168373ffffffffffffffffffffffffffffffffffffffff1610613a04578183613a07565b82825b50905060008773ffffffffffffffffffffffffffffffffffffffff1663c45a01556040518163ffffffff1660e01b815260040160206040518083038186803b158015613a5257600080fd5b505afa158015613a66573d6000803e3d6000fd5b505050506040513d601f19601f82011682018060405250810190613a8a91906148a6565b73ffffffffffffffffffffffffffffffffffffffff1663e6a4390585856040518363ffffffff1660e01b8152600401613ac4929190615150565b60206040518083038186803b158015613adc57600080fd5b505afa158015613af0573d6000803e3d6000fd5b505050506040513d601f19601f82011682018060405250810190613b1491906148a6565b90506000806000808473ffffffffffffffffffffffffffffffffffffffff16630902f1ac6040518163ffffffff1660e01b815260040160606040518083038186803b158015613b6257600080fd5b505afa158015613b76573d6000803e3d6000fd5b505050506040513d601f19601f82011682018060405250810190613b9a9190614f48565b506dffffffffffffffffffffffffffff1691506dffffffffffffffffffffffffffff1691506000808773ffffffffffffffffffffffffffffffffffffffff168a73ffffffffffffffffffffffffffffffffffffffff1614613bfc578284613bff565b83835b91509150613c40828b73ffffffffffffffffffffffffffffffffffffffff166370a082318a6040518263ffffffff1660e01b81526004016122ad919061512f565b6040517f054d50d400000000000000000000000000000000000000000000000000000000815290965073ffffffffffffffffffffffffffffffffffffffff8f169063054d50d490613c999089908690869060040161546d565b60206040518083038186803b158015613cb157600080fd5b505afa158015613cc5573d6000803e3d6000fd5b505050506040513d601f19601f82011682018060405250810190613ce99190614fbd565b9450505050506000808573ffffffffffffffffffffffffffffffffffffffff168873ffffffffffffffffffffffffffffffffffffffff1614613d2d57826000613d31565b6000835b91509150600060028c51038a10613d48578a613e66565b8c73ffffffffffffffffffffffffffffffffffffffff1663c45a01556040518163ffffffff1660e01b815260040160206040518083038186803b158015613d8e57600080fd5b505afa158015613da2573d6000803e3d6000fd5b505050506040513d601f19601f82011682018060405250810190613dc691906148a6565b73ffffffffffffffffffffffffffffffffffffffff1663e6a43905898e8d60020181518110613df157fe5b60200260200101516040518363ffffffff1660e01b8152600401613e16929190615150565b60206040518083038186803b158015613e2e57600080fd5b505afa158015613e42573d6000803e3d6000fd5b505050506040513d601f19601f82011682018060405250810190613e6691906148a6565b604080516000815260208101918290527f022c0d9f0000000000000000000000000000000000000000000000000000000090915290915073ffffffffffffffffffffffffffffffffffffffff87169063022c0d9f90613ece9086908690869060248101615428565b600060405180830381600087803b158015613ee857600080fd5b505af1158015613efc573d6000803e3d6000fd5b50506001909b019a5061398a9950505050505050505050565b6000821580613f3057505081810281838281613f2d57fe5b04145b61394c57600080fd5b8082038281111561394c57600080fd5b6040805173ffffffffffffffffffffffffffffffffffffffff8481166024830152604480830185905283518084039091018152606490920183526020820180517bffffffffffffffffffffffffffffffffffffffffffffffffffffffff167fa9059cbb000000000000000000000000000000000000000000000000000000001781529251825160009485949389169392918291908083835b6020831061401e57805182527fffffffffffffffffffffffffffffffffffffffffffffffffffffffffffffffe09092019160209182019101613fe1565b6001836020036101000a0380198251168184511680821785525050505050509050019150506000604051808303816000865af19150503d8060008114614080576040519150601f19603f3d011682016040523d82523d6000602084013e614085565b606091505b50915091508180156140b35750805115806140b357508080602001905160208110156140b057600080fd5b50515b611e0257604080517f08c379a000000000000000000000000000000000000000000000000000000000815260206004820152600260248201527f5354000000000000000000000000000000000000000000000000000000000000604482015290519081900360640190fd5b6040805173ffffffffffffffffffffffffffffffffffffffff85811660248301528481166044830152606480830185905283518084039091018152608490920183526020820180517bffffffffffffffffffffffffffffffffffffffffffffffffffffffff167f23b872dd00000000000000000000000000000000000000000000000000000000178152925182516000948594938a169392918291908083835b602083106141fb57805182527fffffffffffffffffffffffffffffffffffffffffffffffffffffffffffffffe090920191602091820191016141be565b6001836020036101000a0380198251168184511680821785525050505050509050019150506000604051808303816000865af19150503d806000811461425d576040519150601f19603f3d011682016040523d82523d6000602084013e614262565b606091505b5091509150818015614290575080511580614290575080806020019051602081101561428d57600080fd5b50515b61077e57604080517f08c379a000000000000000000000000000000000000000000000000000000000815260206004820152600360248201527f5354460000000000000000000000000000000000000000000000000000000000604482015290519081900360640190fd5b6040517f1698ee8200000000000000000000000000000000000000000000000000000000815260009073ffffffffffffffffffffffffffffffffffffffff861690631698ee829061435490879087908790600401615177565b60206040518083038186803b15801561436c57600080fd5b505afa158015614380573d6000803e3d6000fd5b505050506040513d601f19601f8201168201806040525081019061080591906148a6565b60007f800000000000000000000000000000000000000000000000000000000000000082106143d257600080fd5b5090565b60008182601401101561444a57604080517f08c379a000000000000000000000000000000000000000000000000000000000815260206004820152601260248201527f746f416464726573735f6f766572666c6f770000000000000000000000000000604482015290519081900360640190fd5b81601401835110156144bd57604080517f08c379a000000000000000000000000000000000000000000000000000000000815260206004820152601560248201527f746f416464726573735f6f75744f66426f756e64730000000000000000000000604482015290519081900360640190fd5b5001602001516c01000000000000000000000000900490565b60008182600301101561454a57604080517f08c379a000000000000000000000000000000000000000000000000000000000815260206004820152601160248201527f746f55696e7432345f6f766572666c6f77000000000000000000000000000000604482015290519081900360640190fd5b81600301835110156145bd57604080517f08c379a000000000000000000000000000000000000000000000000000000000815260206004820152601460248201527f746f55696e7432345f6f75744f66426f756e6473000000000000000000000000604482015290519081900360640190fd5b50016003015190565b60608182601f01101561463a57604080517f08c379a000000000000000000000000000000000000000000000000000000000815260206004820152600e60248201527f736c6963655f6f766572666c6f77000000000000000000000000000000000000604482015290519081900360640190fd5b8282840110156146ab57604080517f08c379a000000000000000000000000000000000000000000000000000000000815260206004820152600e60248201527f736c6963655f6f766572666c6f77000000000000000000000000000000000000604482015290519081900360640190fd5b8183018451101561471d57604080517f08c379a000000000000000000000000000000000000000000000000000000000815260206004820152601160248201527f736c6963655f6f75744f66426f756e6473000000000000000000000000000000604482015290519081900360640190fd5b60608215801561473c57604051915060008252602082016040526147a4565b6040519150601f8416801560200281840101858101878315602002848b0101015b8183101561477557805183526020928301920161475d565b5050858452601f017fffffffffffffffffffffffffffffffffffffffffffffffffffffffffffffffe016604052505b50949350505050565b803561393881615576565b60008083601f8401126147c9578182fd5b50813567ffffffffffffffff8111156147e0578182fd5b60208301915083602080830285010111156147fa57600080fd5b9250929050565b600082601f830112614811578081fd5b813561482461481f8261550a565b6154e6565b818152846020838601011115614838578283fd5b816020850160208301379081016020019190915292915050565b80516dffffffffffffffffffffffffffff8116811461393857600080fd5b803562ffffff8116811461393857600080fd5b600060208284031215614894578081fd5b813561489f81615576565b9392505050565b6000602082840312156148b7578081fd5b815161489f81615576565b600080604083850312156148d4578081fd5b82356148df81615576565b946020939093013593505050565b600080600060608486031215614901578081fd5b833561490c81615576565b925060208401359150604084013561492381615576565b809150509250925092565b600080600080600060a08688031215614945578283fd5b853561495081615576565b945060208601359350604086013561496781615576565b925060608601359150608086013561497e81615576565b809150509295509295909350565b600080600080608085870312156149a1578182fd5b84356149ac81615576565b9350602085013592506040850135915060608501356149ca81615576565b939692955090935050565b600080602083850312156149e7578182fd5b823567ffffffffffffffff8111156149fd578283fd5b614a09858286016147b8565b90969095509350505050565b60006020808385031215614a27578182fd5b825167ffffffffffffffff80821115614a3e578384fd5b818501915085601f830112614a51578384fd5b815181811115614a5d57fe5b8381029150614a6d8483016154e6565b8181528481019084860184860187018a1015614a87578788fd5b8795505b83861015614aa9578051835260019590950194918601918601614a8b565b5098975050505050505050565b600080600060408486031215614aca578081fd5b83359250602084013567ffffffffffffffff811115614ae7578182fd5b614af3868287016147b8565b9497909650939450505050565b600080600080600080600080610100898b031215614b1c578586fd5b8835614b2781615576565b97506020890135614b3781615576565b96506040890135614b4781615576565b9550606089013594506080890135935060a0890135925060c0890135915060e0890135614b7381615576565b809150509295985092959890939650565b60008060008060008060a08789031215614b9c578384fd5b8635614ba781615576565b95506020870135945060408701359350606087013567ffffffffffffffff811115614bd0578283fd5b614bdc89828a016147b8565b9094509250506080870135614bf081615576565b809150509295509295509295565b60008060408385031215614c10578182fd5b505080516020909101519092909150565b60008060008060608587031215614c36578182fd5b8435935060208501359250604085013567ffffffffffffffff80821115614c5b578384fd5b818701915087601f830112614c6e578384fd5b813581811115614c7c578485fd5b886020828501011115614c8d578485fd5b95989497505060200194505050565b600060208284031215614cad578081fd5b815167ffffffffffffffff811115614cc3578182fd5b8201601f81018413614cd3578182fd5b8051614ce161481f8261550a565b818152856020838501011115614cf5578384fd5b61080582602083016020860161554a565b600060208284031215614d17578081fd5b813567ffffffffffffffff80821115614d2e578283fd5b9083019060a08286031215614d41578283fd5b60405160a081018181108382111715614d5657fe5b604052614d62836147ad565b8152602083013582811115614d75578485fd5b614d8187828601614801565b602083015250614d93604084016147ad565b6040820152606083013560608201526080830135608082015280935050505092915050565b6000610100808385031215614dcb578182fd5b6040519081019067ffffffffffffffff82118183101715614de857fe5b81604052614df5846147ad565b8152614e03602085016147ad565b6020820152614e14604085016147ad565b6040820152614e2560608501614870565b6060820152614e36608085016147ad565b608082015260a084013560a082015260c084013560c0820152614e5b60e085016147ad565b60e0820152949350505050565b600060208284031215614e79578081fd5b813567ffffffffffffffff811115614e8f578182fd5b820160a0818503121561489f578182fd5b60006101008284031215614eb2578081fd5b50919050565b600060208284031215614ec9578081fd5b813567ffffffffffffffff80821115614ee0578283fd5b9083019060408286031215614ef3578283fd5b604051604081018181108382111715614f0857fe5b604052823582811115614f19578485fd5b614f2587828601614801565b82525060208301359250614f3883615576565b6020810192909252509392505050565b600080600060608486031215614f5c578081fd5b614f6584614852565b9250614f7360208501614852565b9150604084015163ffffffff81168114614923578182fd5b600060208284031215614f9c578081fd5b61489f82614870565b600060208284031215614fb6578081fd5b5035919050565b600060208284031215614fce578081fd5b5051919050565b60008060408385031215614fe7578182fd5b823591506020830135614ff981615576565b809150509250929050565b60008060008060808587031215615019578182fd5b84359350602085013561502b81615576565b92506040850135915060608501356149ca81615576565b600080600060608486031215615056578081fd5b8335925060208401359150604084013561492381615576565b6000815180845261508781602086016020860161554a565b601f017fffffffffffffffffffffffffffffffffffffffffffffffffffffffffffffffe0169290920160200192915050565b606093841b7fffffffffffffffffffffffffffffffffffffffff000000000000000000000000908116825260e89390931b7fffffff0000000000000000000000000000000000000000000000000000000000166014820152921b166017820152602b0190565b6000828483379101908152919050565b73ffffffffffffffffffffffffffffffffffffffff91909116815260200190565b73ffffffffffffffffffffffffffffffffffffffff92831681529116602082015260400190565b73ffffffffffffffffffffffffffffffffffffffff938416815291909216602082015262ffffff909116604082015260600190565b600073ffffffffffffffffffffffffffffffffffffffff8088168352861515602084015285604084015280851660608401525060a060808301526151f360a083018461506f565b979650505050505050565b6000602080830181845280855180835260408601915060408482028701019250838701855b8281101561526f577fffffffffffffffffffffffffffffffffffffffffffffffffffffffffffffffc088860301845261525d85835161506f565b94509285019290850190600101615223565b5092979650505050505050565b901515815260200190565b60006020825261489f602083018461506f565b60208082526012908201527f546f6f206d756368207265717565737465640000000000000000000000000000604082015260600190565b6020808252818101527f417065526f757465723a20494e53554646494349454e545f425f414d4f554e54604082015260600190565b6020808252818101527f417065526f757465723a20494e53554646494349454e545f415f414d4f554e54604082015260600190565b60208082526013908201527f546f6f206c6974746c6520726563656976656400000000000000000000000000604082015260600190565b60006020825282516040602084015261538e606084018261506f565b905073ffffffffffffffffffffffffffffffffffffffff60208501511660408401528091505092915050565b90815260200190565b83815260406020808301829052908201839052600090849060608401835b8681101561541c5783356153f481615576565b73ffffffffffffffffffffffffffffffffffffffff16825292820192908201906001016153e1565b50979650505050505050565b600085825284602083015273ffffffffffffffffffffffffffffffffffffffff8416604083015260806060830152615463608083018461506f565b9695505050505050565b9283526020830191909152604082015260600190565b60008083357fffffffffffffffffffffffffffffffffffffffffffffffffffffffffffffffe18436030181126154b7578283fd5b83018035915067ffffffffffffffff8211156154d1578283fd5b6020019150368190038213156147fa57600080fd5b60405181810167ffffffffffffffff8111828210171561550257fe5b604052919050565b600067ffffffffffffffff82111561551e57fe5b50601f017fffffffffffffffffffffffffffffffffffffffffffffffffffffffffffffffe01660200190565b60005b8381101561556557818101518382015260200161554d565b838111156109df5750506000910152565b73ffffffffffffffffffffffffffffffffffffffff81168114610dd457600080fdfe4f776e61626c653a206e6577206f776e657220697320746865207a65726f2061646472657373a164736f6c6343000706000a",
  "linkReferences": {},
  "deployedLinkReferences": {}
}